{
	"contracts/RedTech.sol": {
		"RedTech": {
			"abi": [
				{
					"inputs": [],
					"stateMutability": "nonpayable",
					"type": "constructor"
				},
				{
					"anonymous": false,
					"inputs": [
						{
							"indexed": false,
							"internalType": "uint256",
							"name": "amount",
							"type": "uint256"
						},
						{
							"indexed": true,
							"internalType": "address",
							"name": "fromAddress",
							"type": "address"
						}
					],
					"name": "AmountRecievedFrom",
					"type": "event"
				},
				{
					"anonymous": false,
					"inputs": [
						{
							"indexed": false,
							"internalType": "uint256",
							"name": "value",
							"type": "uint256"
						},
						{
							"indexed": true,
							"internalType": "address",
							"name": "toAddress",
							"type": "address"
						}
					],
					"name": "AmountTransferedTo",
					"type": "event"
				},
				{
					"anonymous": false,
					"inputs": [
						{
							"indexed": true,
							"internalType": "address",
							"name": "oldOwner",
							"type": "address"
						},
						{
							"indexed": true,
							"internalType": "address",
							"name": "newOwner",
							"type": "address"
						}
					],
					"name": "OwnerSet",
					"type": "event"
				},
				{
					"stateMutability": "payable",
					"type": "fallback"
				},
				{
					"inputs": [
						{
							"internalType": "address",
							"name": "newOwner",
							"type": "address"
						}
					],
					"name": "changeOwner",
					"outputs": [],
					"stateMutability": "nonpayable",
					"type": "function"
				},
				{
					"inputs": [],
					"name": "getBalance",
					"outputs": [
						{
							"internalType": "uint256",
							"name": "",
							"type": "uint256"
						}
					],
					"stateMutability": "view",
					"type": "function"
				},
				{
					"inputs": [],
					"name": "getOwner",
					"outputs": [
						{
							"internalType": "address",
							"name": "",
							"type": "address"
						}
					],
					"stateMutability": "view",
					"type": "function"
				},
				{
					"inputs": [
						{
							"internalType": "uint256",
							"name": "amount",
							"type": "uint256"
						}
					],
					"name": "transfer",
					"outputs": [],
					"stateMutability": "payable",
					"type": "function"
				},
				{
					"inputs": [
						{
							"internalType": "address payable",
							"name": "toAddress",
							"type": "address"
						},
						{
							"internalType": "uint256",
							"name": "amount",
							"type": "uint256"
						}
					],
					"name": "transfer",
					"outputs": [],
					"stateMutability": "nonpayable",
					"type": "function"
				},
				{
					"stateMutability": "payable",
					"type": "receive"
				}
			],
			"devdoc": {
				"kind": "dev",
				"methods": {
					"changeOwner(address)": {
						"details": "Change owner",
						"params": {
							"newOwner": "address of new owner"
						}
					},
					"constructor": {
						"details": "Set contract deployer as owner"
					},
					"getBalance()": {
						"details": "Return contract balance ",
						"returns": {
							"_0": "balance of contract"
						}
					},
					"getOwner()": {
						"details": "Return owner address ",
						"returns": {
							"_0": "address of owner"
						}
					},
					"transfer(address,uint256)": {
						"details": "Transfer eth ",
						"params": {
							"amount": "amount (in wei) to be transferred",
							"toAddress": "address of receiver"
						}
					},
					"transfer(uint256)": {
						"details": "User Transfer eth from their account to RedTech",
						"params": {
							"amount": "amount (in wei) to be transferred"
						}
					}
				},
				"title": "RedTech",
				"version": 1
			},
			"evm": {
				"assembly": "    /* \"contracts/RedTech.sol\":96:2506  contract RedTech {... */\n  mstore(0x40, 0x80)\n    /* \"contracts/RedTech.sol\":1119:1289  constructor() {... */\n  callvalue\n  dup1\n  iszero\n  tag_1\n  jumpi\n  0x00\n  dup1\n  revert\ntag_1:\n  pop\n    /* \"contracts/RedTech.sol\":1151:1161  msg.sender */\n  caller\n    /* \"contracts/RedTech.sol\":1143:1148  owner */\n  0x00\n  dup1\n    /* \"contracts/RedTech.sol\":1143:1161  owner = msg.sender */\n  0x0100\n  exp\n  dup2\n  sload\n  dup2\n  0xffffffffffffffffffffffffffffffffffffffff\n  mul\n  not\n  and\n  swap1\n  dup4\n  0xffffffffffffffffffffffffffffffffffffffff\n  and\n  mul\n  or\n  swap1\n  sstore\n  pop\n    /* \"contracts/RedTech.sol\":1276:1281  owner */\n  0x00\n  dup1\n  sload\n  swap1\n  0x0100\n  exp\n  swap1\n  div\n  0xffffffffffffffffffffffffffffffffffffffff\n  and\n    /* \"contracts/RedTech.sol\":1255:1282  OwnerSet(address(0), owner) */\n  0xffffffffffffffffffffffffffffffffffffffff\n  and\n    /* \"contracts/RedTech.sol\":1272:1273  0 */\n  0x00\n    /* \"contracts/RedTech.sol\":1255:1282  OwnerSet(address(0), owner) */\n  0xffffffffffffffffffffffffffffffffffffffff\n  and\n  0x342827c97908e5e2f71151c08502a66d44b6f758e3ac2f1de95f02eb95f0a735\n  mload(0x40)\n  mload(0x40)\n  dup1\n  swap2\n  sub\n  swap1\n  log3\n    /* \"contracts/RedTech.sol\":96:2506  contract RedTech {... */\n  dataSize(sub_0)\n  dup1\n  dataOffset(sub_0)\n  0x00\n  codecopy\n  0x00\n  return\nstop\n\nsub_0: assembly {\n        /* \"contracts/RedTech.sol\":96:2506  contract RedTech {... */\n      mstore(0x40, 0x80)\n      jumpi(tag_1, lt(calldatasize, 0x04))\n      shr(0xe0, calldataload(0x00))\n      dup1\n      0x12065fe0\n      eq\n      tag_3\n      jumpi\n      dup1\n      0x12514bba\n      eq\n      tag_4\n      jumpi\n      dup1\n      0x893d20e8\n      eq\n      tag_5\n      jumpi\n      dup1\n      0xa6f9dae1\n      eq\n      tag_6\n      jumpi\n      dup1\n      0xa9059cbb\n      eq\n      tag_7\n      jumpi\n      jump(tag_2)\n    tag_1:\n      jumpi(tag_2, calldatasize)\n      stop\n    tag_2:\n      stop\n        /* \"contracts/RedTech.sol\":1780:1888  function getBalance() external view isOwner returns (uint256)  {... */\n    tag_3:\n      callvalue\n      dup1\n      iszero\n      tag_12\n      jumpi\n      0x00\n      dup1\n      revert\n    tag_12:\n      pop\n      tag_13\n      tag_14\n      jump\t// in\n    tag_13:\n      mload(0x40)\n      tag_15\n      swap2\n      swap1\n      tag_16\n      jump\t// in\n    tag_15:\n      mload(0x40)\n      dup1\n      swap2\n      sub\n      swap1\n      return\n        /* \"contracts/RedTech.sol\":2386:2503  function  transfer(uint256 amount) public payable {... */\n    tag_4:\n      tag_17\n      0x04\n      dup1\n      calldatasize\n      sub\n      dup2\n      add\n      swap1\n      tag_18\n      swap2\n      swap1\n      tag_19\n      jump\t// in\n    tag_18:\n      tag_20\n      jump\t// in\n    tag_17:\n      stop\n        /* \"contracts/RedTech.sol\":1595:1685  function getOwner() external view isOwner returns (address)  {... */\n    tag_5:\n      callvalue\n      dup1\n      iszero\n      tag_21\n      jumpi\n      0x00\n      dup1\n      revert\n    tag_21:\n      pop\n      tag_22\n      tag_23\n      jump\t// in\n    tag_22:\n      mload(0x40)\n      tag_24\n      swap2\n      swap1\n      tag_25\n      jump\t// in\n    tag_24:\n      mload(0x40)\n      dup1\n      swap2\n      sub\n      swap1\n      return\n        /* \"contracts/RedTech.sol\":1380:1507  function changeOwner(address newOwner) public isOwner {... */\n    tag_6:\n      callvalue\n      dup1\n      iszero\n      tag_26\n      jumpi\n      0x00\n      dup1\n      revert\n    tag_26:\n      pop\n      tag_27\n      0x04\n      dup1\n      calldatasize\n      sub\n      dup2\n      add\n      swap1\n      tag_28\n      swap2\n      swap1\n      tag_29\n      jump\t// in\n    tag_28:\n      tag_30\n      jump\t// in\n    tag_27:\n      stop\n        /* \"contracts/RedTech.sol\":2037:2211  function transfer(address payable toAddress, uint256 amount) public isOwner {... */\n    tag_7:\n      callvalue\n      dup1\n      iszero\n      tag_31\n      jumpi\n      0x00\n      dup1\n      revert\n    tag_31:\n      pop\n      tag_32\n      0x04\n      dup1\n      calldatasize\n      sub\n      dup2\n      add\n      swap1\n      tag_33\n      swap2\n      swap1\n      tag_34\n      jump\t// in\n    tag_33:\n      tag_35\n      jump\t// in\n    tag_32:\n      stop\n        /* \"contracts/RedTech.sol\":1780:1888  function getBalance() external view isOwner returns (uint256)  {... */\n    tag_14:\n        /* \"contracts/RedTech.sol\":1833:1840  uint256 */\n      0x00\n        /* \"contracts/RedTech.sol\":1003:1008  owner */\n      dup1\n      0x00\n      swap1\n      sload\n      swap1\n      0x0100\n      exp\n      swap1\n      div\n      0xffffffffffffffffffffffffffffffffffffffff\n      and\n        /* \"contracts/RedTech.sol\":989:1008  msg.sender == owner */\n      0xffffffffffffffffffffffffffffffffffffffff\n      and\n        /* \"contracts/RedTech.sol\":989:999  msg.sender */\n      caller\n        /* \"contracts/RedTech.sol\":989:1008  msg.sender == owner */\n      0xffffffffffffffffffffffffffffffffffffffff\n      and\n      eq\n        /* \"contracts/RedTech.sol\":981:1032  require(msg.sender == owner, \"Caller is not owner\") */\n      tag_37\n      jumpi\n      mload(0x40)\n      0x08c379a000000000000000000000000000000000000000000000000000000000\n      dup2\n      mstore\n      0x04\n      add\n      tag_38\n      swap1\n      tag_39\n      jump\t// in\n    tag_38:\n      mload(0x40)\n      dup1\n      swap2\n      sub\n      swap1\n      revert\n    tag_37:\n        /* \"contracts/RedTech.sol\":1860:1881  address(this).balance */\n      selfbalance\n        /* \"contracts/RedTech.sol\":1853:1881  return address(this).balance */\n      swap1\n      pop\n        /* \"contracts/RedTech.sol\":1780:1888  function getBalance() external view isOwner returns (uint256)  {... */\n      swap1\n      jump\t// out\n        /* \"contracts/RedTech.sol\":2386:2503  function  transfer(uint256 amount) public payable {... */\n    tag_20:\n        /* \"contracts/RedTech.sol\":2467:2473  amount */\n      dup1\n        /* \"contracts/RedTech.sol\":2454:2463  msg.value */\n      callvalue\n        /* \"contracts/RedTech.sol\":2454:2473  msg.value == amount */\n      eq\n        /* \"contracts/RedTech.sol\":2446:2494  require(msg.value == amount, \"Incorrect amount\") */\n      tag_42\n      jumpi\n      mload(0x40)\n      0x08c379a000000000000000000000000000000000000000000000000000000000\n      dup2\n      mstore\n      0x04\n      add\n      tag_43\n      swap1\n      tag_44\n      jump\t// in\n    tag_43:\n      mload(0x40)\n      dup1\n      swap2\n      sub\n      swap1\n      revert\n    tag_42:\n        /* \"contracts/RedTech.sol\":2386:2503  function  transfer(uint256 amount) public payable {... */\n      pop\n      jump\t// out\n        /* \"contracts/RedTech.sol\":1595:1685  function getOwner() external view isOwner returns (address)  {... */\n    tag_23:\n        /* \"contracts/RedTech.sol\":1646:1653  address */\n      0x00\n        /* \"contracts/RedTech.sol\":1003:1008  owner */\n      dup1\n      0x00\n      swap1\n      sload\n      swap1\n      0x0100\n      exp\n      swap1\n      div\n      0xffffffffffffffffffffffffffffffffffffffff\n      and\n        /* \"contracts/RedTech.sol\":989:1008  msg.sender == owner */\n      0xffffffffffffffffffffffffffffffffffffffff\n      and\n        /* \"contracts/RedTech.sol\":989:999  msg.sender */\n      caller\n        /* \"contracts/RedTech.sol\":989:1008  msg.sender == owner */\n      0xffffffffffffffffffffffffffffffffffffffff\n      and\n      eq\n        /* \"contracts/RedTech.sol\":981:1032  require(msg.sender == owner, \"Caller is not owner\") */\n      tag_46\n      jumpi\n      mload(0x40)\n      0x08c379a000000000000000000000000000000000000000000000000000000000\n      dup2\n      mstore\n      0x04\n      add\n      tag_47\n      swap1\n      tag_39\n      jump\t// in\n    tag_47:\n      mload(0x40)\n      dup1\n      swap2\n      sub\n      swap1\n      revert\n    tag_46:\n        /* \"contracts/RedTech.sol\":1673:1678  owner */\n      0x00\n      dup1\n      sload\n      swap1\n      0x0100\n      exp\n      swap1\n      div\n      0xffffffffffffffffffffffffffffffffffffffff\n      and\n        /* \"contracts/RedTech.sol\":1666:1678  return owner */\n      swap1\n      pop\n        /* \"contracts/RedTech.sol\":1595:1685  function getOwner() external view isOwner returns (address)  {... */\n      swap1\n      jump\t// out\n        /* \"contracts/RedTech.sol\":1380:1507  function changeOwner(address newOwner) public isOwner {... */\n    tag_30:\n        /* \"contracts/RedTech.sol\":1003:1008  owner */\n      0x00\n      dup1\n      sload\n      swap1\n      0x0100\n      exp\n      swap1\n      div\n      0xffffffffffffffffffffffffffffffffffffffff\n      and\n        /* \"contracts/RedTech.sol\":989:1008  msg.sender == owner */\n      0xffffffffffffffffffffffffffffffffffffffff\n      and\n        /* \"contracts/RedTech.sol\":989:999  msg.sender */\n      caller\n        /* \"contracts/RedTech.sol\":989:1008  msg.sender == owner */\n      0xffffffffffffffffffffffffffffffffffffffff\n      and\n      eq\n        /* \"contracts/RedTech.sol\":981:1032  require(msg.sender == owner, \"Caller is not owner\") */\n      tag_50\n      jumpi\n      mload(0x40)\n      0x08c379a000000000000000000000000000000000000000000000000000000000\n      dup2\n      mstore\n      0x04\n      add\n      tag_51\n      swap1\n      tag_39\n      jump\t// in\n    tag_51:\n      mload(0x40)\n      dup1\n      swap2\n      sub\n      swap1\n      revert\n    tag_50:\n        /* \"contracts/RedTech.sol\":1465:1473  newOwner */\n      dup1\n        /* \"contracts/RedTech.sol\":1449:1474  OwnerSet(owner, newOwner) */\n      0xffffffffffffffffffffffffffffffffffffffff\n      and\n        /* \"contracts/RedTech.sol\":1458:1463  owner */\n      0x00\n      dup1\n      sload\n      swap1\n      0x0100\n      exp\n      swap1\n      div\n      0xffffffffffffffffffffffffffffffffffffffff\n      and\n        /* \"contracts/RedTech.sol\":1449:1474  OwnerSet(owner, newOwner) */\n      0xffffffffffffffffffffffffffffffffffffffff\n      and\n      0x342827c97908e5e2f71151c08502a66d44b6f758e3ac2f1de95f02eb95f0a735\n      mload(0x40)\n      mload(0x40)\n      dup1\n      swap2\n      sub\n      swap1\n      log3\n        /* \"contracts/RedTech.sol\":1492:1500  newOwner */\n      dup1\n        /* \"contracts/RedTech.sol\":1484:1489  owner */\n      0x00\n      dup1\n        /* \"contracts/RedTech.sol\":1484:1500  owner = newOwner */\n      0x0100\n      exp\n      dup2\n      sload\n      dup2\n      0xffffffffffffffffffffffffffffffffffffffff\n      mul\n      not\n      and\n      swap1\n      dup4\n      0xffffffffffffffffffffffffffffffffffffffff\n      and\n      mul\n      or\n      swap1\n      sstore\n      pop\n        /* \"contracts/RedTech.sol\":1380:1507  function changeOwner(address newOwner) public isOwner {... */\n      pop\n      jump\t// out\n        /* \"contracts/RedTech.sol\":2037:2211  function transfer(address payable toAddress, uint256 amount) public isOwner {... */\n    tag_35:\n        /* \"contracts/RedTech.sol\":1003:1008  owner */\n      0x00\n      dup1\n      sload\n      swap1\n      0x0100\n      exp\n      swap1\n      div\n      0xffffffffffffffffffffffffffffffffffffffff\n      and\n        /* \"contracts/RedTech.sol\":989:1008  msg.sender == owner */\n      0xffffffffffffffffffffffffffffffffffffffff\n      and\n        /* \"contracts/RedTech.sol\":989:999  msg.sender */\n      caller\n        /* \"contracts/RedTech.sol\":989:1008  msg.sender == owner */\n      0xffffffffffffffffffffffffffffffffffffffff\n      and\n      eq\n        /* \"contracts/RedTech.sol\":981:1032  require(msg.sender == owner, \"Caller is not owner\") */\n      tag_54\n      jumpi\n      mload(0x40)\n      0x08c379a000000000000000000000000000000000000000000000000000000000\n      dup2\n      mstore\n      0x04\n      add\n      tag_55\n      swap1\n      tag_39\n      jump\t// in\n    tag_55:\n      mload(0x40)\n      dup1\n      swap2\n      sub\n      swap1\n      revert\n    tag_54:\n        /* \"contracts/RedTech.sol\":2156:2165  toAddress */\n      dup2\n        /* \"contracts/RedTech.sol\":2129:2166  AmountTransferedTo(amount, toAddress) */\n      0xffffffffffffffffffffffffffffffffffffffff\n      and\n      0x0edba6af8a008df8d478c27771852395d0146033aa0f15af26991be42d994f15\n        /* \"contracts/RedTech.sol\":2148:2154  amount */\n      dup3\n        /* \"contracts/RedTech.sol\":2129:2166  AmountTransferedTo(amount, toAddress) */\n      mload(0x40)\n      tag_57\n      swap2\n      swap1\n      tag_16\n      jump\t// in\n    tag_57:\n      mload(0x40)\n      dup1\n      swap2\n      sub\n      swap1\n      log2\n        /* \"contracts/RedTech.sol\":2177:2186  toAddress */\n      dup2\n        /* \"contracts/RedTech.sol\":2177:2195  toAddress.transfer */\n      0xffffffffffffffffffffffffffffffffffffffff\n      and\n        /* \"contracts/RedTech.sol\":2177:2203  toAddress.transfer(amount) */\n      0x08fc\n        /* \"contracts/RedTech.sol\":2196:2202  amount */\n      dup3\n        /* \"contracts/RedTech.sol\":2177:2203  toAddress.transfer(amount) */\n      swap1\n      dup2\n      iszero\n      mul\n      swap1\n      mload(0x40)\n      0x00\n      mload(0x40)\n      dup1\n      dup4\n      sub\n      dup2\n      dup6\n      dup9\n      dup9\n      call\n      swap4\n      pop\n      pop\n      pop\n      pop\n      iszero\n      dup1\n      iszero\n      tag_59\n      jumpi\n      returndatasize\n      0x00\n      dup1\n      returndatacopy\n      revert(0x00, returndatasize)\n    tag_59:\n      pop\n        /* \"contracts/RedTech.sol\":2037:2211  function transfer(address payable toAddress, uint256 amount) public isOwner {... */\n      pop\n      pop\n      jump\t// out\n        /* \"#utility.yul\":7:146   */\n    tag_61:\n        /* \"#utility.yul\":53:58   */\n      0x00\n        /* \"#utility.yul\":91:97   */\n      dup2\n        /* \"#utility.yul\":78:98   */\n      calldataload\n        /* \"#utility.yul\":69:98   */\n      swap1\n      pop\n        /* \"#utility.yul\":107:140   */\n      tag_63\n        /* \"#utility.yul\":134:139   */\n      dup2\n        /* \"#utility.yul\":107:140   */\n      tag_64\n      jump\t// in\n    tag_63:\n        /* \"#utility.yul\":7:146   */\n      swap3\n      swap2\n      pop\n      pop\n      jump\t// out\n        /* \"#utility.yul\":152:307   */\n    tag_65:\n        /* \"#utility.yul\":206:211   */\n      0x00\n        /* \"#utility.yul\":244:250   */\n      dup2\n        /* \"#utility.yul\":231:251   */\n      calldataload\n        /* \"#utility.yul\":222:251   */\n      swap1\n      pop\n        /* \"#utility.yul\":260:301   */\n      tag_67\n        /* \"#utility.yul\":295:300   */\n      dup2\n        /* \"#utility.yul\":260:301   */\n      tag_68\n      jump\t// in\n    tag_67:\n        /* \"#utility.yul\":152:307   */\n      swap3\n      swap2\n      pop\n      pop\n      jump\t// out\n        /* \"#utility.yul\":313:452   */\n    tag_69:\n        /* \"#utility.yul\":359:364   */\n      0x00\n        /* \"#utility.yul\":397:403   */\n      dup2\n        /* \"#utility.yul\":384:404   */\n      calldataload\n        /* \"#utility.yul\":375:404   */\n      swap1\n      pop\n        /* \"#utility.yul\":413:446   */\n      tag_71\n        /* \"#utility.yul\":440:445   */\n      dup2\n        /* \"#utility.yul\":413:446   */\n      tag_72\n      jump\t// in\n    tag_71:\n        /* \"#utility.yul\":313:452   */\n      swap3\n      swap2\n      pop\n      pop\n      jump\t// out\n        /* \"#utility.yul\":458:787   */\n    tag_29:\n        /* \"#utility.yul\":517:523   */\n      0x00\n        /* \"#utility.yul\":566:568   */\n      0x20\n        /* \"#utility.yul\":554:563   */\n      dup3\n        /* \"#utility.yul\":545:552   */\n      dup5\n        /* \"#utility.yul\":541:564   */\n      sub\n        /* \"#utility.yul\":537:569   */\n      slt\n        /* \"#utility.yul\":534:653   */\n      iszero\n      tag_74\n      jumpi\n        /* \"#utility.yul\":572:651   */\n      tag_75\n      tag_76\n      jump\t// in\n    tag_75:\n        /* \"#utility.yul\":534:653   */\n    tag_74:\n        /* \"#utility.yul\":692:693   */\n      0x00\n        /* \"#utility.yul\":717:770   */\n      tag_77\n        /* \"#utility.yul\":762:769   */\n      dup5\n        /* \"#utility.yul\":753:759   */\n      dup3\n        /* \"#utility.yul\":742:751   */\n      dup6\n        /* \"#utility.yul\":738:760   */\n      add\n        /* \"#utility.yul\":717:770   */\n      tag_61\n      jump\t// in\n    tag_77:\n        /* \"#utility.yul\":707:770   */\n      swap2\n      pop\n        /* \"#utility.yul\":663:780   */\n      pop\n        /* \"#utility.yul\":458:787   */\n      swap3\n      swap2\n      pop\n      pop\n      jump\t// out\n        /* \"#utility.yul\":793:1283   */\n    tag_34:\n        /* \"#utility.yul\":869:875   */\n      0x00\n        /* \"#utility.yul\":877:883   */\n      dup1\n        /* \"#utility.yul\":926:928   */\n      0x40\n        /* \"#utility.yul\":914:923   */\n      dup4\n        /* \"#utility.yul\":905:912   */\n      dup6\n        /* \"#utility.yul\":901:924   */\n      sub\n        /* \"#utility.yul\":897:929   */\n      slt\n        /* \"#utility.yul\":894:1013   */\n      iszero\n      tag_79\n      jumpi\n        /* \"#utility.yul\":932:1011   */\n      tag_80\n      tag_76\n      jump\t// in\n    tag_80:\n        /* \"#utility.yul\":894:1013   */\n    tag_79:\n        /* \"#utility.yul\":1052:1053   */\n      0x00\n        /* \"#utility.yul\":1077:1138   */\n      tag_81\n        /* \"#utility.yul\":1130:1137   */\n      dup6\n        /* \"#utility.yul\":1121:1127   */\n      dup3\n        /* \"#utility.yul\":1110:1119   */\n      dup7\n        /* \"#utility.yul\":1106:1128   */\n      add\n        /* \"#utility.yul\":1077:1138   */\n      tag_65\n      jump\t// in\n    tag_81:\n        /* \"#utility.yul\":1067:1138   */\n      swap3\n      pop\n        /* \"#utility.yul\":1023:1148   */\n      pop\n        /* \"#utility.yul\":1187:1189   */\n      0x20\n        /* \"#utility.yul\":1213:1266   */\n      tag_82\n        /* \"#utility.yul\":1258:1265   */\n      dup6\n        /* \"#utility.yul\":1249:1255   */\n      dup3\n        /* \"#utility.yul\":1238:1247   */\n      dup7\n        /* \"#utility.yul\":1234:1256   */\n      add\n        /* \"#utility.yul\":1213:1266   */\n      tag_69\n      jump\t// in\n    tag_82:\n        /* \"#utility.yul\":1203:1266   */\n      swap2\n      pop\n        /* \"#utility.yul\":1158:1276   */\n      pop\n        /* \"#utility.yul\":793:1283   */\n      swap3\n      pop\n      swap3\n      swap1\n      pop\n      jump\t// out\n        /* \"#utility.yul\":1289:1618   */\n    tag_19:\n        /* \"#utility.yul\":1348:1354   */\n      0x00\n        /* \"#utility.yul\":1397:1399   */\n      0x20\n        /* \"#utility.yul\":1385:1394   */\n      dup3\n        /* \"#utility.yul\":1376:1383   */\n      dup5\n        /* \"#utility.yul\":1372:1395   */\n      sub\n        /* \"#utility.yul\":1368:1400   */\n      slt\n        /* \"#utility.yul\":1365:1484   */\n      iszero\n      tag_84\n      jumpi\n        /* \"#utility.yul\":1403:1482   */\n      tag_85\n      tag_76\n      jump\t// in\n    tag_85:\n        /* \"#utility.yul\":1365:1484   */\n    tag_84:\n        /* \"#utility.yul\":1523:1524   */\n      0x00\n        /* \"#utility.yul\":1548:1601   */\n      tag_86\n        /* \"#utility.yul\":1593:1600   */\n      dup5\n        /* \"#utility.yul\":1584:1590   */\n      dup3\n        /* \"#utility.yul\":1573:1582   */\n      dup6\n        /* \"#utility.yul\":1569:1591   */\n      add\n        /* \"#utility.yul\":1548:1601   */\n      tag_69\n      jump\t// in\n    tag_86:\n        /* \"#utility.yul\":1538:1601   */\n      swap2\n      pop\n        /* \"#utility.yul\":1494:1611   */\n      pop\n        /* \"#utility.yul\":1289:1618   */\n      swap3\n      swap2\n      pop\n      pop\n      jump\t// out\n        /* \"#utility.yul\":1624:1742   */\n    tag_87:\n        /* \"#utility.yul\":1711:1735   */\n      tag_89\n        /* \"#utility.yul\":1729:1734   */\n      dup2\n        /* \"#utility.yul\":1711:1735   */\n      tag_90\n      jump\t// in\n    tag_89:\n        /* \"#utility.yul\":1706:1709   */\n      dup3\n        /* \"#utility.yul\":1699:1736   */\n      mstore\n        /* \"#utility.yul\":1624:1742   */\n      pop\n      pop\n      jump\t// out\n        /* \"#utility.yul\":1748:2114   */\n    tag_91:\n        /* \"#utility.yul\":1890:1893   */\n      0x00\n        /* \"#utility.yul\":1911:1978   */\n      tag_93\n        /* \"#utility.yul\":1975:1977   */\n      0x13\n        /* \"#utility.yul\":1970:1973   */\n      dup4\n        /* \"#utility.yul\":1911:1978   */\n      tag_94\n      jump\t// in\n    tag_93:\n        /* \"#utility.yul\":1904:1978   */\n      swap2\n      pop\n        /* \"#utility.yul\":1987:2080   */\n      tag_95\n        /* \"#utility.yul\":2076:2079   */\n      dup3\n        /* \"#utility.yul\":1987:2080   */\n      tag_96\n      jump\t// in\n    tag_95:\n        /* \"#utility.yul\":2105:2107   */\n      0x20\n        /* \"#utility.yul\":2100:2103   */\n      dup3\n        /* \"#utility.yul\":2096:2108   */\n      add\n        /* \"#utility.yul\":2089:2108   */\n      swap1\n      pop\n        /* \"#utility.yul\":1748:2114   */\n      swap2\n      swap1\n      pop\n      jump\t// out\n        /* \"#utility.yul\":2120:2486   */\n    tag_97:\n        /* \"#utility.yul\":2262:2265   */\n      0x00\n        /* \"#utility.yul\":2283:2350   */\n      tag_99\n        /* \"#utility.yul\":2347:2349   */\n      0x10\n        /* \"#utility.yul\":2342:2345   */\n      dup4\n        /* \"#utility.yul\":2283:2350   */\n      tag_94\n      jump\t// in\n    tag_99:\n        /* \"#utility.yul\":2276:2350   */\n      swap2\n      pop\n        /* \"#utility.yul\":2359:2452   */\n      tag_100\n        /* \"#utility.yul\":2448:2451   */\n      dup3\n        /* \"#utility.yul\":2359:2452   */\n      tag_101\n      jump\t// in\n    tag_100:\n        /* \"#utility.yul\":2477:2479   */\n      0x20\n        /* \"#utility.yul\":2472:2475   */\n      dup3\n        /* \"#utility.yul\":2468:2480   */\n      add\n        /* \"#utility.yul\":2461:2480   */\n      swap1\n      pop\n        /* \"#utility.yul\":2120:2486   */\n      swap2\n      swap1\n      pop\n      jump\t// out\n        /* \"#utility.yul\":2492:2610   */\n    tag_102:\n        /* \"#utility.yul\":2579:2603   */\n      tag_104\n        /* \"#utility.yul\":2597:2602   */\n      dup2\n        /* \"#utility.yul\":2579:2603   */\n      tag_105\n      jump\t// in\n    tag_104:\n        /* \"#utility.yul\":2574:2577   */\n      dup3\n        /* \"#utility.yul\":2567:2604   */\n      mstore\n        /* \"#utility.yul\":2492:2610   */\n      pop\n      pop\n      jump\t// out\n        /* \"#utility.yul\":2616:2838   */\n    tag_25:\n        /* \"#utility.yul\":2709:2713   */\n      0x00\n        /* \"#utility.yul\":2747:2749   */\n      0x20\n        /* \"#utility.yul\":2736:2745   */\n      dup3\n        /* \"#utility.yul\":2732:2750   */\n      add\n        /* \"#utility.yul\":2724:2750   */\n      swap1\n      pop\n        /* \"#utility.yul\":2760:2831   */\n      tag_107\n        /* \"#utility.yul\":2828:2829   */\n      0x00\n        /* \"#utility.yul\":2817:2826   */\n      dup4\n        /* \"#utility.yul\":2813:2830   */\n      add\n        /* \"#utility.yul\":2804:2810   */\n      dup5\n        /* \"#utility.yul\":2760:2831   */\n      tag_87\n      jump\t// in\n    tag_107:\n        /* \"#utility.yul\":2616:2838   */\n      swap3\n      swap2\n      pop\n      pop\n      jump\t// out\n        /* \"#utility.yul\":2844:3263   */\n    tag_39:\n        /* \"#utility.yul\":3010:3014   */\n      0x00\n        /* \"#utility.yul\":3048:3050   */\n      0x20\n        /* \"#utility.yul\":3037:3046   */\n      dup3\n        /* \"#utility.yul\":3033:3051   */\n      add\n        /* \"#utility.yul\":3025:3051   */\n      swap1\n      pop\n        /* \"#utility.yul\":3097:3106   */\n      dup2\n        /* \"#utility.yul\":3091:3095   */\n      dup2\n        /* \"#utility.yul\":3087:3107   */\n      sub\n        /* \"#utility.yul\":3083:3084   */\n      0x00\n        /* \"#utility.yul\":3072:3081   */\n      dup4\n        /* \"#utility.yul\":3068:3085   */\n      add\n        /* \"#utility.yul\":3061:3108   */\n      mstore\n        /* \"#utility.yul\":3125:3256   */\n      tag_109\n        /* \"#utility.yul\":3251:3255   */\n      dup2\n        /* \"#utility.yul\":3125:3256   */\n      tag_91\n      jump\t// in\n    tag_109:\n        /* \"#utility.yul\":3117:3256   */\n      swap1\n      pop\n        /* \"#utility.yul\":2844:3263   */\n      swap2\n      swap1\n      pop\n      jump\t// out\n        /* \"#utility.yul\":3269:3688   */\n    tag_44:\n        /* \"#utility.yul\":3435:3439   */\n      0x00\n        /* \"#utility.yul\":3473:3475   */\n      0x20\n        /* \"#utility.yul\":3462:3471   */\n      dup3\n        /* \"#utility.yul\":3458:3476   */\n      add\n        /* \"#utility.yul\":3450:3476   */\n      swap1\n      pop\n        /* \"#utility.yul\":3522:3531   */\n      dup2\n        /* \"#utility.yul\":3516:3520   */\n      dup2\n        /* \"#utility.yul\":3512:3532   */\n      sub\n        /* \"#utility.yul\":3508:3509   */\n      0x00\n        /* \"#utility.yul\":3497:3506   */\n      dup4\n        /* \"#utility.yul\":3493:3510   */\n      add\n        /* \"#utility.yul\":3486:3533   */\n      mstore\n        /* \"#utility.yul\":3550:3681   */\n      tag_111\n        /* \"#utility.yul\":3676:3680   */\n      dup2\n        /* \"#utility.yul\":3550:3681   */\n      tag_97\n      jump\t// in\n    tag_111:\n        /* \"#utility.yul\":3542:3681   */\n      swap1\n      pop\n        /* \"#utility.yul\":3269:3688   */\n      swap2\n      swap1\n      pop\n      jump\t// out\n        /* \"#utility.yul\":3694:3916   */\n    tag_16:\n        /* \"#utility.yul\":3787:3791   */\n      0x00\n        /* \"#utility.yul\":3825:3827   */\n      0x20\n        /* \"#utility.yul\":3814:3823   */\n      dup3\n        /* \"#utility.yul\":3810:3828   */\n      add\n        /* \"#utility.yul\":3802:3828   */\n      swap1\n      pop\n        /* \"#utility.yul\":3838:3909   */\n      tag_113\n        /* \"#utility.yul\":3906:3907   */\n      0x00\n        /* \"#utility.yul\":3895:3904   */\n      dup4\n        /* \"#utility.yul\":3891:3908   */\n      add\n        /* \"#utility.yul\":3882:3888   */\n      dup5\n        /* \"#utility.yul\":3838:3909   */\n      tag_102\n      jump\t// in\n    tag_113:\n        /* \"#utility.yul\":3694:3916   */\n      swap3\n      swap2\n      pop\n      pop\n      jump\t// out\n        /* \"#utility.yul\":4003:4172   */\n    tag_94:\n        /* \"#utility.yul\":4087:4098   */\n      0x00\n        /* \"#utility.yul\":4121:4127   */\n      dup3\n        /* \"#utility.yul\":4116:4119   */\n      dup3\n        /* \"#utility.yul\":4109:4128   */\n      mstore\n        /* \"#utility.yul\":4161:4165   */\n      0x20\n        /* \"#utility.yul\":4156:4159   */\n      dup3\n        /* \"#utility.yul\":4152:4166   */\n      add\n        /* \"#utility.yul\":4137:4166   */\n      swap1\n      pop\n        /* \"#utility.yul\":4003:4172   */\n      swap3\n      swap2\n      pop\n      pop\n      jump\t// out\n        /* \"#utility.yul\":4178:4274   */\n    tag_90:\n        /* \"#utility.yul\":4215:4222   */\n      0x00\n        /* \"#utility.yul\":4244:4268   */\n      tag_118\n        /* \"#utility.yul\":4262:4267   */\n      dup3\n        /* \"#utility.yul\":4244:4268   */\n      tag_119\n      jump\t// in\n    tag_118:\n        /* \"#utility.yul\":4233:4268   */\n      swap1\n      pop\n        /* \"#utility.yul\":4178:4274   */\n      swap2\n      swap1\n      pop\n      jump\t// out\n        /* \"#utility.yul\":4280:4384   */\n    tag_120:\n        /* \"#utility.yul\":4325:4332   */\n      0x00\n        /* \"#utility.yul\":4354:4378   */\n      tag_122\n        /* \"#utility.yul\":4372:4377   */\n      dup3\n        /* \"#utility.yul\":4354:4378   */\n      tag_119\n      jump\t// in\n    tag_122:\n        /* \"#utility.yul\":4343:4378   */\n      swap1\n      pop\n        /* \"#utility.yul\":4280:4384   */\n      swap2\n      swap1\n      pop\n      jump\t// out\n        /* \"#utility.yul\":4390:4516   */\n    tag_119:\n        /* \"#utility.yul\":4427:4434   */\n      0x00\n        /* \"#utility.yul\":4467:4509   */\n      0xffffffffffffffffffffffffffffffffffffffff\n        /* \"#utility.yul\":4460:4465   */\n      dup3\n        /* \"#utility.yul\":4456:4510   */\n      and\n        /* \"#utility.yul\":4445:4510   */\n      swap1\n      pop\n        /* \"#utility.yul\":4390:4516   */\n      swap2\n      swap1\n      pop\n      jump\t// out\n        /* \"#utility.yul\":4522:4599   */\n    tag_105:\n        /* \"#utility.yul\":4559:4566   */\n      0x00\n        /* \"#utility.yul\":4588:4593   */\n      dup2\n        /* \"#utility.yul\":4577:4593   */\n      swap1\n      pop\n        /* \"#utility.yul\":4522:4599   */\n      swap2\n      swap1\n      pop\n      jump\t// out\n        /* \"#utility.yul\":4728:4845   */\n    tag_76:\n        /* \"#utility.yul\":4837:4838   */\n      0x00\n        /* \"#utility.yul\":4834:4835   */\n      dup1\n        /* \"#utility.yul\":4827:4839   */\n      revert\n        /* \"#utility.yul\":4851:5020   */\n    tag_96:\n        /* \"#utility.yul\":4991:5012   */\n      0x43616c6c6572206973206e6f74206f776e657200000000000000000000000000\n        /* \"#utility.yul\":4987:4988   */\n      0x00\n        /* \"#utility.yul\":4979:4985   */\n      dup3\n        /* \"#utility.yul\":4975:4989   */\n      add\n        /* \"#utility.yul\":4968:5013   */\n      mstore\n        /* \"#utility.yul\":4851:5020   */\n      pop\n      jump\t// out\n        /* \"#utility.yul\":5026:5192   */\n    tag_101:\n        /* \"#utility.yul\":5166:5184   */\n      0x496e636f727265637420616d6f756e7400000000000000000000000000000000\n        /* \"#utility.yul\":5162:5163   */\n      0x00\n        /* \"#utility.yul\":5154:5160   */\n      dup3\n        /* \"#utility.yul\":5150:5164   */\n      add\n        /* \"#utility.yul\":5143:5185   */\n      mstore\n        /* \"#utility.yul\":5026:5192   */\n      pop\n      jump\t// out\n        /* \"#utility.yul\":5198:5320   */\n    tag_64:\n        /* \"#utility.yul\":5271:5295   */\n      tag_131\n        /* \"#utility.yul\":5289:5294   */\n      dup2\n        /* \"#utility.yul\":5271:5295   */\n      tag_90\n      jump\t// in\n    tag_131:\n        /* \"#utility.yul\":5264:5269   */\n      dup2\n        /* \"#utility.yul\":5261:5296   */\n      eq\n        /* \"#utility.yul\":5251:5314   */\n      tag_132\n      jumpi\n        /* \"#utility.yul\":5310:5311   */\n      0x00\n        /* \"#utility.yul\":5307:5308   */\n      dup1\n        /* \"#utility.yul\":5300:5312   */\n      revert\n        /* \"#utility.yul\":5251:5314   */\n    tag_132:\n        /* \"#utility.yul\":5198:5320   */\n      pop\n      jump\t// out\n        /* \"#utility.yul\":5326:5464   */\n    tag_68:\n        /* \"#utility.yul\":5407:5439   */\n      tag_134\n        /* \"#utility.yul\":5433:5438   */\n      dup2\n        /* \"#utility.yul\":5407:5439   */\n      tag_120\n      jump\t// in\n    tag_134:\n        /* \"#utility.yul\":5400:5405   */\n      dup2\n        /* \"#utility.yul\":5397:5440   */\n      eq\n        /* \"#utility.yul\":5387:5458   */\n      tag_135\n      jumpi\n        /* \"#utility.yul\":5454:5455   */\n      0x00\n        /* \"#utility.yul\":5451:5452   */\n      dup1\n        /* \"#utility.yul\":5444:5456   */\n      revert\n        /* \"#utility.yul\":5387:5458   */\n    tag_135:\n        /* \"#utility.yul\":5326:5464   */\n      pop\n      jump\t// out\n        /* \"#utility.yul\":5470:5592   */\n    tag_72:\n        /* \"#utility.yul\":5543:5567   */\n      tag_137\n        /* \"#utility.yul\":5561:5566   */\n      dup2\n        /* \"#utility.yul\":5543:5567   */\n      tag_105\n      jump\t// in\n    tag_137:\n        /* \"#utility.yul\":5536:5541   */\n      dup2\n        /* \"#utility.yul\":5533:5568   */\n      eq\n        /* \"#utility.yul\":5523:5586   */\n      tag_138\n      jumpi\n        /* \"#utility.yul\":5582:5583   */\n      0x00\n        /* \"#utility.yul\":5579:5580   */\n      dup1\n        /* \"#utility.yul\":5572:5584   */\n      revert\n        /* \"#utility.yul\":5523:5586   */\n    tag_138:\n        /* \"#utility.yul\":5470:5592   */\n      pop\n      jump\t// out\n\n    auxdata: 0xa26469706673582212206ce5fe414db0b60afc3ce95cd0bed5692cf355ad8f7d247e21fe8e6a699d926f64736f6c63430008070033\n}\n",
				"bytecode": {
					"linkReferences": {},
					"object": "608060405234801561001057600080fd5b50336000806101000a81548173ffffffffffffffffffffffffffffffffffffffff021916908373ffffffffffffffffffffffffffffffffffffffff16021790555060008054906101000a900473ffffffffffffffffffffffffffffffffffffffff1673ffffffffffffffffffffffffffffffffffffffff16600073ffffffffffffffffffffffffffffffffffffffff167f342827c97908e5e2f71151c08502a66d44b6f758e3ac2f1de95f02eb95f0a73560405160405180910390a3610804806100db6000396000f3fe60806040526004361061004e5760003560e01c806312065fe01461005757806312514bba14610082578063893d20e81461009e578063a6f9dae1146100c9578063a9059cbb146100f257610055565b3661005557005b005b34801561006357600080fd5b5061006c61011b565b60405161007991906106b8565b60405180910390f35b61009c600480360381019061009791906105cc565b6101b2565b005b3480156100aa57600080fd5b506100b36101f7565b6040516100c0919061065d565b60405180910390f35b3480156100d557600080fd5b506100f060048036038101906100eb919061055f565b6102ae565b005b3480156100fe57600080fd5b506101196004803603810190610114919061058c565b6103f9565b005b60008060009054906101000a900473ffffffffffffffffffffffffffffffffffffffff1673ffffffffffffffffffffffffffffffffffffffff163373ffffffffffffffffffffffffffffffffffffffff16146101ac576040517f08c379a00000000000000000000000000000000000000000000000000000000081526004016101a390610678565b60405180910390fd5b47905090565b8034146101f4576040517f08c379a00000000000000000000000000000000000000000000000000000000081526004016101eb90610698565b60405180910390fd5b50565b60008060009054906101000a900473ffffffffffffffffffffffffffffffffffffffff1673ffffffffffffffffffffffffffffffffffffffff163373ffffffffffffffffffffffffffffffffffffffff1614610288576040517f08c379a000000000000000000000000000000000000000000000000000000000815260040161027f90610678565b60405180910390fd5b60008054906101000a900473ffffffffffffffffffffffffffffffffffffffff16905090565b60008054906101000a900473ffffffffffffffffffffffffffffffffffffffff1673ffffffffffffffffffffffffffffffffffffffff163373ffffffffffffffffffffffffffffffffffffffff161461033c576040517f08c379a000000000000000000000000000000000000000000000000000000000815260040161033390610678565b60405180910390fd5b8073ffffffffffffffffffffffffffffffffffffffff1660008054906101000a900473ffffffffffffffffffffffffffffffffffffffff1673ffffffffffffffffffffffffffffffffffffffff167f342827c97908e5e2f71151c08502a66d44b6f758e3ac2f1de95f02eb95f0a73560405160405180910390a3806000806101000a81548173ffffffffffffffffffffffffffffffffffffffff021916908373ffffffffffffffffffffffffffffffffffffffff16021790555050565b60008054906101000a900473ffffffffffffffffffffffffffffffffffffffff1673ffffffffffffffffffffffffffffffffffffffff163373ffffffffffffffffffffffffffffffffffffffff1614610487576040517f08c379a000000000000000000000000000000000000000000000000000000000815260040161047e90610678565b60405180910390fd5b8173ffffffffffffffffffffffffffffffffffffffff167f0edba6af8a008df8d478c27771852395d0146033aa0f15af26991be42d994f15826040516104cd91906106b8565b60405180910390a28173ffffffffffffffffffffffffffffffffffffffff166108fc829081150290604051600060405180830381858888f1935050505015801561051b573d6000803e3d6000fd5b505050565b60008135905061052f81610789565b92915050565b600081359050610544816107a0565b92915050565b600081359050610559816107b7565b92915050565b60006020828403121561057557610574610732565b5b600061058384828501610520565b91505092915050565b600080604083850312156105a3576105a2610732565b5b60006105b185828601610535565b92505060206105c28582860161054a565b9150509250929050565b6000602082840312156105e2576105e1610732565b5b60006105f08482850161054a565b91505092915050565b610602816106e4565b82525050565b60006106156013836106d3565b915061062082610737565b602082019050919050565b60006106386010836106d3565b915061064382610760565b602082019050919050565b61065781610728565b82525050565b600060208201905061067260008301846105f9565b92915050565b6000602082019050818103600083015261069181610608565b9050919050565b600060208201905081810360008301526106b18161062b565b9050919050565b60006020820190506106cd600083018461064e565b92915050565b600082825260208201905092915050565b60006106ef82610708565b9050919050565b600061070182610708565b9050919050565b600073ffffffffffffffffffffffffffffffffffffffff82169050919050565b6000819050919050565b600080fd5b7f43616c6c6572206973206e6f74206f776e657200000000000000000000000000600082015250565b7f496e636f727265637420616d6f756e7400000000000000000000000000000000600082015250565b610792816106e4565b811461079d57600080fd5b50565b6107a9816106f6565b81146107b457600080fd5b50565b6107c081610728565b81146107cb57600080fd5b5056fea26469706673582212206ce5fe414db0b60afc3ce95cd0bed5692cf355ad8f7d247e21fe8e6a699d926f64736f6c63430008070033",
					"opcodes": "PUSH1 0x80 PUSH1 0x40 MSTORE CALLVALUE DUP1 ISZERO PUSH2 0x10 JUMPI PUSH1 0x0 DUP1 REVERT JUMPDEST POP CALLER PUSH1 0x0 DUP1 PUSH2 0x100 EXP DUP2 SLOAD DUP2 PUSH20 0xFFFFFFFFFFFFFFFFFFFFFFFFFFFFFFFFFFFFFFFF MUL NOT AND SWAP1 DUP4 PUSH20 0xFFFFFFFFFFFFFFFFFFFFFFFFFFFFFFFFFFFFFFFF AND MUL OR SWAP1 SSTORE POP PUSH1 0x0 DUP1 SLOAD SWAP1 PUSH2 0x100 EXP SWAP1 DIV PUSH20 0xFFFFFFFFFFFFFFFFFFFFFFFFFFFFFFFFFFFFFFFF AND PUSH20 0xFFFFFFFFFFFFFFFFFFFFFFFFFFFFFFFFFFFFFFFF AND PUSH1 0x0 PUSH20 0xFFFFFFFFFFFFFFFFFFFFFFFFFFFFFFFFFFFFFFFF AND PUSH32 0x342827C97908E5E2F71151C08502A66D44B6F758E3AC2F1DE95F02EB95F0A735 PUSH1 0x40 MLOAD PUSH1 0x40 MLOAD DUP1 SWAP2 SUB SWAP1 LOG3 PUSH2 0x804 DUP1 PUSH2 0xDB PUSH1 0x0 CODECOPY PUSH1 0x0 RETURN INVALID PUSH1 0x80 PUSH1 0x40 MSTORE PUSH1 0x4 CALLDATASIZE LT PUSH2 0x4E JUMPI PUSH1 0x0 CALLDATALOAD PUSH1 0xE0 SHR DUP1 PUSH4 0x12065FE0 EQ PUSH2 0x57 JUMPI DUP1 PUSH4 0x12514BBA EQ PUSH2 0x82 JUMPI DUP1 PUSH4 0x893D20E8 EQ PUSH2 0x9E JUMPI DUP1 PUSH4 0xA6F9DAE1 EQ PUSH2 0xC9 JUMPI DUP1 PUSH4 0xA9059CBB EQ PUSH2 0xF2 JUMPI PUSH2 0x55 JUMP JUMPDEST CALLDATASIZE PUSH2 0x55 JUMPI STOP JUMPDEST STOP JUMPDEST CALLVALUE DUP1 ISZERO PUSH2 0x63 JUMPI PUSH1 0x0 DUP1 REVERT JUMPDEST POP PUSH2 0x6C PUSH2 0x11B JUMP JUMPDEST PUSH1 0x40 MLOAD PUSH2 0x79 SWAP2 SWAP1 PUSH2 0x6B8 JUMP JUMPDEST PUSH1 0x40 MLOAD DUP1 SWAP2 SUB SWAP1 RETURN JUMPDEST PUSH2 0x9C PUSH1 0x4 DUP1 CALLDATASIZE SUB DUP2 ADD SWAP1 PUSH2 0x97 SWAP2 SWAP1 PUSH2 0x5CC JUMP JUMPDEST PUSH2 0x1B2 JUMP JUMPDEST STOP JUMPDEST CALLVALUE DUP1 ISZERO PUSH2 0xAA JUMPI PUSH1 0x0 DUP1 REVERT JUMPDEST POP PUSH2 0xB3 PUSH2 0x1F7 JUMP JUMPDEST PUSH1 0x40 MLOAD PUSH2 0xC0 SWAP2 SWAP1 PUSH2 0x65D JUMP JUMPDEST PUSH1 0x40 MLOAD DUP1 SWAP2 SUB SWAP1 RETURN JUMPDEST CALLVALUE DUP1 ISZERO PUSH2 0xD5 JUMPI PUSH1 0x0 DUP1 REVERT JUMPDEST POP PUSH2 0xF0 PUSH1 0x4 DUP1 CALLDATASIZE SUB DUP2 ADD SWAP1 PUSH2 0xEB SWAP2 SWAP1 PUSH2 0x55F JUMP JUMPDEST PUSH2 0x2AE JUMP JUMPDEST STOP JUMPDEST CALLVALUE DUP1 ISZERO PUSH2 0xFE JUMPI PUSH1 0x0 DUP1 REVERT JUMPDEST POP PUSH2 0x119 PUSH1 0x4 DUP1 CALLDATASIZE SUB DUP2 ADD SWAP1 PUSH2 0x114 SWAP2 SWAP1 PUSH2 0x58C JUMP JUMPDEST PUSH2 0x3F9 JUMP JUMPDEST STOP JUMPDEST PUSH1 0x0 DUP1 PUSH1 0x0 SWAP1 SLOAD SWAP1 PUSH2 0x100 EXP SWAP1 DIV PUSH20 0xFFFFFFFFFFFFFFFFFFFFFFFFFFFFFFFFFFFFFFFF AND PUSH20 0xFFFFFFFFFFFFFFFFFFFFFFFFFFFFFFFFFFFFFFFF AND CALLER PUSH20 0xFFFFFFFFFFFFFFFFFFFFFFFFFFFFFFFFFFFFFFFF AND EQ PUSH2 0x1AC JUMPI PUSH1 0x40 MLOAD PUSH32 0x8C379A000000000000000000000000000000000000000000000000000000000 DUP2 MSTORE PUSH1 0x4 ADD PUSH2 0x1A3 SWAP1 PUSH2 0x678 JUMP JUMPDEST PUSH1 0x40 MLOAD DUP1 SWAP2 SUB SWAP1 REVERT JUMPDEST SELFBALANCE SWAP1 POP SWAP1 JUMP JUMPDEST DUP1 CALLVALUE EQ PUSH2 0x1F4 JUMPI PUSH1 0x40 MLOAD PUSH32 0x8C379A000000000000000000000000000000000000000000000000000000000 DUP2 MSTORE PUSH1 0x4 ADD PUSH2 0x1EB SWAP1 PUSH2 0x698 JUMP JUMPDEST PUSH1 0x40 MLOAD DUP1 SWAP2 SUB SWAP1 REVERT JUMPDEST POP JUMP JUMPDEST PUSH1 0x0 DUP1 PUSH1 0x0 SWAP1 SLOAD SWAP1 PUSH2 0x100 EXP SWAP1 DIV PUSH20 0xFFFFFFFFFFFFFFFFFFFFFFFFFFFFFFFFFFFFFFFF AND PUSH20 0xFFFFFFFFFFFFFFFFFFFFFFFFFFFFFFFFFFFFFFFF AND CALLER PUSH20 0xFFFFFFFFFFFFFFFFFFFFFFFFFFFFFFFFFFFFFFFF AND EQ PUSH2 0x288 JUMPI PUSH1 0x40 MLOAD PUSH32 0x8C379A000000000000000000000000000000000000000000000000000000000 DUP2 MSTORE PUSH1 0x4 ADD PUSH2 0x27F SWAP1 PUSH2 0x678 JUMP JUMPDEST PUSH1 0x40 MLOAD DUP1 SWAP2 SUB SWAP1 REVERT JUMPDEST PUSH1 0x0 DUP1 SLOAD SWAP1 PUSH2 0x100 EXP SWAP1 DIV PUSH20 0xFFFFFFFFFFFFFFFFFFFFFFFFFFFFFFFFFFFFFFFF AND SWAP1 POP SWAP1 JUMP JUMPDEST PUSH1 0x0 DUP1 SLOAD SWAP1 PUSH2 0x100 EXP SWAP1 DIV PUSH20 0xFFFFFFFFFFFFFFFFFFFFFFFFFFFFFFFFFFFFFFFF AND PUSH20 0xFFFFFFFFFFFFFFFFFFFFFFFFFFFFFFFFFFFFFFFF AND CALLER PUSH20 0xFFFFFFFFFFFFFFFFFFFFFFFFFFFFFFFFFFFFFFFF AND EQ PUSH2 0x33C JUMPI PUSH1 0x40 MLOAD PUSH32 0x8C379A000000000000000000000000000000000000000000000000000000000 DUP2 MSTORE PUSH1 0x4 ADD PUSH2 0x333 SWAP1 PUSH2 0x678 JUMP JUMPDEST PUSH1 0x40 MLOAD DUP1 SWAP2 SUB SWAP1 REVERT JUMPDEST DUP1 PUSH20 0xFFFFFFFFFFFFFFFFFFFFFFFFFFFFFFFFFFFFFFFF AND PUSH1 0x0 DUP1 SLOAD SWAP1 PUSH2 0x100 EXP SWAP1 DIV PUSH20 0xFFFFFFFFFFFFFFFFFFFFFFFFFFFFFFFFFFFFFFFF AND PUSH20 0xFFFFFFFFFFFFFFFFFFFFFFFFFFFFFFFFFFFFFFFF AND PUSH32 0x342827C97908E5E2F71151C08502A66D44B6F758E3AC2F1DE95F02EB95F0A735 PUSH1 0x40 MLOAD PUSH1 0x40 MLOAD DUP1 SWAP2 SUB SWAP1 LOG3 DUP1 PUSH1 0x0 DUP1 PUSH2 0x100 EXP DUP2 SLOAD DUP2 PUSH20 0xFFFFFFFFFFFFFFFFFFFFFFFFFFFFFFFFFFFFFFFF MUL NOT AND SWAP1 DUP4 PUSH20 0xFFFFFFFFFFFFFFFFFFFFFFFFFFFFFFFFFFFFFFFF AND MUL OR SWAP1 SSTORE POP POP JUMP JUMPDEST PUSH1 0x0 DUP1 SLOAD SWAP1 PUSH2 0x100 EXP SWAP1 DIV PUSH20 0xFFFFFFFFFFFFFFFFFFFFFFFFFFFFFFFFFFFFFFFF AND PUSH20 0xFFFFFFFFFFFFFFFFFFFFFFFFFFFFFFFFFFFFFFFF AND CALLER PUSH20 0xFFFFFFFFFFFFFFFFFFFFFFFFFFFFFFFFFFFFFFFF AND EQ PUSH2 0x487 JUMPI PUSH1 0x40 MLOAD PUSH32 0x8C379A000000000000000000000000000000000000000000000000000000000 DUP2 MSTORE PUSH1 0x4 ADD PUSH2 0x47E SWAP1 PUSH2 0x678 JUMP JUMPDEST PUSH1 0x40 MLOAD DUP1 SWAP2 SUB SWAP1 REVERT JUMPDEST DUP2 PUSH20 0xFFFFFFFFFFFFFFFFFFFFFFFFFFFFFFFFFFFFFFFF AND PUSH32 0xEDBA6AF8A008DF8D478C27771852395D0146033AA0F15AF26991BE42D994F15 DUP3 PUSH1 0x40 MLOAD PUSH2 0x4CD SWAP2 SWAP1 PUSH2 0x6B8 JUMP JUMPDEST PUSH1 0x40 MLOAD DUP1 SWAP2 SUB SWAP1 LOG2 DUP2 PUSH20 0xFFFFFFFFFFFFFFFFFFFFFFFFFFFFFFFFFFFFFFFF AND PUSH2 0x8FC DUP3 SWAP1 DUP2 ISZERO MUL SWAP1 PUSH1 0x40 MLOAD PUSH1 0x0 PUSH1 0x40 MLOAD DUP1 DUP4 SUB DUP2 DUP6 DUP9 DUP9 CALL SWAP4 POP POP POP POP ISZERO DUP1 ISZERO PUSH2 0x51B JUMPI RETURNDATASIZE PUSH1 0x0 DUP1 RETURNDATACOPY RETURNDATASIZE PUSH1 0x0 REVERT JUMPDEST POP POP POP JUMP JUMPDEST PUSH1 0x0 DUP2 CALLDATALOAD SWAP1 POP PUSH2 0x52F DUP2 PUSH2 0x789 JUMP JUMPDEST SWAP3 SWAP2 POP POP JUMP JUMPDEST PUSH1 0x0 DUP2 CALLDATALOAD SWAP1 POP PUSH2 0x544 DUP2 PUSH2 0x7A0 JUMP JUMPDEST SWAP3 SWAP2 POP POP JUMP JUMPDEST PUSH1 0x0 DUP2 CALLDATALOAD SWAP1 POP PUSH2 0x559 DUP2 PUSH2 0x7B7 JUMP JUMPDEST SWAP3 SWAP2 POP POP JUMP JUMPDEST PUSH1 0x0 PUSH1 0x20 DUP3 DUP5 SUB SLT ISZERO PUSH2 0x575 JUMPI PUSH2 0x574 PUSH2 0x732 JUMP JUMPDEST JUMPDEST PUSH1 0x0 PUSH2 0x583 DUP5 DUP3 DUP6 ADD PUSH2 0x520 JUMP JUMPDEST SWAP2 POP POP SWAP3 SWAP2 POP POP JUMP JUMPDEST PUSH1 0x0 DUP1 PUSH1 0x40 DUP4 DUP6 SUB SLT ISZERO PUSH2 0x5A3 JUMPI PUSH2 0x5A2 PUSH2 0x732 JUMP JUMPDEST JUMPDEST PUSH1 0x0 PUSH2 0x5B1 DUP6 DUP3 DUP7 ADD PUSH2 0x535 JUMP JUMPDEST SWAP3 POP POP PUSH1 0x20 PUSH2 0x5C2 DUP6 DUP3 DUP7 ADD PUSH2 0x54A JUMP JUMPDEST SWAP2 POP POP SWAP3 POP SWAP3 SWAP1 POP JUMP JUMPDEST PUSH1 0x0 PUSH1 0x20 DUP3 DUP5 SUB SLT ISZERO PUSH2 0x5E2 JUMPI PUSH2 0x5E1 PUSH2 0x732 JUMP JUMPDEST JUMPDEST PUSH1 0x0 PUSH2 0x5F0 DUP5 DUP3 DUP6 ADD PUSH2 0x54A JUMP JUMPDEST SWAP2 POP POP SWAP3 SWAP2 POP POP JUMP JUMPDEST PUSH2 0x602 DUP2 PUSH2 0x6E4 JUMP JUMPDEST DUP3 MSTORE POP POP JUMP JUMPDEST PUSH1 0x0 PUSH2 0x615 PUSH1 0x13 DUP4 PUSH2 0x6D3 JUMP JUMPDEST SWAP2 POP PUSH2 0x620 DUP3 PUSH2 0x737 JUMP JUMPDEST PUSH1 0x20 DUP3 ADD SWAP1 POP SWAP2 SWAP1 POP JUMP JUMPDEST PUSH1 0x0 PUSH2 0x638 PUSH1 0x10 DUP4 PUSH2 0x6D3 JUMP JUMPDEST SWAP2 POP PUSH2 0x643 DUP3 PUSH2 0x760 JUMP JUMPDEST PUSH1 0x20 DUP3 ADD SWAP1 POP SWAP2 SWAP1 POP JUMP JUMPDEST PUSH2 0x657 DUP2 PUSH2 0x728 JUMP JUMPDEST DUP3 MSTORE POP POP JUMP JUMPDEST PUSH1 0x0 PUSH1 0x20 DUP3 ADD SWAP1 POP PUSH2 0x672 PUSH1 0x0 DUP4 ADD DUP5 PUSH2 0x5F9 JUMP JUMPDEST SWAP3 SWAP2 POP POP JUMP JUMPDEST PUSH1 0x0 PUSH1 0x20 DUP3 ADD SWAP1 POP DUP2 DUP2 SUB PUSH1 0x0 DUP4 ADD MSTORE PUSH2 0x691 DUP2 PUSH2 0x608 JUMP JUMPDEST SWAP1 POP SWAP2 SWAP1 POP JUMP JUMPDEST PUSH1 0x0 PUSH1 0x20 DUP3 ADD SWAP1 POP DUP2 DUP2 SUB PUSH1 0x0 DUP4 ADD MSTORE PUSH2 0x6B1 DUP2 PUSH2 0x62B JUMP JUMPDEST SWAP1 POP SWAP2 SWAP1 POP JUMP JUMPDEST PUSH1 0x0 PUSH1 0x20 DUP3 ADD SWAP1 POP PUSH2 0x6CD PUSH1 0x0 DUP4 ADD DUP5 PUSH2 0x64E JUMP JUMPDEST SWAP3 SWAP2 POP POP JUMP JUMPDEST PUSH1 0x0 DUP3 DUP3 MSTORE PUSH1 0x20 DUP3 ADD SWAP1 POP SWAP3 SWAP2 POP POP JUMP JUMPDEST PUSH1 0x0 PUSH2 0x6EF DUP3 PUSH2 0x708 JUMP JUMPDEST SWAP1 POP SWAP2 SWAP1 POP JUMP JUMPDEST PUSH1 0x0 PUSH2 0x701 DUP3 PUSH2 0x708 JUMP JUMPDEST SWAP1 POP SWAP2 SWAP1 POP JUMP JUMPDEST PUSH1 0x0 PUSH20 0xFFFFFFFFFFFFFFFFFFFFFFFFFFFFFFFFFFFFFFFF DUP3 AND SWAP1 POP SWAP2 SWAP1 POP JUMP JUMPDEST PUSH1 0x0 DUP2 SWAP1 POP SWAP2 SWAP1 POP JUMP JUMPDEST PUSH1 0x0 DUP1 REVERT JUMPDEST PUSH32 0x43616C6C6572206973206E6F74206F776E657200000000000000000000000000 PUSH1 0x0 DUP3 ADD MSTORE POP JUMP JUMPDEST PUSH32 0x496E636F727265637420616D6F756E7400000000000000000000000000000000 PUSH1 0x0 DUP3 ADD MSTORE POP JUMP JUMPDEST PUSH2 0x792 DUP2 PUSH2 0x6E4 JUMP JUMPDEST DUP2 EQ PUSH2 0x79D JUMPI PUSH1 0x0 DUP1 REVERT JUMPDEST POP JUMP JUMPDEST PUSH2 0x7A9 DUP2 PUSH2 0x6F6 JUMP JUMPDEST DUP2 EQ PUSH2 0x7B4 JUMPI PUSH1 0x0 DUP1 REVERT JUMPDEST POP JUMP JUMPDEST PUSH2 0x7C0 DUP2 PUSH2 0x728 JUMP JUMPDEST DUP2 EQ PUSH2 0x7CB JUMPI PUSH1 0x0 DUP1 REVERT JUMPDEST POP JUMP INVALID LOG2 PUSH5 0x6970667358 0x22 SLT KECCAK256 PUSH13 0xE5FE414DB0B60AFC3CE95CD0BE 0xD5 PUSH10 0x2CF355AD8F7D247E21FE DUP15 PUSH11 0x699D926F64736F6C634300 ADDMOD SMOD STOP CALLER "
				},
				"gasEstimates": {
					"creation": {
						"codeDepositCost": "410400",
						"executionCost": "28393",
						"totalCost": "438793"
					},
					"external": {
						"": "173",
						"changeOwner(address)": "30611",
						"getBalance()": "2584",
						"getOwner()": "4711",
						"transfer(address,uint256)": "infinite",
						"transfer(uint256)": "691"
					}
				},
				"methodIdentifiers": {
					"changeOwner(address)": "a6f9dae1",
					"getBalance()": "12065fe0",
					"getOwner()": "893d20e8",
					"transfer(address,uint256)": "a9059cbb",
					"transfer(uint256)": "12514bba"
				}
			},
			"storageLayout": {
				"storage": [
					{
						"astId": 4,
						"contract": "contracts/RedTech.sol:RedTech",
						"label": "owner",
						"offset": 0,
						"slot": "0",
						"type": "t_address"
					}
				],
				"types": {
					"t_address": {
						"encoding": "inplace",
						"label": "address",
						"numberOfBytes": "20"
					}
				}
			},
			"userdoc": {
				"kind": "user",
				"methods": {},
				"version": 1
			}
		}
	}
}