{
	"contracts/RedTech.sol": {
		"RedTech": {
			"abi": [
				{
					"inputs": [],
					"stateMutability": "nonpayable",
					"type": "constructor"
				},
				{
					"anonymous": false,
					"inputs": [
						{
							"indexed": false,
							"internalType": "uint256",
							"name": "amount",
							"type": "uint256"
						}
					],
					"name": "AmountRecievedFrom",
					"type": "event"
				},
				{
					"anonymous": false,
					"inputs": [
						{
							"indexed": false,
							"internalType": "uint256",
							"name": "value",
							"type": "uint256"
						},
						{
							"indexed": true,
							"internalType": "address",
							"name": "toAddress",
							"type": "address"
						}
					],
					"name": "AmountTransferedTo",
					"type": "event"
				},
				{
					"anonymous": false,
					"inputs": [
						{
							"indexed": true,
							"internalType": "address",
							"name": "oldOwner",
							"type": "address"
						},
						{
							"indexed": true,
							"internalType": "address",
							"name": "newOwner",
							"type": "address"
						}
					],
					"name": "OwnerSet",
					"type": "event"
				},
				{
					"stateMutability": "payable",
					"type": "fallback"
				},
				{
					"inputs": [
						{
							"internalType": "address",
							"name": "newOwner",
							"type": "address"
						}
					],
					"name": "changeOwner",
					"outputs": [],
					"stateMutability": "nonpayable",
					"type": "function"
				},
				{
					"inputs": [
						{
							"internalType": "uint256",
							"name": "amount",
							"type": "uint256"
						}
					],
					"name": "deposit",
					"outputs": [],
					"stateMutability": "payable",
					"type": "function"
				},
				{
					"inputs": [],
					"name": "getBalance",
					"outputs": [
						{
							"internalType": "uint256",
							"name": "",
							"type": "uint256"
						}
					],
					"stateMutability": "view",
					"type": "function"
				},
				{
					"inputs": [],
					"name": "getOwner",
					"outputs": [
						{
							"internalType": "address",
							"name": "",
							"type": "address"
						}
					],
					"stateMutability": "view",
					"type": "function"
				},
				{
					"inputs": [
						{
							"internalType": "uint256",
							"name": "amount",
							"type": "uint256"
						}
					],
					"name": "withdraw",
					"outputs": [],
					"stateMutability": "payable",
					"type": "function"
				},
				{
					"stateMutability": "payable",
					"type": "receive"
				}
			],
			"devdoc": {
				"kind": "dev",
				"methods": {
					"changeOwner(address)": {
						"details": "Change owner",
						"params": {
							"newOwner": "address of new owner"
						}
					},
					"constructor": {
						"details": "Set contract deployer as owner"
					},
					"deposit(uint256)": {
						"details": "User deposit eth to contract",
						"params": {
							"amount": "amount (in wei) to be transferred"
						}
					},
					"getBalance()": {
						"details": "Return contract balance ",
						"returns": {
							"_0": "balance of contract"
						}
					},
					"getOwner()": {
						"details": "Return owner address ",
						"returns": {
							"_0": "address of owner"
						}
					},
					"withdraw(uint256)": {
						"details": "User withdraw amount from contract",
						"params": {
							"amount": "amount (in wei) to be withdrawn"
						}
					}
				},
				"title": "RedTech",
				"version": 1
			},
			"evm": {
				"assembly": "    /* \"contracts/RedTech.sol\":96:2631  contract RedTech {... */\n  mstore(0x40, 0x80)\n    /* \"contracts/RedTech.sol\":175:176  5 */\n  0x05\n    /* \"contracts/RedTech.sol\":153:176  uint256  persentage = 5 */\n  0x01\n  sstore\n    /* \"contracts/RedTech.sol\":1125:1295  constructor() {... */\n  callvalue\n  dup1\n  iszero\n  tag_1\n  jumpi\n  0x00\n  dup1\n  revert\ntag_1:\n  pop\n    /* \"contracts/RedTech.sol\":1157:1167  msg.sender */\n  caller\n    /* \"contracts/RedTech.sol\":1149:1154  owner */\n  0x00\n  dup1\n    /* \"contracts/RedTech.sol\":1149:1167  owner = msg.sender */\n  0x0100\n  exp\n  dup2\n  sload\n  dup2\n  0xffffffffffffffffffffffffffffffffffffffff\n  mul\n  not\n  and\n  swap1\n  dup4\n  0xffffffffffffffffffffffffffffffffffffffff\n  and\n  mul\n  or\n  swap1\n  sstore\n  pop\n    /* \"contracts/RedTech.sol\":1282:1287  owner */\n  0x00\n  dup1\n  sload\n  swap1\n  0x0100\n  exp\n  swap1\n  div\n  0xffffffffffffffffffffffffffffffffffffffff\n  and\n    /* \"contracts/RedTech.sol\":1261:1288  OwnerSet(address(0), owner) */\n  0xffffffffffffffffffffffffffffffffffffffff\n  and\n    /* \"contracts/RedTech.sol\":1278:1279  0 */\n  0x00\n    /* \"contracts/RedTech.sol\":1261:1288  OwnerSet(address(0), owner) */\n  0xffffffffffffffffffffffffffffffffffffffff\n  and\n  0x342827c97908e5e2f71151c08502a66d44b6f758e3ac2f1de95f02eb95f0a735\n  mload(0x40)\n  mload(0x40)\n  dup1\n  swap2\n  sub\n  swap1\n  log3\n    /* \"contracts/RedTech.sol\":96:2631  contract RedTech {... */\n  dataSize(sub_0)\n  dup1\n  dataOffset(sub_0)\n  0x00\n  codecopy\n  0x00\n  return\nstop\n\nsub_0: assembly {\n        /* \"contracts/RedTech.sol\":96:2631  contract RedTech {... */\n      mstore(0x40, 0x80)\n      jumpi(tag_1, lt(calldatasize, 0x04))\n      shr(0xe0, calldataload(0x00))\n      dup1\n      0x12065fe0\n      eq\n      tag_3\n      jumpi\n      dup1\n      0x2e1a7d4d\n      eq\n      tag_4\n      jumpi\n      dup1\n      0x893d20e8\n      eq\n      tag_5\n      jumpi\n      dup1\n      0xa6f9dae1\n      eq\n      tag_6\n      jumpi\n      dup1\n      0xb6b55f25\n      eq\n      tag_7\n      jumpi\n      jump(tag_2)\n    tag_1:\n      jumpi(tag_2, calldatasize)\n      stop\n    tag_2:\n      stop\n        /* \"contracts/RedTech.sol\":1786:1894  function getBalance() external view isOwner returns (uint256)  {... */\n    tag_3:\n      callvalue\n      dup1\n      iszero\n      tag_12\n      jumpi\n      0x00\n      dup1\n      revert\n    tag_12:\n      pop\n      tag_13\n      tag_14\n      jump\t// in\n    tag_13:\n      mload(0x40)\n      tag_15\n      swap2\n      swap1\n      tag_16\n      jump\t// in\n    tag_15:\n      mload(0x40)\n      dup1\n      swap2\n      sub\n      swap1\n      return\n        /* \"contracts/RedTech.sol\":2375:2622  function  withdraw(uint256 amount)payable public isOwner {... */\n    tag_4:\n      tag_17\n      0x04\n      dup1\n      calldatasize\n      sub\n      dup2\n      add\n      swap1\n      tag_18\n      swap2\n      swap1\n      tag_19\n      jump\t// in\n    tag_18:\n      tag_20\n      jump\t// in\n    tag_17:\n      stop\n        /* \"contracts/RedTech.sol\":1601:1691  function getOwner() external view isOwner returns (address)  {... */\n    tag_5:\n      callvalue\n      dup1\n      iszero\n      tag_21\n      jumpi\n      0x00\n      dup1\n      revert\n    tag_21:\n      pop\n      tag_22\n      tag_23\n      jump\t// in\n    tag_22:\n      mload(0x40)\n      tag_24\n      swap2\n      swap1\n      tag_25\n      jump\t// in\n    tag_24:\n      mload(0x40)\n      dup1\n      swap2\n      sub\n      swap1\n      return\n        /* \"contracts/RedTech.sol\":1386:1513  function changeOwner(address newOwner) public isOwner {... */\n    tag_6:\n      callvalue\n      dup1\n      iszero\n      tag_26\n      jumpi\n      0x00\n      dup1\n      revert\n    tag_26:\n      pop\n      tag_27\n      0x04\n      dup1\n      calldatasize\n      sub\n      dup2\n      add\n      swap1\n      tag_28\n      swap2\n      swap1\n      tag_29\n      jump\t// in\n    tag_28:\n      tag_30\n      jump\t// in\n    tag_27:\n      stop\n        /* \"contracts/RedTech.sol\":2055:2211  function  deposit(uint256 amount)payable public  {... */\n    tag_7:\n      tag_31\n      0x04\n      dup1\n      calldatasize\n      sub\n      dup2\n      add\n      swap1\n      tag_32\n      swap2\n      swap1\n      tag_19\n      jump\t// in\n    tag_32:\n      tag_33\n      jump\t// in\n    tag_31:\n      stop\n        /* \"contracts/RedTech.sol\":1786:1894  function getBalance() external view isOwner returns (uint256)  {... */\n    tag_14:\n        /* \"contracts/RedTech.sol\":1839:1846  uint256 */\n      0x00\n        /* \"contracts/RedTech.sol\":1009:1014  owner */\n      dup1\n      0x00\n      swap1\n      sload\n      swap1\n      0x0100\n      exp\n      swap1\n      div\n      0xffffffffffffffffffffffffffffffffffffffff\n      and\n        /* \"contracts/RedTech.sol\":995:1014  msg.sender == owner */\n      0xffffffffffffffffffffffffffffffffffffffff\n      and\n        /* \"contracts/RedTech.sol\":995:1005  msg.sender */\n      caller\n        /* \"contracts/RedTech.sol\":995:1014  msg.sender == owner */\n      0xffffffffffffffffffffffffffffffffffffffff\n      and\n      eq\n        /* \"contracts/RedTech.sol\":987:1038  require(msg.sender == owner, \"Caller is not owner\") */\n      tag_35\n      jumpi\n      mload(0x40)\n      0x08c379a000000000000000000000000000000000000000000000000000000000\n      dup2\n      mstore\n      0x04\n      add\n      tag_36\n      swap1\n      tag_37\n      jump\t// in\n    tag_36:\n      mload(0x40)\n      dup1\n      swap2\n      sub\n      swap1\n      revert\n    tag_35:\n        /* \"contracts/RedTech.sol\":1866:1887  address(this).balance */\n      selfbalance\n        /* \"contracts/RedTech.sol\":1859:1887  return address(this).balance */\n      swap1\n      pop\n        /* \"contracts/RedTech.sol\":1786:1894  function getBalance() external view isOwner returns (uint256)  {... */\n      swap1\n      jump\t// out\n        /* \"contracts/RedTech.sol\":2375:2622  function  withdraw(uint256 amount)payable public isOwner {... */\n    tag_20:\n        /* \"contracts/RedTech.sol\":1009:1014  owner */\n      0x00\n      dup1\n      sload\n      swap1\n      0x0100\n      exp\n      swap1\n      div\n      0xffffffffffffffffffffffffffffffffffffffff\n      and\n        /* \"contracts/RedTech.sol\":995:1014  msg.sender == owner */\n      0xffffffffffffffffffffffffffffffffffffffff\n      and\n        /* \"contracts/RedTech.sol\":995:1005  msg.sender */\n      caller\n        /* \"contracts/RedTech.sol\":995:1014  msg.sender == owner */\n      0xffffffffffffffffffffffffffffffffffffffff\n      and\n      eq\n        /* \"contracts/RedTech.sol\":987:1038  require(msg.sender == owner, \"Caller is not owner\") */\n      tag_40\n      jumpi\n      mload(0x40)\n      0x08c379a000000000000000000000000000000000000000000000000000000000\n      dup2\n      mstore\n      0x04\n      add\n      tag_41\n      swap1\n      tag_37\n      jump\t// in\n    tag_41:\n      mload(0x40)\n      dup1\n      swap2\n      sub\n      swap1\n      revert\n    tag_40:\n        /* \"contracts/RedTech.sol\":2442:2455  address  user */\n      0x00\n        /* \"contracts/RedTech.sol\":2459:2469  msg.sender */\n      caller\n        /* \"contracts/RedTech.sol\":2442:2469  address  user  = msg.sender */\n      swap1\n      pop\n        /* \"contracts/RedTech.sol\":2500:2506  amount */\n      dup2\n        /* \"contracts/RedTech.sol\":2487:2496  msg.value */\n      callvalue\n        /* \"contracts/RedTech.sol\":2487:2506  msg.value == amount */\n      eq\n        /* \"contracts/RedTech.sol\":2479:2527  require(msg.value == amount, \"Incorrect amount\") */\n      tag_43\n      jumpi\n      mload(0x40)\n      0x08c379a000000000000000000000000000000000000000000000000000000000\n      dup2\n      mstore\n      0x04\n      add\n      tag_44\n      swap1\n      tag_45\n      jump\t// in\n    tag_44:\n      mload(0x40)\n      dup1\n      swap2\n      sub\n      swap1\n      revert\n    tag_43:\n        /* \"contracts/RedTech.sol\":2545:2549  user */\n      dup1\n        /* \"contracts/RedTech.sol\":2537:2559  payable(user).transfer */\n      0xffffffffffffffffffffffffffffffffffffffff\n      and\n        /* \"contracts/RedTech.sol\":2537:2567  payable(user).transfer(amount) */\n      0x08fc\n        /* \"contracts/RedTech.sol\":2560:2566  amount */\n      dup4\n        /* \"contracts/RedTech.sol\":2537:2567  payable(user).transfer(amount) */\n      swap1\n      dup2\n      iszero\n      mul\n      swap1\n      mload(0x40)\n      0x00\n      mload(0x40)\n      dup1\n      dup4\n      sub\n      dup2\n      dup6\n      dup9\n      dup9\n      call\n      swap4\n      pop\n      pop\n      pop\n      pop\n      iszero\n      dup1\n      iszero\n      tag_47\n      jumpi\n      returndatasize\n      0x00\n      dup1\n      returndatacopy\n      revert(0x00, returndatasize)\n    tag_47:\n      pop\n        /* \"contracts/RedTech.sol\":2609:2613  user */\n      dup1\n        /* \"contracts/RedTech.sol\":2582:2614  AmountTransferedTo(amount, user) */\n      0xffffffffffffffffffffffffffffffffffffffff\n      and\n      0x0edba6af8a008df8d478c27771852395d0146033aa0f15af26991be42d994f15\n        /* \"contracts/RedTech.sol\":2601:2607  amount */\n      dup4\n        /* \"contracts/RedTech.sol\":2582:2614  AmountTransferedTo(amount, user) */\n      mload(0x40)\n      tag_48\n      swap2\n      swap1\n      tag_16\n      jump\t// in\n    tag_48:\n      mload(0x40)\n      dup1\n      swap2\n      sub\n      swap1\n      log2\n        /* \"contracts/RedTech.sol\":2432:2622  {... */\n      pop\n        /* \"contracts/RedTech.sol\":2375:2622  function  withdraw(uint256 amount)payable public isOwner {... */\n      pop\n      jump\t// out\n        /* \"contracts/RedTech.sol\":1601:1691  function getOwner() external view isOwner returns (address)  {... */\n    tag_23:\n        /* \"contracts/RedTech.sol\":1652:1659  address */\n      0x00\n        /* \"contracts/RedTech.sol\":1009:1014  owner */\n      dup1\n      0x00\n      swap1\n      sload\n      swap1\n      0x0100\n      exp\n      swap1\n      div\n      0xffffffffffffffffffffffffffffffffffffffff\n      and\n        /* \"contracts/RedTech.sol\":995:1014  msg.sender == owner */\n      0xffffffffffffffffffffffffffffffffffffffff\n      and\n        /* \"contracts/RedTech.sol\":995:1005  msg.sender */\n      caller\n        /* \"contracts/RedTech.sol\":995:1014  msg.sender == owner */\n      0xffffffffffffffffffffffffffffffffffffffff\n      and\n      eq\n        /* \"contracts/RedTech.sol\":987:1038  require(msg.sender == owner, \"Caller is not owner\") */\n      tag_50\n      jumpi\n      mload(0x40)\n      0x08c379a000000000000000000000000000000000000000000000000000000000\n      dup2\n      mstore\n      0x04\n      add\n      tag_51\n      swap1\n      tag_37\n      jump\t// in\n    tag_51:\n      mload(0x40)\n      dup1\n      swap2\n      sub\n      swap1\n      revert\n    tag_50:\n        /* \"contracts/RedTech.sol\":1679:1684  owner */\n      0x00\n      dup1\n      sload\n      swap1\n      0x0100\n      exp\n      swap1\n      div\n      0xffffffffffffffffffffffffffffffffffffffff\n      and\n        /* \"contracts/RedTech.sol\":1672:1684  return owner */\n      swap1\n      pop\n        /* \"contracts/RedTech.sol\":1601:1691  function getOwner() external view isOwner returns (address)  {... */\n      swap1\n      jump\t// out\n        /* \"contracts/RedTech.sol\":1386:1513  function changeOwner(address newOwner) public isOwner {... */\n    tag_30:\n        /* \"contracts/RedTech.sol\":1009:1014  owner */\n      0x00\n      dup1\n      sload\n      swap1\n      0x0100\n      exp\n      swap1\n      div\n      0xffffffffffffffffffffffffffffffffffffffff\n      and\n        /* \"contracts/RedTech.sol\":995:1014  msg.sender == owner */\n      0xffffffffffffffffffffffffffffffffffffffff\n      and\n        /* \"contracts/RedTech.sol\":995:1005  msg.sender */\n      caller\n        /* \"contracts/RedTech.sol\":995:1014  msg.sender == owner */\n      0xffffffffffffffffffffffffffffffffffffffff\n      and\n      eq\n        /* \"contracts/RedTech.sol\":987:1038  require(msg.sender == owner, \"Caller is not owner\") */\n      tag_54\n      jumpi\n      mload(0x40)\n      0x08c379a000000000000000000000000000000000000000000000000000000000\n      dup2\n      mstore\n      0x04\n      add\n      tag_55\n      swap1\n      tag_37\n      jump\t// in\n    tag_55:\n      mload(0x40)\n      dup1\n      swap2\n      sub\n      swap1\n      revert\n    tag_54:\n        /* \"contracts/RedTech.sol\":1471:1479  newOwner */\n      dup1\n        /* \"contracts/RedTech.sol\":1455:1480  OwnerSet(owner, newOwner) */\n      0xffffffffffffffffffffffffffffffffffffffff\n      and\n        /* \"contracts/RedTech.sol\":1464:1469  owner */\n      0x00\n      dup1\n      sload\n      swap1\n      0x0100\n      exp\n      swap1\n      div\n      0xffffffffffffffffffffffffffffffffffffffff\n      and\n        /* \"contracts/RedTech.sol\":1455:1480  OwnerSet(owner, newOwner) */\n      0xffffffffffffffffffffffffffffffffffffffff\n      and\n      0x342827c97908e5e2f71151c08502a66d44b6f758e3ac2f1de95f02eb95f0a735\n      mload(0x40)\n      mload(0x40)\n      dup1\n      swap2\n      sub\n      swap1\n      log3\n        /* \"contracts/RedTech.sol\":1498:1506  newOwner */\n      dup1\n        /* \"contracts/RedTech.sol\":1490:1495  owner */\n      0x00\n      dup1\n        /* \"contracts/RedTech.sol\":1490:1506  owner = newOwner */\n      0x0100\n      exp\n      dup2\n      sload\n      dup2\n      0xffffffffffffffffffffffffffffffffffffffff\n      mul\n      not\n      and\n      swap1\n      dup4\n      0xffffffffffffffffffffffffffffffffffffffff\n      and\n      mul\n      or\n      swap1\n      sstore\n      pop\n        /* \"contracts/RedTech.sol\":1386:1513  function changeOwner(address newOwner) public isOwner {... */\n      pop\n      jump\t// out\n        /* \"contracts/RedTech.sol\":2055:2211  function  deposit(uint256 amount)payable public  {... */\n    tag_33:\n        /* \"contracts/RedTech.sol\":2135:2141  amount */\n      dup1\n        /* \"contracts/RedTech.sol\":2122:2131  msg.value */\n      callvalue\n        /* \"contracts/RedTech.sol\":2122:2141  msg.value == amount */\n      eq\n        /* \"contracts/RedTech.sol\":2114:2162  require(msg.value == amount, \"Incorrect amount\") */\n      tag_58\n      jumpi\n      mload(0x40)\n      0x08c379a000000000000000000000000000000000000000000000000000000000\n      dup2\n      mstore\n      0x04\n      add\n      tag_59\n      swap1\n      tag_45\n      jump\t// in\n    tag_59:\n      mload(0x40)\n      dup1\n      swap2\n      sub\n      swap1\n      revert\n    tag_58:\n        /* \"contracts/RedTech.sol\":2177:2203  AmountRecievedFrom(amount) */\n      0xc7f729b0170cbe78f93de887af2b609dbb017055b4e4e141cd8d7acd79dd8a75\n        /* \"contracts/RedTech.sol\":2196:2202  amount */\n      dup2\n        /* \"contracts/RedTech.sol\":2177:2203  AmountRecievedFrom(amount) */\n      mload(0x40)\n      tag_60\n      swap2\n      swap1\n      tag_16\n      jump\t// in\n    tag_60:\n      mload(0x40)\n      dup1\n      swap2\n      sub\n      swap1\n      log1\n        /* \"contracts/RedTech.sol\":2055:2211  function  deposit(uint256 amount)payable public  {... */\n      pop\n      jump\t// out\n        /* \"#utility.yul\":7:146   */\n    tag_62:\n        /* \"#utility.yul\":53:58   */\n      0x00\n        /* \"#utility.yul\":91:97   */\n      dup2\n        /* \"#utility.yul\":78:98   */\n      calldataload\n        /* \"#utility.yul\":69:98   */\n      swap1\n      pop\n        /* \"#utility.yul\":107:140   */\n      tag_64\n        /* \"#utility.yul\":134:139   */\n      dup2\n        /* \"#utility.yul\":107:140   */\n      tag_65\n      jump\t// in\n    tag_64:\n        /* \"#utility.yul\":7:146   */\n      swap3\n      swap2\n      pop\n      pop\n      jump\t// out\n        /* \"#utility.yul\":152:291   */\n    tag_66:\n        /* \"#utility.yul\":198:203   */\n      0x00\n        /* \"#utility.yul\":236:242   */\n      dup2\n        /* \"#utility.yul\":223:243   */\n      calldataload\n        /* \"#utility.yul\":214:243   */\n      swap1\n      pop\n        /* \"#utility.yul\":252:285   */\n      tag_68\n        /* \"#utility.yul\":279:284   */\n      dup2\n        /* \"#utility.yul\":252:285   */\n      tag_69\n      jump\t// in\n    tag_68:\n        /* \"#utility.yul\":152:291   */\n      swap3\n      swap2\n      pop\n      pop\n      jump\t// out\n        /* \"#utility.yul\":297:626   */\n    tag_29:\n        /* \"#utility.yul\":356:362   */\n      0x00\n        /* \"#utility.yul\":405:407   */\n      0x20\n        /* \"#utility.yul\":393:402   */\n      dup3\n        /* \"#utility.yul\":384:391   */\n      dup5\n        /* \"#utility.yul\":380:403   */\n      sub\n        /* \"#utility.yul\":376:408   */\n      slt\n        /* \"#utility.yul\":373:492   */\n      iszero\n      tag_71\n      jumpi\n        /* \"#utility.yul\":411:490   */\n      tag_72\n      tag_73\n      jump\t// in\n    tag_72:\n        /* \"#utility.yul\":373:492   */\n    tag_71:\n        /* \"#utility.yul\":531:532   */\n      0x00\n        /* \"#utility.yul\":556:609   */\n      tag_74\n        /* \"#utility.yul\":601:608   */\n      dup5\n        /* \"#utility.yul\":592:598   */\n      dup3\n        /* \"#utility.yul\":581:590   */\n      dup6\n        /* \"#utility.yul\":577:599   */\n      add\n        /* \"#utility.yul\":556:609   */\n      tag_62\n      jump\t// in\n    tag_74:\n        /* \"#utility.yul\":546:609   */\n      swap2\n      pop\n        /* \"#utility.yul\":502:619   */\n      pop\n        /* \"#utility.yul\":297:626   */\n      swap3\n      swap2\n      pop\n      pop\n      jump\t// out\n        /* \"#utility.yul\":632:961   */\n    tag_19:\n        /* \"#utility.yul\":691:697   */\n      0x00\n        /* \"#utility.yul\":740:742   */\n      0x20\n        /* \"#utility.yul\":728:737   */\n      dup3\n        /* \"#utility.yul\":719:726   */\n      dup5\n        /* \"#utility.yul\":715:738   */\n      sub\n        /* \"#utility.yul\":711:743   */\n      slt\n        /* \"#utility.yul\":708:827   */\n      iszero\n      tag_76\n      jumpi\n        /* \"#utility.yul\":746:825   */\n      tag_77\n      tag_73\n      jump\t// in\n    tag_77:\n        /* \"#utility.yul\":708:827   */\n    tag_76:\n        /* \"#utility.yul\":866:867   */\n      0x00\n        /* \"#utility.yul\":891:944   */\n      tag_78\n        /* \"#utility.yul\":936:943   */\n      dup5\n        /* \"#utility.yul\":927:933   */\n      dup3\n        /* \"#utility.yul\":916:925   */\n      dup6\n        /* \"#utility.yul\":912:934   */\n      add\n        /* \"#utility.yul\":891:944   */\n      tag_66\n      jump\t// in\n    tag_78:\n        /* \"#utility.yul\":881:944   */\n      swap2\n      pop\n        /* \"#utility.yul\":837:954   */\n      pop\n        /* \"#utility.yul\":632:961   */\n      swap3\n      swap2\n      pop\n      pop\n      jump\t// out\n        /* \"#utility.yul\":967:1085   */\n    tag_79:\n        /* \"#utility.yul\":1054:1078   */\n      tag_81\n        /* \"#utility.yul\":1072:1077   */\n      dup2\n        /* \"#utility.yul\":1054:1078   */\n      tag_82\n      jump\t// in\n    tag_81:\n        /* \"#utility.yul\":1049:1052   */\n      dup3\n        /* \"#utility.yul\":1042:1079   */\n      mstore\n        /* \"#utility.yul\":967:1085   */\n      pop\n      pop\n      jump\t// out\n        /* \"#utility.yul\":1091:1457   */\n    tag_83:\n        /* \"#utility.yul\":1233:1236   */\n      0x00\n        /* \"#utility.yul\":1254:1321   */\n      tag_85\n        /* \"#utility.yul\":1318:1320   */\n      0x13\n        /* \"#utility.yul\":1313:1316   */\n      dup4\n        /* \"#utility.yul\":1254:1321   */\n      tag_86\n      jump\t// in\n    tag_85:\n        /* \"#utility.yul\":1247:1321   */\n      swap2\n      pop\n        /* \"#utility.yul\":1330:1423   */\n      tag_87\n        /* \"#utility.yul\":1419:1422   */\n      dup3\n        /* \"#utility.yul\":1330:1423   */\n      tag_88\n      jump\t// in\n    tag_87:\n        /* \"#utility.yul\":1448:1450   */\n      0x20\n        /* \"#utility.yul\":1443:1446   */\n      dup3\n        /* \"#utility.yul\":1439:1451   */\n      add\n        /* \"#utility.yul\":1432:1451   */\n      swap1\n      pop\n        /* \"#utility.yul\":1091:1457   */\n      swap2\n      swap1\n      pop\n      jump\t// out\n        /* \"#utility.yul\":1463:1829   */\n    tag_89:\n        /* \"#utility.yul\":1605:1608   */\n      0x00\n        /* \"#utility.yul\":1626:1693   */\n      tag_91\n        /* \"#utility.yul\":1690:1692   */\n      0x10\n        /* \"#utility.yul\":1685:1688   */\n      dup4\n        /* \"#utility.yul\":1626:1693   */\n      tag_86\n      jump\t// in\n    tag_91:\n        /* \"#utility.yul\":1619:1693   */\n      swap2\n      pop\n        /* \"#utility.yul\":1702:1795   */\n      tag_92\n        /* \"#utility.yul\":1791:1794   */\n      dup3\n        /* \"#utility.yul\":1702:1795   */\n      tag_93\n      jump\t// in\n    tag_92:\n        /* \"#utility.yul\":1820:1822   */\n      0x20\n        /* \"#utility.yul\":1815:1818   */\n      dup3\n        /* \"#utility.yul\":1811:1823   */\n      add\n        /* \"#utility.yul\":1804:1823   */\n      swap1\n      pop\n        /* \"#utility.yul\":1463:1829   */\n      swap2\n      swap1\n      pop\n      jump\t// out\n        /* \"#utility.yul\":1835:1953   */\n    tag_94:\n        /* \"#utility.yul\":1922:1946   */\n      tag_96\n        /* \"#utility.yul\":1940:1945   */\n      dup2\n        /* \"#utility.yul\":1922:1946   */\n      tag_97\n      jump\t// in\n    tag_96:\n        /* \"#utility.yul\":1917:1920   */\n      dup3\n        /* \"#utility.yul\":1910:1947   */\n      mstore\n        /* \"#utility.yul\":1835:1953   */\n      pop\n      pop\n      jump\t// out\n        /* \"#utility.yul\":1959:2181   */\n    tag_25:\n        /* \"#utility.yul\":2052:2056   */\n      0x00\n        /* \"#utility.yul\":2090:2092   */\n      0x20\n        /* \"#utility.yul\":2079:2088   */\n      dup3\n        /* \"#utility.yul\":2075:2093   */\n      add\n        /* \"#utility.yul\":2067:2093   */\n      swap1\n      pop\n        /* \"#utility.yul\":2103:2174   */\n      tag_99\n        /* \"#utility.yul\":2171:2172   */\n      0x00\n        /* \"#utility.yul\":2160:2169   */\n      dup4\n        /* \"#utility.yul\":2156:2173   */\n      add\n        /* \"#utility.yul\":2147:2153   */\n      dup5\n        /* \"#utility.yul\":2103:2174   */\n      tag_79\n      jump\t// in\n    tag_99:\n        /* \"#utility.yul\":1959:2181   */\n      swap3\n      swap2\n      pop\n      pop\n      jump\t// out\n        /* \"#utility.yul\":2187:2606   */\n    tag_37:\n        /* \"#utility.yul\":2353:2357   */\n      0x00\n        /* \"#utility.yul\":2391:2393   */\n      0x20\n        /* \"#utility.yul\":2380:2389   */\n      dup3\n        /* \"#utility.yul\":2376:2394   */\n      add\n        /* \"#utility.yul\":2368:2394   */\n      swap1\n      pop\n        /* \"#utility.yul\":2440:2449   */\n      dup2\n        /* \"#utility.yul\":2434:2438   */\n      dup2\n        /* \"#utility.yul\":2430:2450   */\n      sub\n        /* \"#utility.yul\":2426:2427   */\n      0x00\n        /* \"#utility.yul\":2415:2424   */\n      dup4\n        /* \"#utility.yul\":2411:2428   */\n      add\n        /* \"#utility.yul\":2404:2451   */\n      mstore\n        /* \"#utility.yul\":2468:2599   */\n      tag_101\n        /* \"#utility.yul\":2594:2598   */\n      dup2\n        /* \"#utility.yul\":2468:2599   */\n      tag_83\n      jump\t// in\n    tag_101:\n        /* \"#utility.yul\":2460:2599   */\n      swap1\n      pop\n        /* \"#utility.yul\":2187:2606   */\n      swap2\n      swap1\n      pop\n      jump\t// out\n        /* \"#utility.yul\":2612:3031   */\n    tag_45:\n        /* \"#utility.yul\":2778:2782   */\n      0x00\n        /* \"#utility.yul\":2816:2818   */\n      0x20\n        /* \"#utility.yul\":2805:2814   */\n      dup3\n        /* \"#utility.yul\":2801:2819   */\n      add\n        /* \"#utility.yul\":2793:2819   */\n      swap1\n      pop\n        /* \"#utility.yul\":2865:2874   */\n      dup2\n        /* \"#utility.yul\":2859:2863   */\n      dup2\n        /* \"#utility.yul\":2855:2875   */\n      sub\n        /* \"#utility.yul\":2851:2852   */\n      0x00\n        /* \"#utility.yul\":2840:2849   */\n      dup4\n        /* \"#utility.yul\":2836:2853   */\n      add\n        /* \"#utility.yul\":2829:2876   */\n      mstore\n        /* \"#utility.yul\":2893:3024   */\n      tag_103\n        /* \"#utility.yul\":3019:3023   */\n      dup2\n        /* \"#utility.yul\":2893:3024   */\n      tag_89\n      jump\t// in\n    tag_103:\n        /* \"#utility.yul\":2885:3024   */\n      swap1\n      pop\n        /* \"#utility.yul\":2612:3031   */\n      swap2\n      swap1\n      pop\n      jump\t// out\n        /* \"#utility.yul\":3037:3259   */\n    tag_16:\n        /* \"#utility.yul\":3130:3134   */\n      0x00\n        /* \"#utility.yul\":3168:3170   */\n      0x20\n        /* \"#utility.yul\":3157:3166   */\n      dup3\n        /* \"#utility.yul\":3153:3171   */\n      add\n        /* \"#utility.yul\":3145:3171   */\n      swap1\n      pop\n        /* \"#utility.yul\":3181:3252   */\n      tag_105\n        /* \"#utility.yul\":3249:3250   */\n      0x00\n        /* \"#utility.yul\":3238:3247   */\n      dup4\n        /* \"#utility.yul\":3234:3251   */\n      add\n        /* \"#utility.yul\":3225:3231   */\n      dup5\n        /* \"#utility.yul\":3181:3252   */\n      tag_94\n      jump\t// in\n    tag_105:\n        /* \"#utility.yul\":3037:3259   */\n      swap3\n      swap2\n      pop\n      pop\n      jump\t// out\n        /* \"#utility.yul\":3346:3515   */\n    tag_86:\n        /* \"#utility.yul\":3430:3441   */\n      0x00\n        /* \"#utility.yul\":3464:3470   */\n      dup3\n        /* \"#utility.yul\":3459:3462   */\n      dup3\n        /* \"#utility.yul\":3452:3471   */\n      mstore\n        /* \"#utility.yul\":3504:3508   */\n      0x20\n        /* \"#utility.yul\":3499:3502   */\n      dup3\n        /* \"#utility.yul\":3495:3509   */\n      add\n        /* \"#utility.yul\":3480:3509   */\n      swap1\n      pop\n        /* \"#utility.yul\":3346:3515   */\n      swap3\n      swap2\n      pop\n      pop\n      jump\t// out\n        /* \"#utility.yul\":3521:3617   */\n    tag_82:\n        /* \"#utility.yul\":3558:3565   */\n      0x00\n        /* \"#utility.yul\":3587:3611   */\n      tag_110\n        /* \"#utility.yul\":3605:3610   */\n      dup3\n        /* \"#utility.yul\":3587:3611   */\n      tag_111\n      jump\t// in\n    tag_110:\n        /* \"#utility.yul\":3576:3611   */\n      swap1\n      pop\n        /* \"#utility.yul\":3521:3617   */\n      swap2\n      swap1\n      pop\n      jump\t// out\n        /* \"#utility.yul\":3623:3749   */\n    tag_111:\n        /* \"#utility.yul\":3660:3667   */\n      0x00\n        /* \"#utility.yul\":3700:3742   */\n      0xffffffffffffffffffffffffffffffffffffffff\n        /* \"#utility.yul\":3693:3698   */\n      dup3\n        /* \"#utility.yul\":3689:3743   */\n      and\n        /* \"#utility.yul\":3678:3743   */\n      swap1\n      pop\n        /* \"#utility.yul\":3623:3749   */\n      swap2\n      swap1\n      pop\n      jump\t// out\n        /* \"#utility.yul\":3755:3832   */\n    tag_97:\n        /* \"#utility.yul\":3792:3799   */\n      0x00\n        /* \"#utility.yul\":3821:3826   */\n      dup2\n        /* \"#utility.yul\":3810:3826   */\n      swap1\n      pop\n        /* \"#utility.yul\":3755:3832   */\n      swap2\n      swap1\n      pop\n      jump\t// out\n        /* \"#utility.yul\":3961:4078   */\n    tag_73:\n        /* \"#utility.yul\":4070:4071   */\n      0x00\n        /* \"#utility.yul\":4067:4068   */\n      dup1\n        /* \"#utility.yul\":4060:4072   */\n      revert\n        /* \"#utility.yul\":4084:4253   */\n    tag_88:\n        /* \"#utility.yul\":4224:4245   */\n      0x43616c6c6572206973206e6f74206f776e657200000000000000000000000000\n        /* \"#utility.yul\":4220:4221   */\n      0x00\n        /* \"#utility.yul\":4212:4218   */\n      dup3\n        /* \"#utility.yul\":4208:4222   */\n      add\n        /* \"#utility.yul\":4201:4246   */\n      mstore\n        /* \"#utility.yul\":4084:4253   */\n      pop\n      jump\t// out\n        /* \"#utility.yul\":4259:4425   */\n    tag_93:\n        /* \"#utility.yul\":4399:4417   */\n      0x496e636f727265637420616d6f756e7400000000000000000000000000000000\n        /* \"#utility.yul\":4395:4396   */\n      0x00\n        /* \"#utility.yul\":4387:4393   */\n      dup3\n        /* \"#utility.yul\":4383:4397   */\n      add\n        /* \"#utility.yul\":4376:4418   */\n      mstore\n        /* \"#utility.yul\":4259:4425   */\n      pop\n      jump\t// out\n        /* \"#utility.yul\":4431:4553   */\n    tag_65:\n        /* \"#utility.yul\":4504:4528   */\n      tag_120\n        /* \"#utility.yul\":4522:4527   */\n      dup2\n        /* \"#utility.yul\":4504:4528   */\n      tag_82\n      jump\t// in\n    tag_120:\n        /* \"#utility.yul\":4497:4502   */\n      dup2\n        /* \"#utility.yul\":4494:4529   */\n      eq\n        /* \"#utility.yul\":4484:4547   */\n      tag_121\n      jumpi\n        /* \"#utility.yul\":4543:4544   */\n      0x00\n        /* \"#utility.yul\":4540:4541   */\n      dup1\n        /* \"#utility.yul\":4533:4545   */\n      revert\n        /* \"#utility.yul\":4484:4547   */\n    tag_121:\n        /* \"#utility.yul\":4431:4553   */\n      pop\n      jump\t// out\n        /* \"#utility.yul\":4559:4681   */\n    tag_69:\n        /* \"#utility.yul\":4632:4656   */\n      tag_123\n        /* \"#utility.yul\":4650:4655   */\n      dup2\n        /* \"#utility.yul\":4632:4656   */\n      tag_97\n      jump\t// in\n    tag_123:\n        /* \"#utility.yul\":4625:4630   */\n      dup2\n        /* \"#utility.yul\":4622:4657   */\n      eq\n        /* \"#utility.yul\":4612:4675   */\n      tag_124\n      jumpi\n        /* \"#utility.yul\":4671:4672   */\n      0x00\n        /* \"#utility.yul\":4668:4669   */\n      dup1\n        /* \"#utility.yul\":4661:4673   */\n      revert\n        /* \"#utility.yul\":4612:4675   */\n    tag_124:\n        /* \"#utility.yul\":4559:4681   */\n      pop\n      jump\t// out\n\n    auxdata: 0xa26469706673582212203603a1564a8fc841c6a4a448fd5103c5627a496358aefb5cce4391b03398546164736f6c63430008070033\n}\n",
				"bytecode": {
					"linkReferences": {},
					"object": "6080604052600560015534801561001557600080fd5b50336000806101000a81548173ffffffffffffffffffffffffffffffffffffffff021916908373ffffffffffffffffffffffffffffffffffffffff16021790555060008054906101000a900473ffffffffffffffffffffffffffffffffffffffff1673ffffffffffffffffffffffffffffffffffffffff16600073ffffffffffffffffffffffffffffffffffffffff167f342827c97908e5e2f71151c08502a66d44b6f758e3ac2f1de95f02eb95f0a73560405160405180910390a36107f7806100e06000396000f3fe60806040526004361061004e5760003560e01c806312065fe0146100575780632e1a7d4d14610082578063893d20e81461009e578063a6f9dae1146100c9578063b6b55f25146100f257610055565b3661005557005b005b34801561006357600080fd5b5061006c61010e565b60405161007991906106d4565b60405180910390f35b61009c600480360381019061009791906105e8565b6101a5565b005b3480156100aa57600080fd5b506100b3610313565b6040516100c09190610679565b60405180910390f35b3480156100d557600080fd5b506100f060048036038101906100eb91906105bb565b6103ca565b005b61010c600480360381019061010791906105e8565b610515565b005b60008060009054906101000a900473ffffffffffffffffffffffffffffffffffffffff1673ffffffffffffffffffffffffffffffffffffffff163373ffffffffffffffffffffffffffffffffffffffff161461019f576040517f08c379a000000000000000000000000000000000000000000000000000000000815260040161019690610694565b60405180910390fd5b47905090565b60008054906101000a900473ffffffffffffffffffffffffffffffffffffffff1673ffffffffffffffffffffffffffffffffffffffff163373ffffffffffffffffffffffffffffffffffffffff1614610233576040517f08c379a000000000000000000000000000000000000000000000000000000000815260040161022a90610694565b60405180910390fd5b600033905081341461027a576040517f08c379a0000000000000000000000000000000000000000000000000000000008152600401610271906106b4565b60405180910390fd5b8073ffffffffffffffffffffffffffffffffffffffff166108fc839081150290604051600060405180830381858888f193505050501580156102c0573d6000803e3d6000fd5b508073ffffffffffffffffffffffffffffffffffffffff167f0edba6af8a008df8d478c27771852395d0146033aa0f15af26991be42d994f158360405161030791906106d4565b60405180910390a25050565b60008060009054906101000a900473ffffffffffffffffffffffffffffffffffffffff1673ffffffffffffffffffffffffffffffffffffffff163373ffffffffffffffffffffffffffffffffffffffff16146103a4576040517f08c379a000000000000000000000000000000000000000000000000000000000815260040161039b90610694565b60405180910390fd5b60008054906101000a900473ffffffffffffffffffffffffffffffffffffffff16905090565b60008054906101000a900473ffffffffffffffffffffffffffffffffffffffff1673ffffffffffffffffffffffffffffffffffffffff163373ffffffffffffffffffffffffffffffffffffffff1614610458576040517f08c379a000000000000000000000000000000000000000000000000000000000815260040161044f90610694565b60405180910390fd5b8073ffffffffffffffffffffffffffffffffffffffff1660008054906101000a900473ffffffffffffffffffffffffffffffffffffffff1673ffffffffffffffffffffffffffffffffffffffff167f342827c97908e5e2f71151c08502a66d44b6f758e3ac2f1de95f02eb95f0a73560405160405180910390a3806000806101000a81548173ffffffffffffffffffffffffffffffffffffffff021916908373ffffffffffffffffffffffffffffffffffffffff16021790555050565b803414610557576040517f08c379a000000000000000000000000000000000000000000000000000000000815260040161054e906106b4565b60405180910390fd5b7fc7f729b0170cbe78f93de887af2b609dbb017055b4e4e141cd8d7acd79dd8a758160405161058691906106d4565b60405180910390a150565b6000813590506105a081610793565b92915050565b6000813590506105b5816107aa565b92915050565b6000602082840312156105d1576105d061073c565b5b60006105df84828501610591565b91505092915050565b6000602082840312156105fe576105fd61073c565b5b600061060c848285016105a6565b91505092915050565b61061e81610700565b82525050565b60006106316013836106ef565b915061063c82610741565b602082019050919050565b60006106546010836106ef565b915061065f8261076a565b602082019050919050565b61067381610732565b82525050565b600060208201905061068e6000830184610615565b92915050565b600060208201905081810360008301526106ad81610624565b9050919050565b600060208201905081810360008301526106cd81610647565b9050919050565b60006020820190506106e9600083018461066a565b92915050565b600082825260208201905092915050565b600061070b82610712565b9050919050565b600073ffffffffffffffffffffffffffffffffffffffff82169050919050565b6000819050919050565b600080fd5b7f43616c6c6572206973206e6f74206f776e657200000000000000000000000000600082015250565b7f496e636f727265637420616d6f756e7400000000000000000000000000000000600082015250565b61079c81610700565b81146107a757600080fd5b50565b6107b381610732565b81146107be57600080fd5b5056fea26469706673582212203603a1564a8fc841c6a4a448fd5103c5627a496358aefb5cce4391b03398546164736f6c63430008070033",
					"opcodes": "PUSH1 0x80 PUSH1 0x40 MSTORE PUSH1 0x5 PUSH1 0x1 SSTORE CALLVALUE DUP1 ISZERO PUSH2 0x15 JUMPI PUSH1 0x0 DUP1 REVERT JUMPDEST POP CALLER PUSH1 0x0 DUP1 PUSH2 0x100 EXP DUP2 SLOAD DUP2 PUSH20 0xFFFFFFFFFFFFFFFFFFFFFFFFFFFFFFFFFFFFFFFF MUL NOT AND SWAP1 DUP4 PUSH20 0xFFFFFFFFFFFFFFFFFFFFFFFFFFFFFFFFFFFFFFFF AND MUL OR SWAP1 SSTORE POP PUSH1 0x0 DUP1 SLOAD SWAP1 PUSH2 0x100 EXP SWAP1 DIV PUSH20 0xFFFFFFFFFFFFFFFFFFFFFFFFFFFFFFFFFFFFFFFF AND PUSH20 0xFFFFFFFFFFFFFFFFFFFFFFFFFFFFFFFFFFFFFFFF AND PUSH1 0x0 PUSH20 0xFFFFFFFFFFFFFFFFFFFFFFFFFFFFFFFFFFFFFFFF AND PUSH32 0x342827C97908E5E2F71151C08502A66D44B6F758E3AC2F1DE95F02EB95F0A735 PUSH1 0x40 MLOAD PUSH1 0x40 MLOAD DUP1 SWAP2 SUB SWAP1 LOG3 PUSH2 0x7F7 DUP1 PUSH2 0xE0 PUSH1 0x0 CODECOPY PUSH1 0x0 RETURN INVALID PUSH1 0x80 PUSH1 0x40 MSTORE PUSH1 0x4 CALLDATASIZE LT PUSH2 0x4E JUMPI PUSH1 0x0 CALLDATALOAD PUSH1 0xE0 SHR DUP1 PUSH4 0x12065FE0 EQ PUSH2 0x57 JUMPI DUP1 PUSH4 0x2E1A7D4D EQ PUSH2 0x82 JUMPI DUP1 PUSH4 0x893D20E8 EQ PUSH2 0x9E JUMPI DUP1 PUSH4 0xA6F9DAE1 EQ PUSH2 0xC9 JUMPI DUP1 PUSH4 0xB6B55F25 EQ PUSH2 0xF2 JUMPI PUSH2 0x55 JUMP JUMPDEST CALLDATASIZE PUSH2 0x55 JUMPI STOP JUMPDEST STOP JUMPDEST CALLVALUE DUP1 ISZERO PUSH2 0x63 JUMPI PUSH1 0x0 DUP1 REVERT JUMPDEST POP PUSH2 0x6C PUSH2 0x10E JUMP JUMPDEST PUSH1 0x40 MLOAD PUSH2 0x79 SWAP2 SWAP1 PUSH2 0x6D4 JUMP JUMPDEST PUSH1 0x40 MLOAD DUP1 SWAP2 SUB SWAP1 RETURN JUMPDEST PUSH2 0x9C PUSH1 0x4 DUP1 CALLDATASIZE SUB DUP2 ADD SWAP1 PUSH2 0x97 SWAP2 SWAP1 PUSH2 0x5E8 JUMP JUMPDEST PUSH2 0x1A5 JUMP JUMPDEST STOP JUMPDEST CALLVALUE DUP1 ISZERO PUSH2 0xAA JUMPI PUSH1 0x0 DUP1 REVERT JUMPDEST POP PUSH2 0xB3 PUSH2 0x313 JUMP JUMPDEST PUSH1 0x40 MLOAD PUSH2 0xC0 SWAP2 SWAP1 PUSH2 0x679 JUMP JUMPDEST PUSH1 0x40 MLOAD DUP1 SWAP2 SUB SWAP1 RETURN JUMPDEST CALLVALUE DUP1 ISZERO PUSH2 0xD5 JUMPI PUSH1 0x0 DUP1 REVERT JUMPDEST POP PUSH2 0xF0 PUSH1 0x4 DUP1 CALLDATASIZE SUB DUP2 ADD SWAP1 PUSH2 0xEB SWAP2 SWAP1 PUSH2 0x5BB JUMP JUMPDEST PUSH2 0x3CA JUMP JUMPDEST STOP JUMPDEST PUSH2 0x10C PUSH1 0x4 DUP1 CALLDATASIZE SUB DUP2 ADD SWAP1 PUSH2 0x107 SWAP2 SWAP1 PUSH2 0x5E8 JUMP JUMPDEST PUSH2 0x515 JUMP JUMPDEST STOP JUMPDEST PUSH1 0x0 DUP1 PUSH1 0x0 SWAP1 SLOAD SWAP1 PUSH2 0x100 EXP SWAP1 DIV PUSH20 0xFFFFFFFFFFFFFFFFFFFFFFFFFFFFFFFFFFFFFFFF AND PUSH20 0xFFFFFFFFFFFFFFFFFFFFFFFFFFFFFFFFFFFFFFFF AND CALLER PUSH20 0xFFFFFFFFFFFFFFFFFFFFFFFFFFFFFFFFFFFFFFFF AND EQ PUSH2 0x19F JUMPI PUSH1 0x40 MLOAD PUSH32 0x8C379A000000000000000000000000000000000000000000000000000000000 DUP2 MSTORE PUSH1 0x4 ADD PUSH2 0x196 SWAP1 PUSH2 0x694 JUMP JUMPDEST PUSH1 0x40 MLOAD DUP1 SWAP2 SUB SWAP1 REVERT JUMPDEST SELFBALANCE SWAP1 POP SWAP1 JUMP JUMPDEST PUSH1 0x0 DUP1 SLOAD SWAP1 PUSH2 0x100 EXP SWAP1 DIV PUSH20 0xFFFFFFFFFFFFFFFFFFFFFFFFFFFFFFFFFFFFFFFF AND PUSH20 0xFFFFFFFFFFFFFFFFFFFFFFFFFFFFFFFFFFFFFFFF AND CALLER PUSH20 0xFFFFFFFFFFFFFFFFFFFFFFFFFFFFFFFFFFFFFFFF AND EQ PUSH2 0x233 JUMPI PUSH1 0x40 MLOAD PUSH32 0x8C379A000000000000000000000000000000000000000000000000000000000 DUP2 MSTORE PUSH1 0x4 ADD PUSH2 0x22A SWAP1 PUSH2 0x694 JUMP JUMPDEST PUSH1 0x40 MLOAD DUP1 SWAP2 SUB SWAP1 REVERT JUMPDEST PUSH1 0x0 CALLER SWAP1 POP DUP2 CALLVALUE EQ PUSH2 0x27A JUMPI PUSH1 0x40 MLOAD PUSH32 0x8C379A000000000000000000000000000000000000000000000000000000000 DUP2 MSTORE PUSH1 0x4 ADD PUSH2 0x271 SWAP1 PUSH2 0x6B4 JUMP JUMPDEST PUSH1 0x40 MLOAD DUP1 SWAP2 SUB SWAP1 REVERT JUMPDEST DUP1 PUSH20 0xFFFFFFFFFFFFFFFFFFFFFFFFFFFFFFFFFFFFFFFF AND PUSH2 0x8FC DUP4 SWAP1 DUP2 ISZERO MUL SWAP1 PUSH1 0x40 MLOAD PUSH1 0x0 PUSH1 0x40 MLOAD DUP1 DUP4 SUB DUP2 DUP6 DUP9 DUP9 CALL SWAP4 POP POP POP POP ISZERO DUP1 ISZERO PUSH2 0x2C0 JUMPI RETURNDATASIZE PUSH1 0x0 DUP1 RETURNDATACOPY RETURNDATASIZE PUSH1 0x0 REVERT JUMPDEST POP DUP1 PUSH20 0xFFFFFFFFFFFFFFFFFFFFFFFFFFFFFFFFFFFFFFFF AND PUSH32 0xEDBA6AF8A008DF8D478C27771852395D0146033AA0F15AF26991BE42D994F15 DUP4 PUSH1 0x40 MLOAD PUSH2 0x307 SWAP2 SWAP1 PUSH2 0x6D4 JUMP JUMPDEST PUSH1 0x40 MLOAD DUP1 SWAP2 SUB SWAP1 LOG2 POP POP JUMP JUMPDEST PUSH1 0x0 DUP1 PUSH1 0x0 SWAP1 SLOAD SWAP1 PUSH2 0x100 EXP SWAP1 DIV PUSH20 0xFFFFFFFFFFFFFFFFFFFFFFFFFFFFFFFFFFFFFFFF AND PUSH20 0xFFFFFFFFFFFFFFFFFFFFFFFFFFFFFFFFFFFFFFFF AND CALLER PUSH20 0xFFFFFFFFFFFFFFFFFFFFFFFFFFFFFFFFFFFFFFFF AND EQ PUSH2 0x3A4 JUMPI PUSH1 0x40 MLOAD PUSH32 0x8C379A000000000000000000000000000000000000000000000000000000000 DUP2 MSTORE PUSH1 0x4 ADD PUSH2 0x39B SWAP1 PUSH2 0x694 JUMP JUMPDEST PUSH1 0x40 MLOAD DUP1 SWAP2 SUB SWAP1 REVERT JUMPDEST PUSH1 0x0 DUP1 SLOAD SWAP1 PUSH2 0x100 EXP SWAP1 DIV PUSH20 0xFFFFFFFFFFFFFFFFFFFFFFFFFFFFFFFFFFFFFFFF AND SWAP1 POP SWAP1 JUMP JUMPDEST PUSH1 0x0 DUP1 SLOAD SWAP1 PUSH2 0x100 EXP SWAP1 DIV PUSH20 0xFFFFFFFFFFFFFFFFFFFFFFFFFFFFFFFFFFFFFFFF AND PUSH20 0xFFFFFFFFFFFFFFFFFFFFFFFFFFFFFFFFFFFFFFFF AND CALLER PUSH20 0xFFFFFFFFFFFFFFFFFFFFFFFFFFFFFFFFFFFFFFFF AND EQ PUSH2 0x458 JUMPI PUSH1 0x40 MLOAD PUSH32 0x8C379A000000000000000000000000000000000000000000000000000000000 DUP2 MSTORE PUSH1 0x4 ADD PUSH2 0x44F SWAP1 PUSH2 0x694 JUMP JUMPDEST PUSH1 0x40 MLOAD DUP1 SWAP2 SUB SWAP1 REVERT JUMPDEST DUP1 PUSH20 0xFFFFFFFFFFFFFFFFFFFFFFFFFFFFFFFFFFFFFFFF AND PUSH1 0x0 DUP1 SLOAD SWAP1 PUSH2 0x100 EXP SWAP1 DIV PUSH20 0xFFFFFFFFFFFFFFFFFFFFFFFFFFFFFFFFFFFFFFFF AND PUSH20 0xFFFFFFFFFFFFFFFFFFFFFFFFFFFFFFFFFFFFFFFF AND PUSH32 0x342827C97908E5E2F71151C08502A66D44B6F758E3AC2F1DE95F02EB95F0A735 PUSH1 0x40 MLOAD PUSH1 0x40 MLOAD DUP1 SWAP2 SUB SWAP1 LOG3 DUP1 PUSH1 0x0 DUP1 PUSH2 0x100 EXP DUP2 SLOAD DUP2 PUSH20 0xFFFFFFFFFFFFFFFFFFFFFFFFFFFFFFFFFFFFFFFF MUL NOT AND SWAP1 DUP4 PUSH20 0xFFFFFFFFFFFFFFFFFFFFFFFFFFFFFFFFFFFFFFFF AND MUL OR SWAP1 SSTORE POP POP JUMP JUMPDEST DUP1 CALLVALUE EQ PUSH2 0x557 JUMPI PUSH1 0x40 MLOAD PUSH32 0x8C379A000000000000000000000000000000000000000000000000000000000 DUP2 MSTORE PUSH1 0x4 ADD PUSH2 0x54E SWAP1 PUSH2 0x6B4 JUMP JUMPDEST PUSH1 0x40 MLOAD DUP1 SWAP2 SUB SWAP1 REVERT JUMPDEST PUSH32 0xC7F729B0170CBE78F93DE887AF2B609DBB017055B4E4E141CD8D7ACD79DD8A75 DUP2 PUSH1 0x40 MLOAD PUSH2 0x586 SWAP2 SWAP1 PUSH2 0x6D4 JUMP JUMPDEST PUSH1 0x40 MLOAD DUP1 SWAP2 SUB SWAP1 LOG1 POP JUMP JUMPDEST PUSH1 0x0 DUP2 CALLDATALOAD SWAP1 POP PUSH2 0x5A0 DUP2 PUSH2 0x793 JUMP JUMPDEST SWAP3 SWAP2 POP POP JUMP JUMPDEST PUSH1 0x0 DUP2 CALLDATALOAD SWAP1 POP PUSH2 0x5B5 DUP2 PUSH2 0x7AA JUMP JUMPDEST SWAP3 SWAP2 POP POP JUMP JUMPDEST PUSH1 0x0 PUSH1 0x20 DUP3 DUP5 SUB SLT ISZERO PUSH2 0x5D1 JUMPI PUSH2 0x5D0 PUSH2 0x73C JUMP JUMPDEST JUMPDEST PUSH1 0x0 PUSH2 0x5DF DUP5 DUP3 DUP6 ADD PUSH2 0x591 JUMP JUMPDEST SWAP2 POP POP SWAP3 SWAP2 POP POP JUMP JUMPDEST PUSH1 0x0 PUSH1 0x20 DUP3 DUP5 SUB SLT ISZERO PUSH2 0x5FE JUMPI PUSH2 0x5FD PUSH2 0x73C JUMP JUMPDEST JUMPDEST PUSH1 0x0 PUSH2 0x60C DUP5 DUP3 DUP6 ADD PUSH2 0x5A6 JUMP JUMPDEST SWAP2 POP POP SWAP3 SWAP2 POP POP JUMP JUMPDEST PUSH2 0x61E DUP2 PUSH2 0x700 JUMP JUMPDEST DUP3 MSTORE POP POP JUMP JUMPDEST PUSH1 0x0 PUSH2 0x631 PUSH1 0x13 DUP4 PUSH2 0x6EF JUMP JUMPDEST SWAP2 POP PUSH2 0x63C DUP3 PUSH2 0x741 JUMP JUMPDEST PUSH1 0x20 DUP3 ADD SWAP1 POP SWAP2 SWAP1 POP JUMP JUMPDEST PUSH1 0x0 PUSH2 0x654 PUSH1 0x10 DUP4 PUSH2 0x6EF JUMP JUMPDEST SWAP2 POP PUSH2 0x65F DUP3 PUSH2 0x76A JUMP JUMPDEST PUSH1 0x20 DUP3 ADD SWAP1 POP SWAP2 SWAP1 POP JUMP JUMPDEST PUSH2 0x673 DUP2 PUSH2 0x732 JUMP JUMPDEST DUP3 MSTORE POP POP JUMP JUMPDEST PUSH1 0x0 PUSH1 0x20 DUP3 ADD SWAP1 POP PUSH2 0x68E PUSH1 0x0 DUP4 ADD DUP5 PUSH2 0x615 JUMP JUMPDEST SWAP3 SWAP2 POP POP JUMP JUMPDEST PUSH1 0x0 PUSH1 0x20 DUP3 ADD SWAP1 POP DUP2 DUP2 SUB PUSH1 0x0 DUP4 ADD MSTORE PUSH2 0x6AD DUP2 PUSH2 0x624 JUMP JUMPDEST SWAP1 POP SWAP2 SWAP1 POP JUMP JUMPDEST PUSH1 0x0 PUSH1 0x20 DUP3 ADD SWAP1 POP DUP2 DUP2 SUB PUSH1 0x0 DUP4 ADD MSTORE PUSH2 0x6CD DUP2 PUSH2 0x647 JUMP JUMPDEST SWAP1 POP SWAP2 SWAP1 POP JUMP JUMPDEST PUSH1 0x0 PUSH1 0x20 DUP3 ADD SWAP1 POP PUSH2 0x6E9 PUSH1 0x0 DUP4 ADD DUP5 PUSH2 0x66A JUMP JUMPDEST SWAP3 SWAP2 POP POP JUMP JUMPDEST PUSH1 0x0 DUP3 DUP3 MSTORE PUSH1 0x20 DUP3 ADD SWAP1 POP SWAP3 SWAP2 POP POP JUMP JUMPDEST PUSH1 0x0 PUSH2 0x70B DUP3 PUSH2 0x712 JUMP JUMPDEST SWAP1 POP SWAP2 SWAP1 POP JUMP JUMPDEST PUSH1 0x0 PUSH20 0xFFFFFFFFFFFFFFFFFFFFFFFFFFFFFFFFFFFFFFFF DUP3 AND SWAP1 POP SWAP2 SWAP1 POP JUMP JUMPDEST PUSH1 0x0 DUP2 SWAP1 POP SWAP2 SWAP1 POP JUMP JUMPDEST PUSH1 0x0 DUP1 REVERT JUMPDEST PUSH32 0x43616C6C6572206973206E6F74206F776E657200000000000000000000000000 PUSH1 0x0 DUP3 ADD MSTORE POP JUMP JUMPDEST PUSH32 0x496E636F727265637420616D6F756E7400000000000000000000000000000000 PUSH1 0x0 DUP3 ADD MSTORE POP JUMP JUMPDEST PUSH2 0x79C DUP2 PUSH2 0x700 JUMP JUMPDEST DUP2 EQ PUSH2 0x7A7 JUMPI PUSH1 0x0 DUP1 REVERT JUMPDEST POP JUMP JUMPDEST PUSH2 0x7B3 DUP2 PUSH2 0x732 JUMP JUMPDEST DUP2 EQ PUSH2 0x7BE JUMPI PUSH1 0x0 DUP1 REVERT JUMPDEST POP JUMP INVALID LOG2 PUSH5 0x6970667358 0x22 SLT KECCAK256 CALLDATASIZE SUB LOG1 JUMP 0x4A DUP16 0xC8 COINBASE 0xC6 LOG4 LOG4 BASEFEE REVERT MLOAD SUB 0xC5 PUSH3 0x7A4963 PC 0xAE 0xFB 0x5C 0xCE NUMBER SWAP2 0xB0 CALLER SWAP9 SLOAD PUSH2 0x6473 PUSH16 0x6C634300080700330000000000000000 "
				},
				"gasEstimates": {
					"creation": {
						"codeDepositCost": "407800",
						"executionCost": "50493",
						"totalCost": "458293"
					},
					"external": {
						"": "173",
						"changeOwner(address)": "30611",
						"deposit(uint256)": "infinite",
						"getBalance()": "2584",
						"getOwner()": "4711",
						"withdraw(uint256)": "infinite"
					}
				},
				"methodIdentifiers": {
					"changeOwner(address)": "a6f9dae1",
					"deposit(uint256)": "b6b55f25",
					"getBalance()": "12065fe0",
					"getOwner()": "893d20e8",
					"withdraw(uint256)": "2e1a7d4d"
				}
			},
			"storageLayout": {
				"storage": [
					{
						"astId": 4,
						"contract": "contracts/RedTech.sol:RedTech",
						"label": "owner",
						"offset": 0,
						"slot": "0",
						"type": "t_address"
					},
					{
						"astId": 7,
						"contract": "contracts/RedTech.sol:RedTech",
						"label": "persentage",
						"offset": 0,
						"slot": "1",
						"type": "t_uint256"
					}
				],
				"types": {
					"t_address": {
						"encoding": "inplace",
						"label": "address",
						"numberOfBytes": "20"
					},
					"t_uint256": {
						"encoding": "inplace",
						"label": "uint256",
						"numberOfBytes": "32"
					}
				}
			},
			"userdoc": {
				"kind": "user",
				"methods": {},
				"version": 1
			}
		}
	}
}