{
	"contracts/RedTech.sol": {
		"RedTech": {
			"abi": [
				{
					"inputs": [],
					"stateMutability": "nonpayable",
					"type": "constructor"
				},
				{
					"anonymous": false,
					"inputs": [
						{
							"indexed": false,
							"internalType": "uint256",
							"name": "amount",
							"type": "uint256"
						}
					],
					"name": "AmountRecievedFrom",
					"type": "event"
				},
				{
					"anonymous": false,
					"inputs": [
						{
							"indexed": false,
							"internalType": "uint256",
							"name": "value",
							"type": "uint256"
						},
						{
							"indexed": true,
							"internalType": "address",
							"name": "toAddress",
							"type": "address"
						}
					],
					"name": "AmountTransferedTo",
					"type": "event"
				},
				{
					"anonymous": false,
					"inputs": [
						{
							"indexed": true,
							"internalType": "address",
							"name": "oldOwner",
							"type": "address"
						},
						{
							"indexed": true,
							"internalType": "address",
							"name": "newOwner",
							"type": "address"
						}
					],
					"name": "OwnerSet",
					"type": "event"
				},
				{
					"stateMutability": "payable",
					"type": "fallback"
				},
				{
					"inputs": [
						{
							"internalType": "address",
							"name": "newOwner",
							"type": "address"
						}
					],
					"name": "changeOwner",
					"outputs": [],
					"stateMutability": "nonpayable",
					"type": "function"
				},
				{
					"inputs": [
						{
							"internalType": "uint256",
							"name": "amount",
							"type": "uint256"
						}
					],
					"name": "deposit",
					"outputs": [],
					"stateMutability": "payable",
					"type": "function"
				},
				{
					"inputs": [],
					"name": "getBalance",
					"outputs": [
						{
							"internalType": "uint256",
							"name": "",
							"type": "uint256"
						}
					],
					"stateMutability": "view",
					"type": "function"
				},
				{
					"inputs": [],
					"name": "getOwner",
					"outputs": [
						{
							"internalType": "address",
							"name": "",
							"type": "address"
						}
					],
					"stateMutability": "view",
					"type": "function"
				},
				{
					"stateMutability": "payable",
					"type": "receive"
				}
			],
			"devdoc": {
				"kind": "dev",
				"methods": {
					"changeOwner(address)": {
						"details": "Change owner",
						"params": {
							"newOwner": "address of new owner"
						}
					},
					"constructor": {
						"details": "Set contract deployer as owner"
					},
					"deposit(uint256)": {
						"details": "User Transfer eth from their account to contract & RedTech takes persentage",
						"params": {
							"amount": "amount (in wei) to be transferred"
						}
					},
					"getBalance()": {
						"details": "Return contract balance ",
						"returns": {
							"_0": "balance of contract"
						}
					},
					"getOwner()": {
						"details": "Return owner address ",
						"returns": {
							"_0": "address of owner"
						}
					}
				},
				"title": "RedTech",
				"version": 1
			},
			"evm": {
				"assembly": "    /* \"contracts/RedTech.sol\":96:2456  contract RedTech {... */\n  mstore(0x40, 0x80)\n    /* \"contracts/RedTech.sol\":175:176  5 */\n  0x05\n    /* \"contracts/RedTech.sol\":153:176  uint256  persentage = 5 */\n  0x01\n  sstore\n    /* \"contracts/RedTech.sol\":1125:1295  constructor() {... */\n  callvalue\n  dup1\n  iszero\n  tag_1\n  jumpi\n  0x00\n  dup1\n  revert\ntag_1:\n  pop\n    /* \"contracts/RedTech.sol\":1157:1167  msg.sender */\n  caller\n    /* \"contracts/RedTech.sol\":1149:1154  owner */\n  0x00\n  dup1\n    /* \"contracts/RedTech.sol\":1149:1167  owner = msg.sender */\n  0x0100\n  exp\n  dup2\n  sload\n  dup2\n  0xffffffffffffffffffffffffffffffffffffffff\n  mul\n  not\n  and\n  swap1\n  dup4\n  0xffffffffffffffffffffffffffffffffffffffff\n  and\n  mul\n  or\n  swap1\n  sstore\n  pop\n    /* \"contracts/RedTech.sol\":1282:1287  owner */\n  0x00\n  dup1\n  sload\n  swap1\n  0x0100\n  exp\n  swap1\n  div\n  0xffffffffffffffffffffffffffffffffffffffff\n  and\n    /* \"contracts/RedTech.sol\":1261:1288  OwnerSet(address(0), owner) */\n  0xffffffffffffffffffffffffffffffffffffffff\n  and\n    /* \"contracts/RedTech.sol\":1278:1279  0 */\n  0x00\n    /* \"contracts/RedTech.sol\":1261:1288  OwnerSet(address(0), owner) */\n  0xffffffffffffffffffffffffffffffffffffffff\n  and\n  0x342827c97908e5e2f71151c08502a66d44b6f758e3ac2f1de95f02eb95f0a735\n  mload(0x40)\n  mload(0x40)\n  dup1\n  swap2\n  sub\n  swap1\n  log3\n    /* \"contracts/RedTech.sol\":96:2456  contract RedTech {... */\n  dataSize(sub_0)\n  dup1\n  dataOffset(sub_0)\n  0x00\n  codecopy\n  0x00\n  return\nstop\n\nsub_0: assembly {\n        /* \"contracts/RedTech.sol\":96:2456  contract RedTech {... */\n      mstore(0x40, 0x80)\n      jumpi(tag_1, lt(calldatasize, 0x04))\n      shr(0xe0, calldataload(0x00))\n      dup1\n      0x12065fe0\n      eq\n      tag_3\n      jumpi\n      dup1\n      0x893d20e8\n      eq\n      tag_4\n      jumpi\n      dup1\n      0xa6f9dae1\n      eq\n      tag_5\n      jumpi\n      dup1\n      0xb6b55f25\n      eq\n      tag_6\n      jumpi\n      jump(tag_2)\n    tag_1:\n      jumpi(tag_2, calldatasize)\n      stop\n    tag_2:\n      stop\n        /* \"contracts/RedTech.sol\":1786:1894  function getBalance() external view isOwner returns (uint256)  {... */\n    tag_3:\n      callvalue\n      dup1\n      iszero\n      tag_11\n      jumpi\n      0x00\n      dup1\n      revert\n    tag_11:\n      pop\n      tag_12\n      tag_13\n      jump\t// in\n    tag_12:\n      mload(0x40)\n      tag_14\n      swap2\n      swap1\n      tag_15\n      jump\t// in\n    tag_14:\n      mload(0x40)\n      dup1\n      swap2\n      sub\n      swap1\n      return\n        /* \"contracts/RedTech.sol\":1601:1691  function getOwner() external view isOwner returns (address)  {... */\n    tag_4:\n      callvalue\n      dup1\n      iszero\n      tag_16\n      jumpi\n      0x00\n      dup1\n      revert\n    tag_16:\n      pop\n      tag_17\n      tag_18\n      jump\t// in\n    tag_17:\n      mload(0x40)\n      tag_19\n      swap2\n      swap1\n      tag_20\n      jump\t// in\n    tag_19:\n      mload(0x40)\n      dup1\n      swap2\n      sub\n      swap1\n      return\n        /* \"contracts/RedTech.sol\":1386:1513  function changeOwner(address newOwner) public isOwner {... */\n    tag_5:\n      callvalue\n      dup1\n      iszero\n      tag_21\n      jumpi\n      0x00\n      dup1\n      revert\n    tag_21:\n      pop\n      tag_22\n      0x04\n      dup1\n      calldatasize\n      sub\n      dup2\n      add\n      swap1\n      tag_23\n      swap2\n      swap1\n      tag_24\n      jump\t// in\n    tag_23:\n      tag_25\n      jump\t// in\n    tag_22:\n      stop\n        /* \"contracts/RedTech.sol\":2097:2449  function  deposit(uint256 amount)payable public  {... */\n    tag_6:\n      tag_26\n      0x04\n      dup1\n      calldatasize\n      sub\n      dup2\n      add\n      swap1\n      tag_27\n      swap2\n      swap1\n      tag_28\n      jump\t// in\n    tag_27:\n      tag_29\n      jump\t// in\n    tag_26:\n      stop\n        /* \"contracts/RedTech.sol\":1786:1894  function getBalance() external view isOwner returns (uint256)  {... */\n    tag_13:\n        /* \"contracts/RedTech.sol\":1839:1846  uint256 */\n      0x00\n        /* \"contracts/RedTech.sol\":1009:1014  owner */\n      dup1\n      0x00\n      swap1\n      sload\n      swap1\n      0x0100\n      exp\n      swap1\n      div\n      0xffffffffffffffffffffffffffffffffffffffff\n      and\n        /* \"contracts/RedTech.sol\":995:1014  msg.sender == owner */\n      0xffffffffffffffffffffffffffffffffffffffff\n      and\n        /* \"contracts/RedTech.sol\":995:1005  msg.sender */\n      caller\n        /* \"contracts/RedTech.sol\":995:1014  msg.sender == owner */\n      0xffffffffffffffffffffffffffffffffffffffff\n      and\n      eq\n        /* \"contracts/RedTech.sol\":987:1038  require(msg.sender == owner, \"Caller is not owner\") */\n      tag_31\n      jumpi\n      mload(0x40)\n      0x08c379a000000000000000000000000000000000000000000000000000000000\n      dup2\n      mstore\n      0x04\n      add\n      tag_32\n      swap1\n      tag_33\n      jump\t// in\n    tag_32:\n      mload(0x40)\n      dup1\n      swap2\n      sub\n      swap1\n      revert\n    tag_31:\n        /* \"contracts/RedTech.sol\":1866:1887  address(this).balance */\n      selfbalance\n        /* \"contracts/RedTech.sol\":1859:1887  return address(this).balance */\n      swap1\n      pop\n        /* \"contracts/RedTech.sol\":1786:1894  function getBalance() external view isOwner returns (uint256)  {... */\n      swap1\n      jump\t// out\n        /* \"contracts/RedTech.sol\":1601:1691  function getOwner() external view isOwner returns (address)  {... */\n    tag_18:\n        /* \"contracts/RedTech.sol\":1652:1659  address */\n      0x00\n        /* \"contracts/RedTech.sol\":1009:1014  owner */\n      dup1\n      0x00\n      swap1\n      sload\n      swap1\n      0x0100\n      exp\n      swap1\n      div\n      0xffffffffffffffffffffffffffffffffffffffff\n      and\n        /* \"contracts/RedTech.sol\":995:1014  msg.sender == owner */\n      0xffffffffffffffffffffffffffffffffffffffff\n      and\n        /* \"contracts/RedTech.sol\":995:1005  msg.sender */\n      caller\n        /* \"contracts/RedTech.sol\":995:1014  msg.sender == owner */\n      0xffffffffffffffffffffffffffffffffffffffff\n      and\n      eq\n        /* \"contracts/RedTech.sol\":987:1038  require(msg.sender == owner, \"Caller is not owner\") */\n      tag_36\n      jumpi\n      mload(0x40)\n      0x08c379a000000000000000000000000000000000000000000000000000000000\n      dup2\n      mstore\n      0x04\n      add\n      tag_37\n      swap1\n      tag_33\n      jump\t// in\n    tag_37:\n      mload(0x40)\n      dup1\n      swap2\n      sub\n      swap1\n      revert\n    tag_36:\n        /* \"contracts/RedTech.sol\":1679:1684  owner */\n      0x00\n      dup1\n      sload\n      swap1\n      0x0100\n      exp\n      swap1\n      div\n      0xffffffffffffffffffffffffffffffffffffffff\n      and\n        /* \"contracts/RedTech.sol\":1672:1684  return owner */\n      swap1\n      pop\n        /* \"contracts/RedTech.sol\":1601:1691  function getOwner() external view isOwner returns (address)  {... */\n      swap1\n      jump\t// out\n        /* \"contracts/RedTech.sol\":1386:1513  function changeOwner(address newOwner) public isOwner {... */\n    tag_25:\n        /* \"contracts/RedTech.sol\":1009:1014  owner */\n      0x00\n      dup1\n      sload\n      swap1\n      0x0100\n      exp\n      swap1\n      div\n      0xffffffffffffffffffffffffffffffffffffffff\n      and\n        /* \"contracts/RedTech.sol\":995:1014  msg.sender == owner */\n      0xffffffffffffffffffffffffffffffffffffffff\n      and\n        /* \"contracts/RedTech.sol\":995:1005  msg.sender */\n      caller\n        /* \"contracts/RedTech.sol\":995:1014  msg.sender == owner */\n      0xffffffffffffffffffffffffffffffffffffffff\n      and\n      eq\n        /* \"contracts/RedTech.sol\":987:1038  require(msg.sender == owner, \"Caller is not owner\") */\n      tag_40\n      jumpi\n      mload(0x40)\n      0x08c379a000000000000000000000000000000000000000000000000000000000\n      dup2\n      mstore\n      0x04\n      add\n      tag_41\n      swap1\n      tag_33\n      jump\t// in\n    tag_41:\n      mload(0x40)\n      dup1\n      swap2\n      sub\n      swap1\n      revert\n    tag_40:\n        /* \"contracts/RedTech.sol\":1471:1479  newOwner */\n      dup1\n        /* \"contracts/RedTech.sol\":1455:1480  OwnerSet(owner, newOwner) */\n      0xffffffffffffffffffffffffffffffffffffffff\n      and\n        /* \"contracts/RedTech.sol\":1464:1469  owner */\n      0x00\n      dup1\n      sload\n      swap1\n      0x0100\n      exp\n      swap1\n      div\n      0xffffffffffffffffffffffffffffffffffffffff\n      and\n        /* \"contracts/RedTech.sol\":1455:1480  OwnerSet(owner, newOwner) */\n      0xffffffffffffffffffffffffffffffffffffffff\n      and\n      0x342827c97908e5e2f71151c08502a66d44b6f758e3ac2f1de95f02eb95f0a735\n      mload(0x40)\n      mload(0x40)\n      dup1\n      swap2\n      sub\n      swap1\n      log3\n        /* \"contracts/RedTech.sol\":1498:1506  newOwner */\n      dup1\n        /* \"contracts/RedTech.sol\":1490:1495  owner */\n      0x00\n      dup1\n        /* \"contracts/RedTech.sol\":1490:1506  owner = newOwner */\n      0x0100\n      exp\n      dup2\n      sload\n      dup2\n      0xffffffffffffffffffffffffffffffffffffffff\n      mul\n      not\n      and\n      swap1\n      dup4\n      0xffffffffffffffffffffffffffffffffffffffff\n      and\n      mul\n      or\n      swap1\n      sstore\n      pop\n        /* \"contracts/RedTech.sol\":1386:1513  function changeOwner(address newOwner) public isOwner {... */\n      pop\n      jump\t// out\n        /* \"contracts/RedTech.sol\":2097:2449  function  deposit(uint256 amount)payable public  {... */\n    tag_29:\n        /* \"contracts/RedTech.sol\":2177:2183  amount */\n      dup1\n        /* \"contracts/RedTech.sol\":2164:2173  msg.value */\n      callvalue\n        /* \"contracts/RedTech.sol\":2164:2183  msg.value == amount */\n      eq\n        /* \"contracts/RedTech.sol\":2156:2204  require(msg.value == amount, \"Incorrect amount\") */\n      tag_44\n      jumpi\n      mload(0x40)\n      0x08c379a000000000000000000000000000000000000000000000000000000000\n      dup2\n      mstore\n      0x04\n      add\n      tag_45\n      swap1\n      tag_46\n      jump\t// in\n    tag_45:\n      mload(0x40)\n      dup1\n      swap2\n      sub\n      swap1\n      revert\n    tag_44:\n        /* \"contracts/RedTech.sol\":2219:2245  AmountRecievedFrom(amount) */\n      0xc7f729b0170cbe78f93de887af2b609dbb017055b4e4e141cd8d7acd79dd8a75\n        /* \"contracts/RedTech.sol\":2238:2244  amount */\n      dup2\n        /* \"contracts/RedTech.sol\":2219:2245  AmountRecievedFrom(amount) */\n      mload(0x40)\n      tag_47\n      swap2\n      swap1\n      tag_15\n      jump\t// in\n    tag_47:\n      mload(0x40)\n      dup1\n      swap2\n      sub\n      swap1\n      log1\n        /* \"contracts/RedTech.sol\":2310:2324  uint256 profit */\n      0x00\n        /* \"contracts/RedTech.sol\":2342:2352  persentage */\n      sload(0x01)\n        /* \"contracts/RedTech.sol\":2336:2339  100 */\n      0x64\n        /* \"contracts/RedTech.sol\":2327:2333  amount */\n      dup4\n        /* \"contracts/RedTech.sol\":2327:2339  amount / 100 */\n      tag_48\n      swap2\n      swap1\n      tag_49\n      jump\t// in\n    tag_48:\n        /* \"contracts/RedTech.sol\":2327:2352  amount / 100 * persentage */\n      tag_50\n      swap2\n      swap1\n      tag_51\n      jump\t// in\n    tag_50:\n        /* \"contracts/RedTech.sol\":2310:2352  uint256 profit = amount / 100 * persentage */\n      swap1\n      pop\n        /* \"contracts/RedTech.sol\":2370:2375  owner */\n      0x00\n      dup1\n      sload\n      swap1\n      0x0100\n      exp\n      swap1\n      div\n      0xffffffffffffffffffffffffffffffffffffffff\n      and\n        /* \"contracts/RedTech.sol\":2362:2385  payable(owner).transfer */\n      0xffffffffffffffffffffffffffffffffffffffff\n      and\n        /* \"contracts/RedTech.sol\":2362:2393  payable(owner).transfer(profit) */\n      0x08fc\n        /* \"contracts/RedTech.sol\":2386:2392  profit */\n      dup3\n        /* \"contracts/RedTech.sol\":2362:2393  payable(owner).transfer(profit) */\n      swap1\n      dup2\n      iszero\n      mul\n      swap1\n      mload(0x40)\n      0x00\n      mload(0x40)\n      dup1\n      dup4\n      sub\n      dup2\n      dup6\n      dup9\n      dup9\n      call\n      swap4\n      pop\n      pop\n      pop\n      pop\n      iszero\n      dup1\n      iszero\n      tag_53\n      jumpi\n      returndatasize\n      0x00\n      dup1\n      returndatacopy\n      revert(0x00, returndatasize)\n    tag_53:\n      pop\n        /* \"contracts/RedTech.sol\":2435:2440  owner */\n      0x00\n      dup1\n      sload\n      swap1\n      0x0100\n      exp\n      swap1\n      div\n      0xffffffffffffffffffffffffffffffffffffffff\n      and\n        /* \"contracts/RedTech.sol\":2408:2441  AmountTransferedTo(profit, owner) */\n      0xffffffffffffffffffffffffffffffffffffffff\n      and\n      0x0edba6af8a008df8d478c27771852395d0146033aa0f15af26991be42d994f15\n        /* \"contracts/RedTech.sol\":2427:2433  profit */\n      dup3\n        /* \"contracts/RedTech.sol\":2408:2441  AmountTransferedTo(profit, owner) */\n      mload(0x40)\n      tag_54\n      swap2\n      swap1\n      tag_15\n      jump\t// in\n    tag_54:\n      mload(0x40)\n      dup1\n      swap2\n      sub\n      swap1\n      log2\n        /* \"contracts/RedTech.sol\":2146:2449  {... */\n      pop\n        /* \"contracts/RedTech.sol\":2097:2449  function  deposit(uint256 amount)payable public  {... */\n      pop\n      jump\t// out\n        /* \"#utility.yul\":7:146   */\n    tag_56:\n        /* \"#utility.yul\":53:58   */\n      0x00\n        /* \"#utility.yul\":91:97   */\n      dup2\n        /* \"#utility.yul\":78:98   */\n      calldataload\n        /* \"#utility.yul\":69:98   */\n      swap1\n      pop\n        /* \"#utility.yul\":107:140   */\n      tag_58\n        /* \"#utility.yul\":134:139   */\n      dup2\n        /* \"#utility.yul\":107:140   */\n      tag_59\n      jump\t// in\n    tag_58:\n        /* \"#utility.yul\":7:146   */\n      swap3\n      swap2\n      pop\n      pop\n      jump\t// out\n        /* \"#utility.yul\":152:291   */\n    tag_60:\n        /* \"#utility.yul\":198:203   */\n      0x00\n        /* \"#utility.yul\":236:242   */\n      dup2\n        /* \"#utility.yul\":223:243   */\n      calldataload\n        /* \"#utility.yul\":214:243   */\n      swap1\n      pop\n        /* \"#utility.yul\":252:285   */\n      tag_62\n        /* \"#utility.yul\":279:284   */\n      dup2\n        /* \"#utility.yul\":252:285   */\n      tag_63\n      jump\t// in\n    tag_62:\n        /* \"#utility.yul\":152:291   */\n      swap3\n      swap2\n      pop\n      pop\n      jump\t// out\n        /* \"#utility.yul\":297:626   */\n    tag_24:\n        /* \"#utility.yul\":356:362   */\n      0x00\n        /* \"#utility.yul\":405:407   */\n      0x20\n        /* \"#utility.yul\":393:402   */\n      dup3\n        /* \"#utility.yul\":384:391   */\n      dup5\n        /* \"#utility.yul\":380:403   */\n      sub\n        /* \"#utility.yul\":376:408   */\n      slt\n        /* \"#utility.yul\":373:492   */\n      iszero\n      tag_65\n      jumpi\n        /* \"#utility.yul\":411:490   */\n      tag_66\n      tag_67\n      jump\t// in\n    tag_66:\n        /* \"#utility.yul\":373:492   */\n    tag_65:\n        /* \"#utility.yul\":531:532   */\n      0x00\n        /* \"#utility.yul\":556:609   */\n      tag_68\n        /* \"#utility.yul\":601:608   */\n      dup5\n        /* \"#utility.yul\":592:598   */\n      dup3\n        /* \"#utility.yul\":581:590   */\n      dup6\n        /* \"#utility.yul\":577:599   */\n      add\n        /* \"#utility.yul\":556:609   */\n      tag_56\n      jump\t// in\n    tag_68:\n        /* \"#utility.yul\":546:609   */\n      swap2\n      pop\n        /* \"#utility.yul\":502:619   */\n      pop\n        /* \"#utility.yul\":297:626   */\n      swap3\n      swap2\n      pop\n      pop\n      jump\t// out\n        /* \"#utility.yul\":632:961   */\n    tag_28:\n        /* \"#utility.yul\":691:697   */\n      0x00\n        /* \"#utility.yul\":740:742   */\n      0x20\n        /* \"#utility.yul\":728:737   */\n      dup3\n        /* \"#utility.yul\":719:726   */\n      dup5\n        /* \"#utility.yul\":715:738   */\n      sub\n        /* \"#utility.yul\":711:743   */\n      slt\n        /* \"#utility.yul\":708:827   */\n      iszero\n      tag_70\n      jumpi\n        /* \"#utility.yul\":746:825   */\n      tag_71\n      tag_67\n      jump\t// in\n    tag_71:\n        /* \"#utility.yul\":708:827   */\n    tag_70:\n        /* \"#utility.yul\":866:867   */\n      0x00\n        /* \"#utility.yul\":891:944   */\n      tag_72\n        /* \"#utility.yul\":936:943   */\n      dup5\n        /* \"#utility.yul\":927:933   */\n      dup3\n        /* \"#utility.yul\":916:925   */\n      dup6\n        /* \"#utility.yul\":912:934   */\n      add\n        /* \"#utility.yul\":891:944   */\n      tag_60\n      jump\t// in\n    tag_72:\n        /* \"#utility.yul\":881:944   */\n      swap2\n      pop\n        /* \"#utility.yul\":837:954   */\n      pop\n        /* \"#utility.yul\":632:961   */\n      swap3\n      swap2\n      pop\n      pop\n      jump\t// out\n        /* \"#utility.yul\":967:1085   */\n    tag_73:\n        /* \"#utility.yul\":1054:1078   */\n      tag_75\n        /* \"#utility.yul\":1072:1077   */\n      dup2\n        /* \"#utility.yul\":1054:1078   */\n      tag_76\n      jump\t// in\n    tag_75:\n        /* \"#utility.yul\":1049:1052   */\n      dup3\n        /* \"#utility.yul\":1042:1079   */\n      mstore\n        /* \"#utility.yul\":967:1085   */\n      pop\n      pop\n      jump\t// out\n        /* \"#utility.yul\":1091:1457   */\n    tag_77:\n        /* \"#utility.yul\":1233:1236   */\n      0x00\n        /* \"#utility.yul\":1254:1321   */\n      tag_79\n        /* \"#utility.yul\":1318:1320   */\n      0x13\n        /* \"#utility.yul\":1313:1316   */\n      dup4\n        /* \"#utility.yul\":1254:1321   */\n      tag_80\n      jump\t// in\n    tag_79:\n        /* \"#utility.yul\":1247:1321   */\n      swap2\n      pop\n        /* \"#utility.yul\":1330:1423   */\n      tag_81\n        /* \"#utility.yul\":1419:1422   */\n      dup3\n        /* \"#utility.yul\":1330:1423   */\n      tag_82\n      jump\t// in\n    tag_81:\n        /* \"#utility.yul\":1448:1450   */\n      0x20\n        /* \"#utility.yul\":1443:1446   */\n      dup3\n        /* \"#utility.yul\":1439:1451   */\n      add\n        /* \"#utility.yul\":1432:1451   */\n      swap1\n      pop\n        /* \"#utility.yul\":1091:1457   */\n      swap2\n      swap1\n      pop\n      jump\t// out\n        /* \"#utility.yul\":1463:1829   */\n    tag_83:\n        /* \"#utility.yul\":1605:1608   */\n      0x00\n        /* \"#utility.yul\":1626:1693   */\n      tag_85\n        /* \"#utility.yul\":1690:1692   */\n      0x10\n        /* \"#utility.yul\":1685:1688   */\n      dup4\n        /* \"#utility.yul\":1626:1693   */\n      tag_80\n      jump\t// in\n    tag_85:\n        /* \"#utility.yul\":1619:1693   */\n      swap2\n      pop\n        /* \"#utility.yul\":1702:1795   */\n      tag_86\n        /* \"#utility.yul\":1791:1794   */\n      dup3\n        /* \"#utility.yul\":1702:1795   */\n      tag_87\n      jump\t// in\n    tag_86:\n        /* \"#utility.yul\":1820:1822   */\n      0x20\n        /* \"#utility.yul\":1815:1818   */\n      dup3\n        /* \"#utility.yul\":1811:1823   */\n      add\n        /* \"#utility.yul\":1804:1823   */\n      swap1\n      pop\n        /* \"#utility.yul\":1463:1829   */\n      swap2\n      swap1\n      pop\n      jump\t// out\n        /* \"#utility.yul\":1835:1953   */\n    tag_88:\n        /* \"#utility.yul\":1922:1946   */\n      tag_90\n        /* \"#utility.yul\":1940:1945   */\n      dup2\n        /* \"#utility.yul\":1922:1946   */\n      tag_91\n      jump\t// in\n    tag_90:\n        /* \"#utility.yul\":1917:1920   */\n      dup3\n        /* \"#utility.yul\":1910:1947   */\n      mstore\n        /* \"#utility.yul\":1835:1953   */\n      pop\n      pop\n      jump\t// out\n        /* \"#utility.yul\":1959:2181   */\n    tag_20:\n        /* \"#utility.yul\":2052:2056   */\n      0x00\n        /* \"#utility.yul\":2090:2092   */\n      0x20\n        /* \"#utility.yul\":2079:2088   */\n      dup3\n        /* \"#utility.yul\":2075:2093   */\n      add\n        /* \"#utility.yul\":2067:2093   */\n      swap1\n      pop\n        /* \"#utility.yul\":2103:2174   */\n      tag_93\n        /* \"#utility.yul\":2171:2172   */\n      0x00\n        /* \"#utility.yul\":2160:2169   */\n      dup4\n        /* \"#utility.yul\":2156:2173   */\n      add\n        /* \"#utility.yul\":2147:2153   */\n      dup5\n        /* \"#utility.yul\":2103:2174   */\n      tag_73\n      jump\t// in\n    tag_93:\n        /* \"#utility.yul\":1959:2181   */\n      swap3\n      swap2\n      pop\n      pop\n      jump\t// out\n        /* \"#utility.yul\":2187:2606   */\n    tag_33:\n        /* \"#utility.yul\":2353:2357   */\n      0x00\n        /* \"#utility.yul\":2391:2393   */\n      0x20\n        /* \"#utility.yul\":2380:2389   */\n      dup3\n        /* \"#utility.yul\":2376:2394   */\n      add\n        /* \"#utility.yul\":2368:2394   */\n      swap1\n      pop\n        /* \"#utility.yul\":2440:2449   */\n      dup2\n        /* \"#utility.yul\":2434:2438   */\n      dup2\n        /* \"#utility.yul\":2430:2450   */\n      sub\n        /* \"#utility.yul\":2426:2427   */\n      0x00\n        /* \"#utility.yul\":2415:2424   */\n      dup4\n        /* \"#utility.yul\":2411:2428   */\n      add\n        /* \"#utility.yul\":2404:2451   */\n      mstore\n        /* \"#utility.yul\":2468:2599   */\n      tag_95\n        /* \"#utility.yul\":2594:2598   */\n      dup2\n        /* \"#utility.yul\":2468:2599   */\n      tag_77\n      jump\t// in\n    tag_95:\n        /* \"#utility.yul\":2460:2599   */\n      swap1\n      pop\n        /* \"#utility.yul\":2187:2606   */\n      swap2\n      swap1\n      pop\n      jump\t// out\n        /* \"#utility.yul\":2612:3031   */\n    tag_46:\n        /* \"#utility.yul\":2778:2782   */\n      0x00\n        /* \"#utility.yul\":2816:2818   */\n      0x20\n        /* \"#utility.yul\":2805:2814   */\n      dup3\n        /* \"#utility.yul\":2801:2819   */\n      add\n        /* \"#utility.yul\":2793:2819   */\n      swap1\n      pop\n        /* \"#utility.yul\":2865:2874   */\n      dup2\n        /* \"#utility.yul\":2859:2863   */\n      dup2\n        /* \"#utility.yul\":2855:2875   */\n      sub\n        /* \"#utility.yul\":2851:2852   */\n      0x00\n        /* \"#utility.yul\":2840:2849   */\n      dup4\n        /* \"#utility.yul\":2836:2853   */\n      add\n        /* \"#utility.yul\":2829:2876   */\n      mstore\n        /* \"#utility.yul\":2893:3024   */\n      tag_97\n        /* \"#utility.yul\":3019:3023   */\n      dup2\n        /* \"#utility.yul\":2893:3024   */\n      tag_83\n      jump\t// in\n    tag_97:\n        /* \"#utility.yul\":2885:3024   */\n      swap1\n      pop\n        /* \"#utility.yul\":2612:3031   */\n      swap2\n      swap1\n      pop\n      jump\t// out\n        /* \"#utility.yul\":3037:3259   */\n    tag_15:\n        /* \"#utility.yul\":3130:3134   */\n      0x00\n        /* \"#utility.yul\":3168:3170   */\n      0x20\n        /* \"#utility.yul\":3157:3166   */\n      dup3\n        /* \"#utility.yul\":3153:3171   */\n      add\n        /* \"#utility.yul\":3145:3171   */\n      swap1\n      pop\n        /* \"#utility.yul\":3181:3252   */\n      tag_99\n        /* \"#utility.yul\":3249:3250   */\n      0x00\n        /* \"#utility.yul\":3238:3247   */\n      dup4\n        /* \"#utility.yul\":3234:3251   */\n      add\n        /* \"#utility.yul\":3225:3231   */\n      dup5\n        /* \"#utility.yul\":3181:3252   */\n      tag_88\n      jump\t// in\n    tag_99:\n        /* \"#utility.yul\":3037:3259   */\n      swap3\n      swap2\n      pop\n      pop\n      jump\t// out\n        /* \"#utility.yul\":3346:3515   */\n    tag_80:\n        /* \"#utility.yul\":3430:3441   */\n      0x00\n        /* \"#utility.yul\":3464:3470   */\n      dup3\n        /* \"#utility.yul\":3459:3462   */\n      dup3\n        /* \"#utility.yul\":3452:3471   */\n      mstore\n        /* \"#utility.yul\":3504:3508   */\n      0x20\n        /* \"#utility.yul\":3499:3502   */\n      dup3\n        /* \"#utility.yul\":3495:3509   */\n      add\n        /* \"#utility.yul\":3480:3509   */\n      swap1\n      pop\n        /* \"#utility.yul\":3346:3515   */\n      swap3\n      swap2\n      pop\n      pop\n      jump\t// out\n        /* \"#utility.yul\":3521:3706   */\n    tag_49:\n        /* \"#utility.yul\":3561:3562   */\n      0x00\n        /* \"#utility.yul\":3578:3598   */\n      tag_104\n        /* \"#utility.yul\":3596:3597   */\n      dup3\n        /* \"#utility.yul\":3578:3598   */\n      tag_91\n      jump\t// in\n    tag_104:\n        /* \"#utility.yul\":3573:3598   */\n      swap2\n      pop\n        /* \"#utility.yul\":3612:3632   */\n      tag_105\n        /* \"#utility.yul\":3630:3631   */\n      dup4\n        /* \"#utility.yul\":3612:3632   */\n      tag_91\n      jump\t// in\n    tag_105:\n        /* \"#utility.yul\":3607:3632   */\n      swap3\n      pop\n        /* \"#utility.yul\":3651:3652   */\n      dup3\n        /* \"#utility.yul\":3641:3676   */\n      tag_106\n      jumpi\n        /* \"#utility.yul\":3656:3674   */\n      tag_107\n      tag_108\n      jump\t// in\n    tag_107:\n        /* \"#utility.yul\":3641:3676   */\n    tag_106:\n        /* \"#utility.yul\":3698:3699   */\n      dup3\n        /* \"#utility.yul\":3695:3696   */\n      dup3\n        /* \"#utility.yul\":3691:3700   */\n      div\n        /* \"#utility.yul\":3686:3700   */\n      swap1\n      pop\n        /* \"#utility.yul\":3521:3706   */\n      swap3\n      swap2\n      pop\n      pop\n      jump\t// out\n        /* \"#utility.yul\":3712:4060   */\n    tag_51:\n        /* \"#utility.yul\":3752:3759   */\n      0x00\n        /* \"#utility.yul\":3775:3795   */\n      tag_110\n        /* \"#utility.yul\":3793:3794   */\n      dup3\n        /* \"#utility.yul\":3775:3795   */\n      tag_91\n      jump\t// in\n    tag_110:\n        /* \"#utility.yul\":3770:3795   */\n      swap2\n      pop\n        /* \"#utility.yul\":3809:3829   */\n      tag_111\n        /* \"#utility.yul\":3827:3828   */\n      dup4\n        /* \"#utility.yul\":3809:3829   */\n      tag_91\n      jump\t// in\n    tag_111:\n        /* \"#utility.yul\":3804:3829   */\n      swap3\n      pop\n        /* \"#utility.yul\":3997:3998   */\n      dup2\n        /* \"#utility.yul\":3929:3995   */\n      0xffffffffffffffffffffffffffffffffffffffffffffffffffffffffffffffff\n        /* \"#utility.yul\":3925:3999   */\n      div\n        /* \"#utility.yul\":3922:3923   */\n      dup4\n        /* \"#utility.yul\":3919:4000   */\n      gt\n        /* \"#utility.yul\":3914:3915   */\n      dup3\n        /* \"#utility.yul\":3907:3916   */\n      iszero\n        /* \"#utility.yul\":3900:3917   */\n      iszero\n        /* \"#utility.yul\":3896:4001   */\n      and\n        /* \"#utility.yul\":3893:4024   */\n      iszero\n      tag_112\n      jumpi\n        /* \"#utility.yul\":4004:4022   */\n      tag_113\n      tag_114\n      jump\t// in\n    tag_113:\n        /* \"#utility.yul\":3893:4024   */\n    tag_112:\n        /* \"#utility.yul\":4052:4053   */\n      dup3\n        /* \"#utility.yul\":4049:4050   */\n      dup3\n        /* \"#utility.yul\":4045:4054   */\n      mul\n        /* \"#utility.yul\":4034:4054   */\n      swap1\n      pop\n        /* \"#utility.yul\":3712:4060   */\n      swap3\n      swap2\n      pop\n      pop\n      jump\t// out\n        /* \"#utility.yul\":4066:4162   */\n    tag_76:\n        /* \"#utility.yul\":4103:4110   */\n      0x00\n        /* \"#utility.yul\":4132:4156   */\n      tag_116\n        /* \"#utility.yul\":4150:4155   */\n      dup3\n        /* \"#utility.yul\":4132:4156   */\n      tag_117\n      jump\t// in\n    tag_116:\n        /* \"#utility.yul\":4121:4156   */\n      swap1\n      pop\n        /* \"#utility.yul\":4066:4162   */\n      swap2\n      swap1\n      pop\n      jump\t// out\n        /* \"#utility.yul\":4168:4294   */\n    tag_117:\n        /* \"#utility.yul\":4205:4212   */\n      0x00\n        /* \"#utility.yul\":4245:4287   */\n      0xffffffffffffffffffffffffffffffffffffffff\n        /* \"#utility.yul\":4238:4243   */\n      dup3\n        /* \"#utility.yul\":4234:4288   */\n      and\n        /* \"#utility.yul\":4223:4288   */\n      swap1\n      pop\n        /* \"#utility.yul\":4168:4294   */\n      swap2\n      swap1\n      pop\n      jump\t// out\n        /* \"#utility.yul\":4300:4377   */\n    tag_91:\n        /* \"#utility.yul\":4337:4344   */\n      0x00\n        /* \"#utility.yul\":4366:4371   */\n      dup2\n        /* \"#utility.yul\":4355:4371   */\n      swap1\n      pop\n        /* \"#utility.yul\":4300:4377   */\n      swap2\n      swap1\n      pop\n      jump\t// out\n        /* \"#utility.yul\":4383:4563   */\n    tag_114:\n        /* \"#utility.yul\":4431:4508   */\n      0x4e487b7100000000000000000000000000000000000000000000000000000000\n        /* \"#utility.yul\":4428:4429   */\n      0x00\n        /* \"#utility.yul\":4421:4509   */\n      mstore\n        /* \"#utility.yul\":4528:4532   */\n      0x11\n        /* \"#utility.yul\":4525:4526   */\n      0x04\n        /* \"#utility.yul\":4518:4533   */\n      mstore\n        /* \"#utility.yul\":4552:4556   */\n      0x24\n        /* \"#utility.yul\":4549:4550   */\n      0x00\n        /* \"#utility.yul\":4542:4557   */\n      revert\n        /* \"#utility.yul\":4569:4749   */\n    tag_108:\n        /* \"#utility.yul\":4617:4694   */\n      0x4e487b7100000000000000000000000000000000000000000000000000000000\n        /* \"#utility.yul\":4614:4615   */\n      0x00\n        /* \"#utility.yul\":4607:4695   */\n      mstore\n        /* \"#utility.yul\":4714:4718   */\n      0x12\n        /* \"#utility.yul\":4711:4712   */\n      0x04\n        /* \"#utility.yul\":4704:4719   */\n      mstore\n        /* \"#utility.yul\":4738:4742   */\n      0x24\n        /* \"#utility.yul\":4735:4736   */\n      0x00\n        /* \"#utility.yul\":4728:4743   */\n      revert\n        /* \"#utility.yul\":4878:4995   */\n    tag_67:\n        /* \"#utility.yul\":4987:4988   */\n      0x00\n        /* \"#utility.yul\":4984:4985   */\n      dup1\n        /* \"#utility.yul\":4977:4989   */\n      revert\n        /* \"#utility.yul\":5001:5170   */\n    tag_82:\n        /* \"#utility.yul\":5141:5162   */\n      0x43616c6c6572206973206e6f74206f776e657200000000000000000000000000\n        /* \"#utility.yul\":5137:5138   */\n      0x00\n        /* \"#utility.yul\":5129:5135   */\n      dup3\n        /* \"#utility.yul\":5125:5139   */\n      add\n        /* \"#utility.yul\":5118:5163   */\n      mstore\n        /* \"#utility.yul\":5001:5170   */\n      pop\n      jump\t// out\n        /* \"#utility.yul\":5176:5342   */\n    tag_87:\n        /* \"#utility.yul\":5316:5334   */\n      0x496e636f727265637420616d6f756e7400000000000000000000000000000000\n        /* \"#utility.yul\":5312:5313   */\n      0x00\n        /* \"#utility.yul\":5304:5310   */\n      dup3\n        /* \"#utility.yul\":5300:5314   */\n      add\n        /* \"#utility.yul\":5293:5335   */\n      mstore\n        /* \"#utility.yul\":5176:5342   */\n      pop\n      jump\t// out\n        /* \"#utility.yul\":5348:5470   */\n    tag_59:\n        /* \"#utility.yul\":5421:5445   */\n      tag_128\n        /* \"#utility.yul\":5439:5444   */\n      dup2\n        /* \"#utility.yul\":5421:5445   */\n      tag_76\n      jump\t// in\n    tag_128:\n        /* \"#utility.yul\":5414:5419   */\n      dup2\n        /* \"#utility.yul\":5411:5446   */\n      eq\n        /* \"#utility.yul\":5401:5464   */\n      tag_129\n      jumpi\n        /* \"#utility.yul\":5460:5461   */\n      0x00\n        /* \"#utility.yul\":5457:5458   */\n      dup1\n        /* \"#utility.yul\":5450:5462   */\n      revert\n        /* \"#utility.yul\":5401:5464   */\n    tag_129:\n        /* \"#utility.yul\":5348:5470   */\n      pop\n      jump\t// out\n        /* \"#utility.yul\":5476:5598   */\n    tag_63:\n        /* \"#utility.yul\":5549:5573   */\n      tag_131\n        /* \"#utility.yul\":5567:5572   */\n      dup2\n        /* \"#utility.yul\":5549:5573   */\n      tag_91\n      jump\t// in\n    tag_131:\n        /* \"#utility.yul\":5542:5547   */\n      dup2\n        /* \"#utility.yul\":5539:5574   */\n      eq\n        /* \"#utility.yul\":5529:5592   */\n      tag_132\n      jumpi\n        /* \"#utility.yul\":5588:5589   */\n      0x00\n        /* \"#utility.yul\":5585:5586   */\n      dup1\n        /* \"#utility.yul\":5578:5590   */\n      revert\n        /* \"#utility.yul\":5529:5592   */\n    tag_132:\n        /* \"#utility.yul\":5476:5598   */\n      pop\n      jump\t// out\n\n    auxdata: 0xa26469706673582212204b1287fe19ab1dbbb185e16c599347770b127cfec7e5d1b2083984adcfdc060464736f6c63430008070033\n}\n",
				"bytecode": {
					"linkReferences": {},
					"object": "6080604052600560015534801561001557600080fd5b50336000806101000a81548173ffffffffffffffffffffffffffffffffffffffff021916908373ffffffffffffffffffffffffffffffffffffffff16021790555060008054906101000a900473ffffffffffffffffffffffffffffffffffffffff1673ffffffffffffffffffffffffffffffffffffffff16600073ffffffffffffffffffffffffffffffffffffffff167f342827c97908e5e2f71151c08502a66d44b6f758e3ac2f1de95f02eb95f0a73560405160405180910390a361083f806100e06000396000f3fe6080604052600436106100435760003560e01c806312065fe01461004c578063893d20e814610077578063a6f9dae1146100a2578063b6b55f25146100cb5761004a565b3661004a57005b005b34801561005857600080fd5b506100616100e7565b60405161006e9190610633565b60405180910390f35b34801561008357600080fd5b5061008c61017e565b60405161009991906105d8565b60405180910390f35b3480156100ae57600080fd5b506100c960048036038101906100c4919061051a565b610235565b005b6100e560048036038101906100e09190610547565b610380565b005b60008060009054906101000a900473ffffffffffffffffffffffffffffffffffffffff1673ffffffffffffffffffffffffffffffffffffffff163373ffffffffffffffffffffffffffffffffffffffff1614610178576040517f08c379a000000000000000000000000000000000000000000000000000000000815260040161016f906105f3565b60405180910390fd5b47905090565b60008060009054906101000a900473ffffffffffffffffffffffffffffffffffffffff1673ffffffffffffffffffffffffffffffffffffffff163373ffffffffffffffffffffffffffffffffffffffff161461020f576040517f08c379a0000000000000000000000000000000000000000000000000000000008152600401610206906105f3565b60405180910390fd5b60008054906101000a900473ffffffffffffffffffffffffffffffffffffffff16905090565b60008054906101000a900473ffffffffffffffffffffffffffffffffffffffff1673ffffffffffffffffffffffffffffffffffffffff163373ffffffffffffffffffffffffffffffffffffffff16146102c3576040517f08c379a00000000000000000000000000000000000000000000000000000000081526004016102ba906105f3565b60405180910390fd5b8073ffffffffffffffffffffffffffffffffffffffff1660008054906101000a900473ffffffffffffffffffffffffffffffffffffffff1673ffffffffffffffffffffffffffffffffffffffff167f342827c97908e5e2f71151c08502a66d44b6f758e3ac2f1de95f02eb95f0a73560405160405180910390a3806000806101000a81548173ffffffffffffffffffffffffffffffffffffffff021916908373ffffffffffffffffffffffffffffffffffffffff16021790555050565b8034146103c2576040517f08c379a00000000000000000000000000000000000000000000000000000000081526004016103b990610613565b60405180910390fd5b7fc7f729b0170cbe78f93de887af2b609dbb017055b4e4e141cd8d7acd79dd8a75816040516103f19190610633565b60405180910390a1600060015460648361040b919061065f565b6104159190610690565b905060008054906101000a900473ffffffffffffffffffffffffffffffffffffffff1673ffffffffffffffffffffffffffffffffffffffff166108fc829081150290604051600060405180830381858888f1935050505015801561047d573d6000803e3d6000fd5b5060008054906101000a900473ffffffffffffffffffffffffffffffffffffffff1673ffffffffffffffffffffffffffffffffffffffff167f0edba6af8a008df8d478c27771852395d0146033aa0f15af26991be42d994f15826040516104e49190610633565b60405180910390a25050565b6000813590506104ff816107db565b92915050565b600081359050610514816107f2565b92915050565b6000602082840312156105305761052f610784565b5b600061053e848285016104f0565b91505092915050565b60006020828403121561055d5761055c610784565b5b600061056b84828501610505565b91505092915050565b61057d816106ea565b82525050565b600061059060138361064e565b915061059b82610789565b602082019050919050565b60006105b360108361064e565b91506105be826107b2565b602082019050919050565b6105d28161071c565b82525050565b60006020820190506105ed6000830184610574565b92915050565b6000602082019050818103600083015261060c81610583565b9050919050565b6000602082019050818103600083015261062c816105a6565b9050919050565b600060208201905061064860008301846105c9565b92915050565b600082825260208201905092915050565b600061066a8261071c565b91506106758361071c565b92508261068557610684610755565b5b828204905092915050565b600061069b8261071c565b91506106a68361071c565b9250817fffffffffffffffffffffffffffffffffffffffffffffffffffffffffffffffff04831182151516156106df576106de610726565b5b828202905092915050565b60006106f5826106fc565b9050919050565b600073ffffffffffffffffffffffffffffffffffffffff82169050919050565b6000819050919050565b7f4e487b7100000000000000000000000000000000000000000000000000000000600052601160045260246000fd5b7f4e487b7100000000000000000000000000000000000000000000000000000000600052601260045260246000fd5b600080fd5b7f43616c6c6572206973206e6f74206f776e657200000000000000000000000000600082015250565b7f496e636f727265637420616d6f756e7400000000000000000000000000000000600082015250565b6107e4816106ea565b81146107ef57600080fd5b50565b6107fb8161071c565b811461080657600080fd5b5056fea26469706673582212204b1287fe19ab1dbbb185e16c599347770b127cfec7e5d1b2083984adcfdc060464736f6c63430008070033",
					"opcodes": "PUSH1 0x80 PUSH1 0x40 MSTORE PUSH1 0x5 PUSH1 0x1 SSTORE CALLVALUE DUP1 ISZERO PUSH2 0x15 JUMPI PUSH1 0x0 DUP1 REVERT JUMPDEST POP CALLER PUSH1 0x0 DUP1 PUSH2 0x100 EXP DUP2 SLOAD DUP2 PUSH20 0xFFFFFFFFFFFFFFFFFFFFFFFFFFFFFFFFFFFFFFFF MUL NOT AND SWAP1 DUP4 PUSH20 0xFFFFFFFFFFFFFFFFFFFFFFFFFFFFFFFFFFFFFFFF AND MUL OR SWAP1 SSTORE POP PUSH1 0x0 DUP1 SLOAD SWAP1 PUSH2 0x100 EXP SWAP1 DIV PUSH20 0xFFFFFFFFFFFFFFFFFFFFFFFFFFFFFFFFFFFFFFFF AND PUSH20 0xFFFFFFFFFFFFFFFFFFFFFFFFFFFFFFFFFFFFFFFF AND PUSH1 0x0 PUSH20 0xFFFFFFFFFFFFFFFFFFFFFFFFFFFFFFFFFFFFFFFF AND PUSH32 0x342827C97908E5E2F71151C08502A66D44B6F758E3AC2F1DE95F02EB95F0A735 PUSH1 0x40 MLOAD PUSH1 0x40 MLOAD DUP1 SWAP2 SUB SWAP1 LOG3 PUSH2 0x83F DUP1 PUSH2 0xE0 PUSH1 0x0 CODECOPY PUSH1 0x0 RETURN INVALID PUSH1 0x80 PUSH1 0x40 MSTORE PUSH1 0x4 CALLDATASIZE LT PUSH2 0x43 JUMPI PUSH1 0x0 CALLDATALOAD PUSH1 0xE0 SHR DUP1 PUSH4 0x12065FE0 EQ PUSH2 0x4C JUMPI DUP1 PUSH4 0x893D20E8 EQ PUSH2 0x77 JUMPI DUP1 PUSH4 0xA6F9DAE1 EQ PUSH2 0xA2 JUMPI DUP1 PUSH4 0xB6B55F25 EQ PUSH2 0xCB JUMPI PUSH2 0x4A JUMP JUMPDEST CALLDATASIZE PUSH2 0x4A JUMPI STOP JUMPDEST STOP JUMPDEST CALLVALUE DUP1 ISZERO PUSH2 0x58 JUMPI PUSH1 0x0 DUP1 REVERT JUMPDEST POP PUSH2 0x61 PUSH2 0xE7 JUMP JUMPDEST PUSH1 0x40 MLOAD PUSH2 0x6E SWAP2 SWAP1 PUSH2 0x633 JUMP JUMPDEST PUSH1 0x40 MLOAD DUP1 SWAP2 SUB SWAP1 RETURN JUMPDEST CALLVALUE DUP1 ISZERO PUSH2 0x83 JUMPI PUSH1 0x0 DUP1 REVERT JUMPDEST POP PUSH2 0x8C PUSH2 0x17E JUMP JUMPDEST PUSH1 0x40 MLOAD PUSH2 0x99 SWAP2 SWAP1 PUSH2 0x5D8 JUMP JUMPDEST PUSH1 0x40 MLOAD DUP1 SWAP2 SUB SWAP1 RETURN JUMPDEST CALLVALUE DUP1 ISZERO PUSH2 0xAE JUMPI PUSH1 0x0 DUP1 REVERT JUMPDEST POP PUSH2 0xC9 PUSH1 0x4 DUP1 CALLDATASIZE SUB DUP2 ADD SWAP1 PUSH2 0xC4 SWAP2 SWAP1 PUSH2 0x51A JUMP JUMPDEST PUSH2 0x235 JUMP JUMPDEST STOP JUMPDEST PUSH2 0xE5 PUSH1 0x4 DUP1 CALLDATASIZE SUB DUP2 ADD SWAP1 PUSH2 0xE0 SWAP2 SWAP1 PUSH2 0x547 JUMP JUMPDEST PUSH2 0x380 JUMP JUMPDEST STOP JUMPDEST PUSH1 0x0 DUP1 PUSH1 0x0 SWAP1 SLOAD SWAP1 PUSH2 0x100 EXP SWAP1 DIV PUSH20 0xFFFFFFFFFFFFFFFFFFFFFFFFFFFFFFFFFFFFFFFF AND PUSH20 0xFFFFFFFFFFFFFFFFFFFFFFFFFFFFFFFFFFFFFFFF AND CALLER PUSH20 0xFFFFFFFFFFFFFFFFFFFFFFFFFFFFFFFFFFFFFFFF AND EQ PUSH2 0x178 JUMPI PUSH1 0x40 MLOAD PUSH32 0x8C379A000000000000000000000000000000000000000000000000000000000 DUP2 MSTORE PUSH1 0x4 ADD PUSH2 0x16F SWAP1 PUSH2 0x5F3 JUMP JUMPDEST PUSH1 0x40 MLOAD DUP1 SWAP2 SUB SWAP1 REVERT JUMPDEST SELFBALANCE SWAP1 POP SWAP1 JUMP JUMPDEST PUSH1 0x0 DUP1 PUSH1 0x0 SWAP1 SLOAD SWAP1 PUSH2 0x100 EXP SWAP1 DIV PUSH20 0xFFFFFFFFFFFFFFFFFFFFFFFFFFFFFFFFFFFFFFFF AND PUSH20 0xFFFFFFFFFFFFFFFFFFFFFFFFFFFFFFFFFFFFFFFF AND CALLER PUSH20 0xFFFFFFFFFFFFFFFFFFFFFFFFFFFFFFFFFFFFFFFF AND EQ PUSH2 0x20F JUMPI PUSH1 0x40 MLOAD PUSH32 0x8C379A000000000000000000000000000000000000000000000000000000000 DUP2 MSTORE PUSH1 0x4 ADD PUSH2 0x206 SWAP1 PUSH2 0x5F3 JUMP JUMPDEST PUSH1 0x40 MLOAD DUP1 SWAP2 SUB SWAP1 REVERT JUMPDEST PUSH1 0x0 DUP1 SLOAD SWAP1 PUSH2 0x100 EXP SWAP1 DIV PUSH20 0xFFFFFFFFFFFFFFFFFFFFFFFFFFFFFFFFFFFFFFFF AND SWAP1 POP SWAP1 JUMP JUMPDEST PUSH1 0x0 DUP1 SLOAD SWAP1 PUSH2 0x100 EXP SWAP1 DIV PUSH20 0xFFFFFFFFFFFFFFFFFFFFFFFFFFFFFFFFFFFFFFFF AND PUSH20 0xFFFFFFFFFFFFFFFFFFFFFFFFFFFFFFFFFFFFFFFF AND CALLER PUSH20 0xFFFFFFFFFFFFFFFFFFFFFFFFFFFFFFFFFFFFFFFF AND EQ PUSH2 0x2C3 JUMPI PUSH1 0x40 MLOAD PUSH32 0x8C379A000000000000000000000000000000000000000000000000000000000 DUP2 MSTORE PUSH1 0x4 ADD PUSH2 0x2BA SWAP1 PUSH2 0x5F3 JUMP JUMPDEST PUSH1 0x40 MLOAD DUP1 SWAP2 SUB SWAP1 REVERT JUMPDEST DUP1 PUSH20 0xFFFFFFFFFFFFFFFFFFFFFFFFFFFFFFFFFFFFFFFF AND PUSH1 0x0 DUP1 SLOAD SWAP1 PUSH2 0x100 EXP SWAP1 DIV PUSH20 0xFFFFFFFFFFFFFFFFFFFFFFFFFFFFFFFFFFFFFFFF AND PUSH20 0xFFFFFFFFFFFFFFFFFFFFFFFFFFFFFFFFFFFFFFFF AND PUSH32 0x342827C97908E5E2F71151C08502A66D44B6F758E3AC2F1DE95F02EB95F0A735 PUSH1 0x40 MLOAD PUSH1 0x40 MLOAD DUP1 SWAP2 SUB SWAP1 LOG3 DUP1 PUSH1 0x0 DUP1 PUSH2 0x100 EXP DUP2 SLOAD DUP2 PUSH20 0xFFFFFFFFFFFFFFFFFFFFFFFFFFFFFFFFFFFFFFFF MUL NOT AND SWAP1 DUP4 PUSH20 0xFFFFFFFFFFFFFFFFFFFFFFFFFFFFFFFFFFFFFFFF AND MUL OR SWAP1 SSTORE POP POP JUMP JUMPDEST DUP1 CALLVALUE EQ PUSH2 0x3C2 JUMPI PUSH1 0x40 MLOAD PUSH32 0x8C379A000000000000000000000000000000000000000000000000000000000 DUP2 MSTORE PUSH1 0x4 ADD PUSH2 0x3B9 SWAP1 PUSH2 0x613 JUMP JUMPDEST PUSH1 0x40 MLOAD DUP1 SWAP2 SUB SWAP1 REVERT JUMPDEST PUSH32 0xC7F729B0170CBE78F93DE887AF2B609DBB017055B4E4E141CD8D7ACD79DD8A75 DUP2 PUSH1 0x40 MLOAD PUSH2 0x3F1 SWAP2 SWAP1 PUSH2 0x633 JUMP JUMPDEST PUSH1 0x40 MLOAD DUP1 SWAP2 SUB SWAP1 LOG1 PUSH1 0x0 PUSH1 0x1 SLOAD PUSH1 0x64 DUP4 PUSH2 0x40B SWAP2 SWAP1 PUSH2 0x65F JUMP JUMPDEST PUSH2 0x415 SWAP2 SWAP1 PUSH2 0x690 JUMP JUMPDEST SWAP1 POP PUSH1 0x0 DUP1 SLOAD SWAP1 PUSH2 0x100 EXP SWAP1 DIV PUSH20 0xFFFFFFFFFFFFFFFFFFFFFFFFFFFFFFFFFFFFFFFF AND PUSH20 0xFFFFFFFFFFFFFFFFFFFFFFFFFFFFFFFFFFFFFFFF AND PUSH2 0x8FC DUP3 SWAP1 DUP2 ISZERO MUL SWAP1 PUSH1 0x40 MLOAD PUSH1 0x0 PUSH1 0x40 MLOAD DUP1 DUP4 SUB DUP2 DUP6 DUP9 DUP9 CALL SWAP4 POP POP POP POP ISZERO DUP1 ISZERO PUSH2 0x47D JUMPI RETURNDATASIZE PUSH1 0x0 DUP1 RETURNDATACOPY RETURNDATASIZE PUSH1 0x0 REVERT JUMPDEST POP PUSH1 0x0 DUP1 SLOAD SWAP1 PUSH2 0x100 EXP SWAP1 DIV PUSH20 0xFFFFFFFFFFFFFFFFFFFFFFFFFFFFFFFFFFFFFFFF AND PUSH20 0xFFFFFFFFFFFFFFFFFFFFFFFFFFFFFFFFFFFFFFFF AND PUSH32 0xEDBA6AF8A008DF8D478C27771852395D0146033AA0F15AF26991BE42D994F15 DUP3 PUSH1 0x40 MLOAD PUSH2 0x4E4 SWAP2 SWAP1 PUSH2 0x633 JUMP JUMPDEST PUSH1 0x40 MLOAD DUP1 SWAP2 SUB SWAP1 LOG2 POP POP JUMP JUMPDEST PUSH1 0x0 DUP2 CALLDATALOAD SWAP1 POP PUSH2 0x4FF DUP2 PUSH2 0x7DB JUMP JUMPDEST SWAP3 SWAP2 POP POP JUMP JUMPDEST PUSH1 0x0 DUP2 CALLDATALOAD SWAP1 POP PUSH2 0x514 DUP2 PUSH2 0x7F2 JUMP JUMPDEST SWAP3 SWAP2 POP POP JUMP JUMPDEST PUSH1 0x0 PUSH1 0x20 DUP3 DUP5 SUB SLT ISZERO PUSH2 0x530 JUMPI PUSH2 0x52F PUSH2 0x784 JUMP JUMPDEST JUMPDEST PUSH1 0x0 PUSH2 0x53E DUP5 DUP3 DUP6 ADD PUSH2 0x4F0 JUMP JUMPDEST SWAP2 POP POP SWAP3 SWAP2 POP POP JUMP JUMPDEST PUSH1 0x0 PUSH1 0x20 DUP3 DUP5 SUB SLT ISZERO PUSH2 0x55D JUMPI PUSH2 0x55C PUSH2 0x784 JUMP JUMPDEST JUMPDEST PUSH1 0x0 PUSH2 0x56B DUP5 DUP3 DUP6 ADD PUSH2 0x505 JUMP JUMPDEST SWAP2 POP POP SWAP3 SWAP2 POP POP JUMP JUMPDEST PUSH2 0x57D DUP2 PUSH2 0x6EA JUMP JUMPDEST DUP3 MSTORE POP POP JUMP JUMPDEST PUSH1 0x0 PUSH2 0x590 PUSH1 0x13 DUP4 PUSH2 0x64E JUMP JUMPDEST SWAP2 POP PUSH2 0x59B DUP3 PUSH2 0x789 JUMP JUMPDEST PUSH1 0x20 DUP3 ADD SWAP1 POP SWAP2 SWAP1 POP JUMP JUMPDEST PUSH1 0x0 PUSH2 0x5B3 PUSH1 0x10 DUP4 PUSH2 0x64E JUMP JUMPDEST SWAP2 POP PUSH2 0x5BE DUP3 PUSH2 0x7B2 JUMP JUMPDEST PUSH1 0x20 DUP3 ADD SWAP1 POP SWAP2 SWAP1 POP JUMP JUMPDEST PUSH2 0x5D2 DUP2 PUSH2 0x71C JUMP JUMPDEST DUP3 MSTORE POP POP JUMP JUMPDEST PUSH1 0x0 PUSH1 0x20 DUP3 ADD SWAP1 POP PUSH2 0x5ED PUSH1 0x0 DUP4 ADD DUP5 PUSH2 0x574 JUMP JUMPDEST SWAP3 SWAP2 POP POP JUMP JUMPDEST PUSH1 0x0 PUSH1 0x20 DUP3 ADD SWAP1 POP DUP2 DUP2 SUB PUSH1 0x0 DUP4 ADD MSTORE PUSH2 0x60C DUP2 PUSH2 0x583 JUMP JUMPDEST SWAP1 POP SWAP2 SWAP1 POP JUMP JUMPDEST PUSH1 0x0 PUSH1 0x20 DUP3 ADD SWAP1 POP DUP2 DUP2 SUB PUSH1 0x0 DUP4 ADD MSTORE PUSH2 0x62C DUP2 PUSH2 0x5A6 JUMP JUMPDEST SWAP1 POP SWAP2 SWAP1 POP JUMP JUMPDEST PUSH1 0x0 PUSH1 0x20 DUP3 ADD SWAP1 POP PUSH2 0x648 PUSH1 0x0 DUP4 ADD DUP5 PUSH2 0x5C9 JUMP JUMPDEST SWAP3 SWAP2 POP POP JUMP JUMPDEST PUSH1 0x0 DUP3 DUP3 MSTORE PUSH1 0x20 DUP3 ADD SWAP1 POP SWAP3 SWAP2 POP POP JUMP JUMPDEST PUSH1 0x0 PUSH2 0x66A DUP3 PUSH2 0x71C JUMP JUMPDEST SWAP2 POP PUSH2 0x675 DUP4 PUSH2 0x71C JUMP JUMPDEST SWAP3 POP DUP3 PUSH2 0x685 JUMPI PUSH2 0x684 PUSH2 0x755 JUMP JUMPDEST JUMPDEST DUP3 DUP3 DIV SWAP1 POP SWAP3 SWAP2 POP POP JUMP JUMPDEST PUSH1 0x0 PUSH2 0x69B DUP3 PUSH2 0x71C JUMP JUMPDEST SWAP2 POP PUSH2 0x6A6 DUP4 PUSH2 0x71C JUMP JUMPDEST SWAP3 POP DUP2 PUSH32 0xFFFFFFFFFFFFFFFFFFFFFFFFFFFFFFFFFFFFFFFFFFFFFFFFFFFFFFFFFFFFFFFF DIV DUP4 GT DUP3 ISZERO ISZERO AND ISZERO PUSH2 0x6DF JUMPI PUSH2 0x6DE PUSH2 0x726 JUMP JUMPDEST JUMPDEST DUP3 DUP3 MUL SWAP1 POP SWAP3 SWAP2 POP POP JUMP JUMPDEST PUSH1 0x0 PUSH2 0x6F5 DUP3 PUSH2 0x6FC JUMP JUMPDEST SWAP1 POP SWAP2 SWAP1 POP JUMP JUMPDEST PUSH1 0x0 PUSH20 0xFFFFFFFFFFFFFFFFFFFFFFFFFFFFFFFFFFFFFFFF DUP3 AND SWAP1 POP SWAP2 SWAP1 POP JUMP JUMPDEST PUSH1 0x0 DUP2 SWAP1 POP SWAP2 SWAP1 POP JUMP JUMPDEST PUSH32 0x4E487B7100000000000000000000000000000000000000000000000000000000 PUSH1 0x0 MSTORE PUSH1 0x11 PUSH1 0x4 MSTORE PUSH1 0x24 PUSH1 0x0 REVERT JUMPDEST PUSH32 0x4E487B7100000000000000000000000000000000000000000000000000000000 PUSH1 0x0 MSTORE PUSH1 0x12 PUSH1 0x4 MSTORE PUSH1 0x24 PUSH1 0x0 REVERT JUMPDEST PUSH1 0x0 DUP1 REVERT JUMPDEST PUSH32 0x43616C6C6572206973206E6F74206F776E657200000000000000000000000000 PUSH1 0x0 DUP3 ADD MSTORE POP JUMP JUMPDEST PUSH32 0x496E636F727265637420616D6F756E7400000000000000000000000000000000 PUSH1 0x0 DUP3 ADD MSTORE POP JUMP JUMPDEST PUSH2 0x7E4 DUP2 PUSH2 0x6EA JUMP JUMPDEST DUP2 EQ PUSH2 0x7EF JUMPI PUSH1 0x0 DUP1 REVERT JUMPDEST POP JUMP JUMPDEST PUSH2 0x7FB DUP2 PUSH2 0x71C JUMP JUMPDEST DUP2 EQ PUSH2 0x806 JUMPI PUSH1 0x0 DUP1 REVERT JUMPDEST POP JUMP INVALID LOG2 PUSH5 0x6970667358 0x22 SLT KECCAK256 0x4B SLT DUP8 INVALID NOT 0xAB SAR 0xBB 0xB1 DUP6 0xE1 PUSH13 0x599347770B127CFEC7E5D1B208 CODECOPY DUP5 0xAD 0xCF 0xDC MOD DIV PUSH5 0x736F6C6343 STOP ADDMOD SMOD STOP CALLER "
				},
				"gasEstimates": {
					"creation": {
						"codeDepositCost": "422200",
						"executionCost": "50505",
						"totalCost": "472705"
					},
					"external": {
						"": "151",
						"changeOwner(address)": "30589",
						"deposit(uint256)": "infinite",
						"getBalance()": "2584",
						"getOwner()": "4689"
					}
				},
				"methodIdentifiers": {
					"changeOwner(address)": "a6f9dae1",
					"deposit(uint256)": "b6b55f25",
					"getBalance()": "12065fe0",
					"getOwner()": "893d20e8"
				}
			},
			"storageLayout": {
				"storage": [
					{
						"astId": 4,
						"contract": "contracts/RedTech.sol:RedTech",
						"label": "owner",
						"offset": 0,
						"slot": "0",
						"type": "t_address"
					},
					{
						"astId": 7,
						"contract": "contracts/RedTech.sol:RedTech",
						"label": "persentage",
						"offset": 0,
						"slot": "1",
						"type": "t_uint256"
					}
				],
				"types": {
					"t_address": {
						"encoding": "inplace",
						"label": "address",
						"numberOfBytes": "20"
					},
					"t_uint256": {
						"encoding": "inplace",
						"label": "uint256",
						"numberOfBytes": "32"
					}
				}
			},
			"userdoc": {
				"kind": "user",
				"methods": {},
				"version": 1
			}
		}
	}
}