{
	"contracts/RedTech.sol": {
		"RedTech": {
			"abi": [
				{
					"inputs": [],
					"stateMutability": "nonpayable",
					"type": "constructor"
				},
				{
					"anonymous": false,
					"inputs": [
						{
							"indexed": false,
							"internalType": "uint256",
							"name": "value",
							"type": "uint256"
						},
						{
							"indexed": true,
							"internalType": "address",
							"name": "toAddress",
							"type": "address"
						}
					],
					"name": "AmountTransferedTo",
					"type": "event"
				},
				{
					"anonymous": false,
					"inputs": [
						{
							"indexed": true,
							"internalType": "address",
							"name": "oldOwner",
							"type": "address"
						},
						{
							"indexed": true,
							"internalType": "address",
							"name": "newOwner",
							"type": "address"
						}
					],
					"name": "OwnerSet",
					"type": "event"
				},
				{
					"inputs": [
						{
							"internalType": "address",
							"name": "newOwner",
							"type": "address"
						}
					],
					"name": "changeOwner",
					"outputs": [],
					"stateMutability": "nonpayable",
					"type": "function"
				},
				{
					"inputs": [],
					"name": "getBalance",
					"outputs": [
						{
							"internalType": "uint256",
							"name": "",
							"type": "uint256"
						}
					],
					"stateMutability": "view",
					"type": "function"
				},
				{
					"inputs": [],
					"name": "getOwner",
					"outputs": [
						{
							"internalType": "address",
							"name": "",
							"type": "address"
						}
					],
					"stateMutability": "view",
					"type": "function"
				},
				{
					"inputs": [
						{
							"internalType": "address payable",
							"name": "toAddress",
							"type": "address"
						},
						{
							"internalType": "uint256",
							"name": "amount",
							"type": "uint256"
						}
					],
					"name": "transfer",
					"outputs": [],
					"stateMutability": "nonpayable",
					"type": "function"
				}
			],
			"devdoc": {
				"details": "Set & change owner",
				"kind": "dev",
				"methods": {
					"changeOwner(address)": {
						"details": "Change owner",
						"params": {
							"newOwner": "address of new owner"
						}
					},
					"constructor": {
						"details": "Set contract deployer as owner"
					},
					"getBalance()": {
						"details": "Return contract balance ",
						"returns": {
							"_0": "balance of contract"
						}
					},
					"getOwner()": {
						"details": "Return owner address ",
						"returns": {
							"_0": "address of owner"
						}
					},
					"transfer(address,uint256)": {
						"details": "Transfer eth ",
						"params": {
							"amount": "amount (in wei) to be transferred",
							"toAddress": "address of receiver"
						}
					}
				},
				"title": "Owner",
				"version": 1
			},
			"evm": {
				"assembly": "    /* \"contracts/RedTech.sol\":121:2075  contract RedTech {... */\n  mstore(0x40, 0x80)\n    /* \"contracts/RedTech.sol\":998:1168  constructor() {... */\n  callvalue\n  dup1\n  iszero\n  tag_1\n  jumpi\n  0x00\n  dup1\n  revert\ntag_1:\n  pop\n    /* \"contracts/RedTech.sol\":1030:1040  msg.sender */\n  caller\n    /* \"contracts/RedTech.sol\":1022:1027  owner */\n  0x00\n  dup1\n    /* \"contracts/RedTech.sol\":1022:1040  owner = msg.sender */\n  0x0100\n  exp\n  dup2\n  sload\n  dup2\n  0xffffffffffffffffffffffffffffffffffffffff\n  mul\n  not\n  and\n  swap1\n  dup4\n  0xffffffffffffffffffffffffffffffffffffffff\n  and\n  mul\n  or\n  swap1\n  sstore\n  pop\n    /* \"contracts/RedTech.sol\":1155:1160  owner */\n  0x00\n  dup1\n  sload\n  swap1\n  0x0100\n  exp\n  swap1\n  div\n  0xffffffffffffffffffffffffffffffffffffffff\n  and\n    /* \"contracts/RedTech.sol\":1134:1161  OwnerSet(address(0), owner) */\n  0xffffffffffffffffffffffffffffffffffffffff\n  and\n    /* \"contracts/RedTech.sol\":1151:1152  0 */\n  0x00\n    /* \"contracts/RedTech.sol\":1134:1161  OwnerSet(address(0), owner) */\n  0xffffffffffffffffffffffffffffffffffffffff\n  and\n  0x342827c97908e5e2f71151c08502a66d44b6f758e3ac2f1de95f02eb95f0a735\n  mload(0x40)\n  mload(0x40)\n  dup1\n  swap2\n  sub\n  swap1\n  log3\n    /* \"contracts/RedTech.sol\":121:2075  contract RedTech {... */\n  dataSize(sub_0)\n  dup1\n  dataOffset(sub_0)\n  0x00\n  codecopy\n  0x00\n  return\nstop\n\nsub_0: assembly {\n        /* \"contracts/RedTech.sol\":121:2075  contract RedTech {... */\n      mstore(0x40, 0x80)\n      callvalue\n      dup1\n      iszero\n      tag_1\n      jumpi\n      0x00\n      dup1\n      revert\n    tag_1:\n      pop\n      jumpi(tag_2, lt(calldatasize, 0x04))\n      shr(0xe0, calldataload(0x00))\n      dup1\n      0x12065fe0\n      eq\n      tag_3\n      jumpi\n      dup1\n      0x893d20e8\n      eq\n      tag_4\n      jumpi\n      dup1\n      0xa6f9dae1\n      eq\n      tag_5\n      jumpi\n      dup1\n      0xa9059cbb\n      eq\n      tag_6\n      jumpi\n    tag_2:\n      0x00\n      dup1\n      revert\n        /* \"contracts/RedTech.sol\":1650:1749  function getBalance() external view returns (uint256) {... */\n    tag_3:\n      tag_7\n      tag_8\n      jump\t// in\n    tag_7:\n      mload(0x40)\n      tag_9\n      swap2\n      swap1\n      tag_10\n      jump\t// in\n    tag_9:\n      mload(0x40)\n      dup1\n      swap2\n      sub\n      swap1\n      return\n        /* \"contracts/RedTech.sol\":1474:1555  function getOwner() external view returns (address) {... */\n    tag_4:\n      tag_11\n      tag_12\n      jump\t// in\n    tag_11:\n      mload(0x40)\n      tag_13\n      swap2\n      swap1\n      tag_14\n      jump\t// in\n    tag_13:\n      mload(0x40)\n      dup1\n      swap2\n      sub\n      swap1\n      return\n        /* \"contracts/RedTech.sol\":1259:1386  function changeOwner(address newOwner) public isOwner {... */\n    tag_5:\n      tag_15\n      0x04\n      dup1\n      calldatasize\n      sub\n      dup2\n      add\n      swap1\n      tag_16\n      swap2\n      swap1\n      tag_17\n      jump\t// in\n    tag_16:\n      tag_18\n      jump\t// in\n    tag_15:\n      stop\n        /* \"contracts/RedTech.sol\":1898:2072  function transfer(address payable toAddress, uint256 amount) public isOwner {... */\n    tag_6:\n      tag_19\n      0x04\n      dup1\n      calldatasize\n      sub\n      dup2\n      add\n      swap1\n      tag_20\n      swap2\n      swap1\n      tag_21\n      jump\t// in\n    tag_20:\n      tag_22\n      jump\t// in\n    tag_19:\n      stop\n        /* \"contracts/RedTech.sol\":1650:1749  function getBalance() external view returns (uint256) {... */\n    tag_8:\n        /* \"contracts/RedTech.sol\":1695:1702  uint256 */\n      0x00\n        /* \"contracts/RedTech.sol\":1721:1742  address(this).balance */\n      selfbalance\n        /* \"contracts/RedTech.sol\":1714:1742  return address(this).balance */\n      swap1\n      pop\n        /* \"contracts/RedTech.sol\":1650:1749  function getBalance() external view returns (uint256) {... */\n      swap1\n      jump\t// out\n        /* \"contracts/RedTech.sol\":1474:1555  function getOwner() external view returns (address) {... */\n    tag_12:\n        /* \"contracts/RedTech.sol\":1517:1524  address */\n      0x00\n        /* \"contracts/RedTech.sol\":1543:1548  owner */\n      dup1\n      0x00\n      swap1\n      sload\n      swap1\n      0x0100\n      exp\n      swap1\n      div\n      0xffffffffffffffffffffffffffffffffffffffff\n      and\n        /* \"contracts/RedTech.sol\":1536:1548  return owner */\n      swap1\n      pop\n        /* \"contracts/RedTech.sol\":1474:1555  function getOwner() external view returns (address) {... */\n      swap1\n      jump\t// out\n        /* \"contracts/RedTech.sol\":1259:1386  function changeOwner(address newOwner) public isOwner {... */\n    tag_18:\n        /* \"contracts/RedTech.sol\":882:887  owner */\n      0x00\n      dup1\n      sload\n      swap1\n      0x0100\n      exp\n      swap1\n      div\n      0xffffffffffffffffffffffffffffffffffffffff\n      and\n        /* \"contracts/RedTech.sol\":868:887  msg.sender == owner */\n      0xffffffffffffffffffffffffffffffffffffffff\n      and\n        /* \"contracts/RedTech.sol\":868:878  msg.sender */\n      caller\n        /* \"contracts/RedTech.sol\":868:887  msg.sender == owner */\n      0xffffffffffffffffffffffffffffffffffffffff\n      and\n      eq\n        /* \"contracts/RedTech.sol\":860:911  require(msg.sender == owner, \"Caller is not owner\") */\n      tag_26\n      jumpi\n      mload(0x40)\n      0x08c379a000000000000000000000000000000000000000000000000000000000\n      dup2\n      mstore\n      0x04\n      add\n      tag_27\n      swap1\n      tag_28\n      jump\t// in\n    tag_27:\n      mload(0x40)\n      dup1\n      swap2\n      sub\n      swap1\n      revert\n    tag_26:\n        /* \"contracts/RedTech.sol\":1344:1352  newOwner */\n      dup1\n        /* \"contracts/RedTech.sol\":1328:1353  OwnerSet(owner, newOwner) */\n      0xffffffffffffffffffffffffffffffffffffffff\n      and\n        /* \"contracts/RedTech.sol\":1337:1342  owner */\n      0x00\n      dup1\n      sload\n      swap1\n      0x0100\n      exp\n      swap1\n      div\n      0xffffffffffffffffffffffffffffffffffffffff\n      and\n        /* \"contracts/RedTech.sol\":1328:1353  OwnerSet(owner, newOwner) */\n      0xffffffffffffffffffffffffffffffffffffffff\n      and\n      0x342827c97908e5e2f71151c08502a66d44b6f758e3ac2f1de95f02eb95f0a735\n      mload(0x40)\n      mload(0x40)\n      dup1\n      swap2\n      sub\n      swap1\n      log3\n        /* \"contracts/RedTech.sol\":1371:1379  newOwner */\n      dup1\n        /* \"contracts/RedTech.sol\":1363:1368  owner */\n      0x00\n      dup1\n        /* \"contracts/RedTech.sol\":1363:1379  owner = newOwner */\n      0x0100\n      exp\n      dup2\n      sload\n      dup2\n      0xffffffffffffffffffffffffffffffffffffffff\n      mul\n      not\n      and\n      swap1\n      dup4\n      0xffffffffffffffffffffffffffffffffffffffff\n      and\n      mul\n      or\n      swap1\n      sstore\n      pop\n        /* \"contracts/RedTech.sol\":1259:1386  function changeOwner(address newOwner) public isOwner {... */\n      pop\n      jump\t// out\n        /* \"contracts/RedTech.sol\":1898:2072  function transfer(address payable toAddress, uint256 amount) public isOwner {... */\n    tag_22:\n        /* \"contracts/RedTech.sol\":882:887  owner */\n      0x00\n      dup1\n      sload\n      swap1\n      0x0100\n      exp\n      swap1\n      div\n      0xffffffffffffffffffffffffffffffffffffffff\n      and\n        /* \"contracts/RedTech.sol\":868:887  msg.sender == owner */\n      0xffffffffffffffffffffffffffffffffffffffff\n      and\n        /* \"contracts/RedTech.sol\":868:878  msg.sender */\n      caller\n        /* \"contracts/RedTech.sol\":868:887  msg.sender == owner */\n      0xffffffffffffffffffffffffffffffffffffffff\n      and\n      eq\n        /* \"contracts/RedTech.sol\":860:911  require(msg.sender == owner, \"Caller is not owner\") */\n      tag_31\n      jumpi\n      mload(0x40)\n      0x08c379a000000000000000000000000000000000000000000000000000000000\n      dup2\n      mstore\n      0x04\n      add\n      tag_32\n      swap1\n      tag_28\n      jump\t// in\n    tag_32:\n      mload(0x40)\n      dup1\n      swap2\n      sub\n      swap1\n      revert\n    tag_31:\n        /* \"contracts/RedTech.sol\":2017:2026  toAddress */\n      dup2\n        /* \"contracts/RedTech.sol\":1990:2027  AmountTransferedTo(amount, toAddress) */\n      0xffffffffffffffffffffffffffffffffffffffff\n      and\n      0x0edba6af8a008df8d478c27771852395d0146033aa0f15af26991be42d994f15\n        /* \"contracts/RedTech.sol\":2009:2015  amount */\n      dup3\n        /* \"contracts/RedTech.sol\":1990:2027  AmountTransferedTo(amount, toAddress) */\n      mload(0x40)\n      tag_34\n      swap2\n      swap1\n      tag_10\n      jump\t// in\n    tag_34:\n      mload(0x40)\n      dup1\n      swap2\n      sub\n      swap1\n      log2\n        /* \"contracts/RedTech.sol\":2038:2047  toAddress */\n      dup2\n        /* \"contracts/RedTech.sol\":2038:2056  toAddress.transfer */\n      0xffffffffffffffffffffffffffffffffffffffff\n      and\n        /* \"contracts/RedTech.sol\":2038:2064  toAddress.transfer(amount) */\n      0x08fc\n        /* \"contracts/RedTech.sol\":2057:2063  amount */\n      dup3\n        /* \"contracts/RedTech.sol\":2038:2064  toAddress.transfer(amount) */\n      swap1\n      dup2\n      iszero\n      mul\n      swap1\n      mload(0x40)\n      0x00\n      mload(0x40)\n      dup1\n      dup4\n      sub\n      dup2\n      dup6\n      dup9\n      dup9\n      call\n      swap4\n      pop\n      pop\n      pop\n      pop\n      iszero\n      dup1\n      iszero\n      tag_36\n      jumpi\n      returndatasize\n      0x00\n      dup1\n      returndatacopy\n      revert(0x00, returndatasize)\n    tag_36:\n      pop\n        /* \"contracts/RedTech.sol\":1898:2072  function transfer(address payable toAddress, uint256 amount) public isOwner {... */\n      pop\n      pop\n      jump\t// out\n        /* \"#utility.yul\":7:146   */\n    tag_38:\n        /* \"#utility.yul\":53:58   */\n      0x00\n        /* \"#utility.yul\":91:97   */\n      dup2\n        /* \"#utility.yul\":78:98   */\n      calldataload\n        /* \"#utility.yul\":69:98   */\n      swap1\n      pop\n        /* \"#utility.yul\":107:140   */\n      tag_40\n        /* \"#utility.yul\":134:139   */\n      dup2\n        /* \"#utility.yul\":107:140   */\n      tag_41\n      jump\t// in\n    tag_40:\n        /* \"#utility.yul\":7:146   */\n      swap3\n      swap2\n      pop\n      pop\n      jump\t// out\n        /* \"#utility.yul\":152:307   */\n    tag_42:\n        /* \"#utility.yul\":206:211   */\n      0x00\n        /* \"#utility.yul\":244:250   */\n      dup2\n        /* \"#utility.yul\":231:251   */\n      calldataload\n        /* \"#utility.yul\":222:251   */\n      swap1\n      pop\n        /* \"#utility.yul\":260:301   */\n      tag_44\n        /* \"#utility.yul\":295:300   */\n      dup2\n        /* \"#utility.yul\":260:301   */\n      tag_45\n      jump\t// in\n    tag_44:\n        /* \"#utility.yul\":152:307   */\n      swap3\n      swap2\n      pop\n      pop\n      jump\t// out\n        /* \"#utility.yul\":313:452   */\n    tag_46:\n        /* \"#utility.yul\":359:364   */\n      0x00\n        /* \"#utility.yul\":397:403   */\n      dup2\n        /* \"#utility.yul\":384:404   */\n      calldataload\n        /* \"#utility.yul\":375:404   */\n      swap1\n      pop\n        /* \"#utility.yul\":413:446   */\n      tag_48\n        /* \"#utility.yul\":440:445   */\n      dup2\n        /* \"#utility.yul\":413:446   */\n      tag_49\n      jump\t// in\n    tag_48:\n        /* \"#utility.yul\":313:452   */\n      swap3\n      swap2\n      pop\n      pop\n      jump\t// out\n        /* \"#utility.yul\":458:787   */\n    tag_17:\n        /* \"#utility.yul\":517:523   */\n      0x00\n        /* \"#utility.yul\":566:568   */\n      0x20\n        /* \"#utility.yul\":554:563   */\n      dup3\n        /* \"#utility.yul\":545:552   */\n      dup5\n        /* \"#utility.yul\":541:564   */\n      sub\n        /* \"#utility.yul\":537:569   */\n      slt\n        /* \"#utility.yul\":534:653   */\n      iszero\n      tag_51\n      jumpi\n        /* \"#utility.yul\":572:651   */\n      tag_52\n      tag_53\n      jump\t// in\n    tag_52:\n        /* \"#utility.yul\":534:653   */\n    tag_51:\n        /* \"#utility.yul\":692:693   */\n      0x00\n        /* \"#utility.yul\":717:770   */\n      tag_54\n        /* \"#utility.yul\":762:769   */\n      dup5\n        /* \"#utility.yul\":753:759   */\n      dup3\n        /* \"#utility.yul\":742:751   */\n      dup6\n        /* \"#utility.yul\":738:760   */\n      add\n        /* \"#utility.yul\":717:770   */\n      tag_38\n      jump\t// in\n    tag_54:\n        /* \"#utility.yul\":707:770   */\n      swap2\n      pop\n        /* \"#utility.yul\":663:780   */\n      pop\n        /* \"#utility.yul\":458:787   */\n      swap3\n      swap2\n      pop\n      pop\n      jump\t// out\n        /* \"#utility.yul\":793:1283   */\n    tag_21:\n        /* \"#utility.yul\":869:875   */\n      0x00\n        /* \"#utility.yul\":877:883   */\n      dup1\n        /* \"#utility.yul\":926:928   */\n      0x40\n        /* \"#utility.yul\":914:923   */\n      dup4\n        /* \"#utility.yul\":905:912   */\n      dup6\n        /* \"#utility.yul\":901:924   */\n      sub\n        /* \"#utility.yul\":897:929   */\n      slt\n        /* \"#utility.yul\":894:1013   */\n      iszero\n      tag_56\n      jumpi\n        /* \"#utility.yul\":932:1011   */\n      tag_57\n      tag_53\n      jump\t// in\n    tag_57:\n        /* \"#utility.yul\":894:1013   */\n    tag_56:\n        /* \"#utility.yul\":1052:1053   */\n      0x00\n        /* \"#utility.yul\":1077:1138   */\n      tag_58\n        /* \"#utility.yul\":1130:1137   */\n      dup6\n        /* \"#utility.yul\":1121:1127   */\n      dup3\n        /* \"#utility.yul\":1110:1119   */\n      dup7\n        /* \"#utility.yul\":1106:1128   */\n      add\n        /* \"#utility.yul\":1077:1138   */\n      tag_42\n      jump\t// in\n    tag_58:\n        /* \"#utility.yul\":1067:1138   */\n      swap3\n      pop\n        /* \"#utility.yul\":1023:1148   */\n      pop\n        /* \"#utility.yul\":1187:1189   */\n      0x20\n        /* \"#utility.yul\":1213:1266   */\n      tag_59\n        /* \"#utility.yul\":1258:1265   */\n      dup6\n        /* \"#utility.yul\":1249:1255   */\n      dup3\n        /* \"#utility.yul\":1238:1247   */\n      dup7\n        /* \"#utility.yul\":1234:1256   */\n      add\n        /* \"#utility.yul\":1213:1266   */\n      tag_46\n      jump\t// in\n    tag_59:\n        /* \"#utility.yul\":1203:1266   */\n      swap2\n      pop\n        /* \"#utility.yul\":1158:1276   */\n      pop\n        /* \"#utility.yul\":793:1283   */\n      swap3\n      pop\n      swap3\n      swap1\n      pop\n      jump\t// out\n        /* \"#utility.yul\":1289:1407   */\n    tag_60:\n        /* \"#utility.yul\":1376:1400   */\n      tag_62\n        /* \"#utility.yul\":1394:1399   */\n      dup2\n        /* \"#utility.yul\":1376:1400   */\n      tag_63\n      jump\t// in\n    tag_62:\n        /* \"#utility.yul\":1371:1374   */\n      dup3\n        /* \"#utility.yul\":1364:1401   */\n      mstore\n        /* \"#utility.yul\":1289:1407   */\n      pop\n      pop\n      jump\t// out\n        /* \"#utility.yul\":1413:1779   */\n    tag_64:\n        /* \"#utility.yul\":1555:1558   */\n      0x00\n        /* \"#utility.yul\":1576:1643   */\n      tag_66\n        /* \"#utility.yul\":1640:1642   */\n      0x13\n        /* \"#utility.yul\":1635:1638   */\n      dup4\n        /* \"#utility.yul\":1576:1643   */\n      tag_67\n      jump\t// in\n    tag_66:\n        /* \"#utility.yul\":1569:1643   */\n      swap2\n      pop\n        /* \"#utility.yul\":1652:1745   */\n      tag_68\n        /* \"#utility.yul\":1741:1744   */\n      dup3\n        /* \"#utility.yul\":1652:1745   */\n      tag_69\n      jump\t// in\n    tag_68:\n        /* \"#utility.yul\":1770:1772   */\n      0x20\n        /* \"#utility.yul\":1765:1768   */\n      dup3\n        /* \"#utility.yul\":1761:1773   */\n      add\n        /* \"#utility.yul\":1754:1773   */\n      swap1\n      pop\n        /* \"#utility.yul\":1413:1779   */\n      swap2\n      swap1\n      pop\n      jump\t// out\n        /* \"#utility.yul\":1785:1903   */\n    tag_70:\n        /* \"#utility.yul\":1872:1896   */\n      tag_72\n        /* \"#utility.yul\":1890:1895   */\n      dup2\n        /* \"#utility.yul\":1872:1896   */\n      tag_73\n      jump\t// in\n    tag_72:\n        /* \"#utility.yul\":1867:1870   */\n      dup3\n        /* \"#utility.yul\":1860:1897   */\n      mstore\n        /* \"#utility.yul\":1785:1903   */\n      pop\n      pop\n      jump\t// out\n        /* \"#utility.yul\":1909:2131   */\n    tag_14:\n        /* \"#utility.yul\":2002:2006   */\n      0x00\n        /* \"#utility.yul\":2040:2042   */\n      0x20\n        /* \"#utility.yul\":2029:2038   */\n      dup3\n        /* \"#utility.yul\":2025:2043   */\n      add\n        /* \"#utility.yul\":2017:2043   */\n      swap1\n      pop\n        /* \"#utility.yul\":2053:2124   */\n      tag_75\n        /* \"#utility.yul\":2121:2122   */\n      0x00\n        /* \"#utility.yul\":2110:2119   */\n      dup4\n        /* \"#utility.yul\":2106:2123   */\n      add\n        /* \"#utility.yul\":2097:2103   */\n      dup5\n        /* \"#utility.yul\":2053:2124   */\n      tag_60\n      jump\t// in\n    tag_75:\n        /* \"#utility.yul\":1909:2131   */\n      swap3\n      swap2\n      pop\n      pop\n      jump\t// out\n        /* \"#utility.yul\":2137:2556   */\n    tag_28:\n        /* \"#utility.yul\":2303:2307   */\n      0x00\n        /* \"#utility.yul\":2341:2343   */\n      0x20\n        /* \"#utility.yul\":2330:2339   */\n      dup3\n        /* \"#utility.yul\":2326:2344   */\n      add\n        /* \"#utility.yul\":2318:2344   */\n      swap1\n      pop\n        /* \"#utility.yul\":2390:2399   */\n      dup2\n        /* \"#utility.yul\":2384:2388   */\n      dup2\n        /* \"#utility.yul\":2380:2400   */\n      sub\n        /* \"#utility.yul\":2376:2377   */\n      0x00\n        /* \"#utility.yul\":2365:2374   */\n      dup4\n        /* \"#utility.yul\":2361:2378   */\n      add\n        /* \"#utility.yul\":2354:2401   */\n      mstore\n        /* \"#utility.yul\":2418:2549   */\n      tag_77\n        /* \"#utility.yul\":2544:2548   */\n      dup2\n        /* \"#utility.yul\":2418:2549   */\n      tag_64\n      jump\t// in\n    tag_77:\n        /* \"#utility.yul\":2410:2549   */\n      swap1\n      pop\n        /* \"#utility.yul\":2137:2556   */\n      swap2\n      swap1\n      pop\n      jump\t// out\n        /* \"#utility.yul\":2562:2784   */\n    tag_10:\n        /* \"#utility.yul\":2655:2659   */\n      0x00\n        /* \"#utility.yul\":2693:2695   */\n      0x20\n        /* \"#utility.yul\":2682:2691   */\n      dup3\n        /* \"#utility.yul\":2678:2696   */\n      add\n        /* \"#utility.yul\":2670:2696   */\n      swap1\n      pop\n        /* \"#utility.yul\":2706:2777   */\n      tag_79\n        /* \"#utility.yul\":2774:2775   */\n      0x00\n        /* \"#utility.yul\":2763:2772   */\n      dup4\n        /* \"#utility.yul\":2759:2776   */\n      add\n        /* \"#utility.yul\":2750:2756   */\n      dup5\n        /* \"#utility.yul\":2706:2777   */\n      tag_70\n      jump\t// in\n    tag_79:\n        /* \"#utility.yul\":2562:2784   */\n      swap3\n      swap2\n      pop\n      pop\n      jump\t// out\n        /* \"#utility.yul\":2871:3040   */\n    tag_67:\n        /* \"#utility.yul\":2955:2966   */\n      0x00\n        /* \"#utility.yul\":2989:2995   */\n      dup3\n        /* \"#utility.yul\":2984:2987   */\n      dup3\n        /* \"#utility.yul\":2977:2996   */\n      mstore\n        /* \"#utility.yul\":3029:3033   */\n      0x20\n        /* \"#utility.yul\":3024:3027   */\n      dup3\n        /* \"#utility.yul\":3020:3034   */\n      add\n        /* \"#utility.yul\":3005:3034   */\n      swap1\n      pop\n        /* \"#utility.yul\":2871:3040   */\n      swap3\n      swap2\n      pop\n      pop\n      jump\t// out\n        /* \"#utility.yul\":3046:3142   */\n    tag_63:\n        /* \"#utility.yul\":3083:3090   */\n      0x00\n        /* \"#utility.yul\":3112:3136   */\n      tag_84\n        /* \"#utility.yul\":3130:3135   */\n      dup3\n        /* \"#utility.yul\":3112:3136   */\n      tag_85\n      jump\t// in\n    tag_84:\n        /* \"#utility.yul\":3101:3136   */\n      swap1\n      pop\n        /* \"#utility.yul\":3046:3142   */\n      swap2\n      swap1\n      pop\n      jump\t// out\n        /* \"#utility.yul\":3148:3252   */\n    tag_86:\n        /* \"#utility.yul\":3193:3200   */\n      0x00\n        /* \"#utility.yul\":3222:3246   */\n      tag_88\n        /* \"#utility.yul\":3240:3245   */\n      dup3\n        /* \"#utility.yul\":3222:3246   */\n      tag_85\n      jump\t// in\n    tag_88:\n        /* \"#utility.yul\":3211:3246   */\n      swap1\n      pop\n        /* \"#utility.yul\":3148:3252   */\n      swap2\n      swap1\n      pop\n      jump\t// out\n        /* \"#utility.yul\":3258:3384   */\n    tag_85:\n        /* \"#utility.yul\":3295:3302   */\n      0x00\n        /* \"#utility.yul\":3335:3377   */\n      0xffffffffffffffffffffffffffffffffffffffff\n        /* \"#utility.yul\":3328:3333   */\n      dup3\n        /* \"#utility.yul\":3324:3378   */\n      and\n        /* \"#utility.yul\":3313:3378   */\n      swap1\n      pop\n        /* \"#utility.yul\":3258:3384   */\n      swap2\n      swap1\n      pop\n      jump\t// out\n        /* \"#utility.yul\":3390:3467   */\n    tag_73:\n        /* \"#utility.yul\":3427:3434   */\n      0x00\n        /* \"#utility.yul\":3456:3461   */\n      dup2\n        /* \"#utility.yul\":3445:3461   */\n      swap1\n      pop\n        /* \"#utility.yul\":3390:3467   */\n      swap2\n      swap1\n      pop\n      jump\t// out\n        /* \"#utility.yul\":3596:3713   */\n    tag_53:\n        /* \"#utility.yul\":3705:3706   */\n      0x00\n        /* \"#utility.yul\":3702:3703   */\n      dup1\n        /* \"#utility.yul\":3695:3707   */\n      revert\n        /* \"#utility.yul\":3719:3888   */\n    tag_69:\n        /* \"#utility.yul\":3859:3880   */\n      0x43616c6c6572206973206e6f74206f776e657200000000000000000000000000\n        /* \"#utility.yul\":3855:3856   */\n      0x00\n        /* \"#utility.yul\":3847:3853   */\n      dup3\n        /* \"#utility.yul\":3843:3857   */\n      add\n        /* \"#utility.yul\":3836:3881   */\n      mstore\n        /* \"#utility.yul\":3719:3888   */\n      pop\n      jump\t// out\n        /* \"#utility.yul\":3894:4016   */\n    tag_41:\n        /* \"#utility.yul\":3967:3991   */\n      tag_96\n        /* \"#utility.yul\":3985:3990   */\n      dup2\n        /* \"#utility.yul\":3967:3991   */\n      tag_63\n      jump\t// in\n    tag_96:\n        /* \"#utility.yul\":3960:3965   */\n      dup2\n        /* \"#utility.yul\":3957:3992   */\n      eq\n        /* \"#utility.yul\":3947:4010   */\n      tag_97\n      jumpi\n        /* \"#utility.yul\":4006:4007   */\n      0x00\n        /* \"#utility.yul\":4003:4004   */\n      dup1\n        /* \"#utility.yul\":3996:4008   */\n      revert\n        /* \"#utility.yul\":3947:4010   */\n    tag_97:\n        /* \"#utility.yul\":3894:4016   */\n      pop\n      jump\t// out\n        /* \"#utility.yul\":4022:4160   */\n    tag_45:\n        /* \"#utility.yul\":4103:4135   */\n      tag_99\n        /* \"#utility.yul\":4129:4134   */\n      dup2\n        /* \"#utility.yul\":4103:4135   */\n      tag_86\n      jump\t// in\n    tag_99:\n        /* \"#utility.yul\":4096:4101   */\n      dup2\n        /* \"#utility.yul\":4093:4136   */\n      eq\n        /* \"#utility.yul\":4083:4154   */\n      tag_100\n      jumpi\n        /* \"#utility.yul\":4150:4151   */\n      0x00\n        /* \"#utility.yul\":4147:4148   */\n      dup1\n        /* \"#utility.yul\":4140:4152   */\n      revert\n        /* \"#utility.yul\":4083:4154   */\n    tag_100:\n        /* \"#utility.yul\":4022:4160   */\n      pop\n      jump\t// out\n        /* \"#utility.yul\":4166:4288   */\n    tag_49:\n        /* \"#utility.yul\":4239:4263   */\n      tag_102\n        /* \"#utility.yul\":4257:4262   */\n      dup2\n        /* \"#utility.yul\":4239:4263   */\n      tag_73\n      jump\t// in\n    tag_102:\n        /* \"#utility.yul\":4232:4237   */\n      dup2\n        /* \"#utility.yul\":4229:4264   */\n      eq\n        /* \"#utility.yul\":4219:4282   */\n      tag_103\n      jumpi\n        /* \"#utility.yul\":4278:4279   */\n      0x00\n        /* \"#utility.yul\":4275:4276   */\n      dup1\n        /* \"#utility.yul\":4268:4280   */\n      revert\n        /* \"#utility.yul\":4219:4282   */\n    tag_103:\n        /* \"#utility.yul\":4166:4288   */\n      pop\n      jump\t// out\n\n    auxdata: 0xa2646970667358221220cba8f26d138d358fc3c25499287e3e3136181b0d843c89f6b2d12c445fa0111564736f6c63430008070033\n}\n",
				"bytecode": {
					"linkReferences": {},
					"object": "608060405234801561001057600080fd5b50336000806101000a81548173ffffffffffffffffffffffffffffffffffffffff021916908373ffffffffffffffffffffffffffffffffffffffff16021790555060008054906101000a900473ffffffffffffffffffffffffffffffffffffffff1673ffffffffffffffffffffffffffffffffffffffff16600073ffffffffffffffffffffffffffffffffffffffff167f342827c97908e5e2f71151c08502a66d44b6f758e3ac2f1de95f02eb95f0a73560405160405180910390a36105b3806100db6000396000f3fe608060405234801561001057600080fd5b506004361061004c5760003560e01c806312065fe014610051578063893d20e81461006f578063a6f9dae11461008d578063a9059cbb146100a9575b600080fd5b6100596100c5565b6040516100669190610490565b60405180910390f35b6100776100cd565b6040516100849190610455565b60405180910390f35b6100a760048036038101906100a291906103a7565b6100f6565b005b6100c360048036038101906100be91906103d4565b610241565b005b600047905090565b60008060009054906101000a900473ffffffffffffffffffffffffffffffffffffffff16905090565b60008054906101000a900473ffffffffffffffffffffffffffffffffffffffff1673ffffffffffffffffffffffffffffffffffffffff163373ffffffffffffffffffffffffffffffffffffffff1614610184576040517f08c379a000000000000000000000000000000000000000000000000000000000815260040161017b90610470565b60405180910390fd5b8073ffffffffffffffffffffffffffffffffffffffff1660008054906101000a900473ffffffffffffffffffffffffffffffffffffffff1673ffffffffffffffffffffffffffffffffffffffff167f342827c97908e5e2f71151c08502a66d44b6f758e3ac2f1de95f02eb95f0a73560405160405180910390a3806000806101000a81548173ffffffffffffffffffffffffffffffffffffffff021916908373ffffffffffffffffffffffffffffffffffffffff16021790555050565b60008054906101000a900473ffffffffffffffffffffffffffffffffffffffff1673ffffffffffffffffffffffffffffffffffffffff163373ffffffffffffffffffffffffffffffffffffffff16146102cf576040517f08c379a00000000000000000000000000000000000000000000000000000000081526004016102c690610470565b60405180910390fd5b8173ffffffffffffffffffffffffffffffffffffffff167f0edba6af8a008df8d478c27771852395d0146033aa0f15af26991be42d994f15826040516103159190610490565b60405180910390a28173ffffffffffffffffffffffffffffffffffffffff166108fc829081150290604051600060405180830381858888f19350505050158015610363573d6000803e3d6000fd5b505050565b60008135905061037781610538565b92915050565b60008135905061038c8161054f565b92915050565b6000813590506103a181610566565b92915050565b6000602082840312156103bd576103bc61050a565b5b60006103cb84828501610368565b91505092915050565b600080604083850312156103eb576103ea61050a565b5b60006103f98582860161037d565b925050602061040a85828601610392565b9150509250929050565b61041d816104bc565b82525050565b60006104306013836104ab565b915061043b8261050f565b602082019050919050565b61044f81610500565b82525050565b600060208201905061046a6000830184610414565b92915050565b6000602082019050818103600083015261048981610423565b9050919050565b60006020820190506104a56000830184610446565b92915050565b600082825260208201905092915050565b60006104c7826104e0565b9050919050565b60006104d9826104e0565b9050919050565b600073ffffffffffffffffffffffffffffffffffffffff82169050919050565b6000819050919050565b600080fd5b7f43616c6c6572206973206e6f74206f776e657200000000000000000000000000600082015250565b610541816104bc565b811461054c57600080fd5b50565b610558816104ce565b811461056357600080fd5b50565b61056f81610500565b811461057a57600080fd5b5056fea2646970667358221220cba8f26d138d358fc3c25499287e3e3136181b0d843c89f6b2d12c445fa0111564736f6c63430008070033",
					"opcodes": "PUSH1 0x80 PUSH1 0x40 MSTORE CALLVALUE DUP1 ISZERO PUSH2 0x10 JUMPI PUSH1 0x0 DUP1 REVERT JUMPDEST POP CALLER PUSH1 0x0 DUP1 PUSH2 0x100 EXP DUP2 SLOAD DUP2 PUSH20 0xFFFFFFFFFFFFFFFFFFFFFFFFFFFFFFFFFFFFFFFF MUL NOT AND SWAP1 DUP4 PUSH20 0xFFFFFFFFFFFFFFFFFFFFFFFFFFFFFFFFFFFFFFFF AND MUL OR SWAP1 SSTORE POP PUSH1 0x0 DUP1 SLOAD SWAP1 PUSH2 0x100 EXP SWAP1 DIV PUSH20 0xFFFFFFFFFFFFFFFFFFFFFFFFFFFFFFFFFFFFFFFF AND PUSH20 0xFFFFFFFFFFFFFFFFFFFFFFFFFFFFFFFFFFFFFFFF AND PUSH1 0x0 PUSH20 0xFFFFFFFFFFFFFFFFFFFFFFFFFFFFFFFFFFFFFFFF AND PUSH32 0x342827C97908E5E2F71151C08502A66D44B6F758E3AC2F1DE95F02EB95F0A735 PUSH1 0x40 MLOAD PUSH1 0x40 MLOAD DUP1 SWAP2 SUB SWAP1 LOG3 PUSH2 0x5B3 DUP1 PUSH2 0xDB PUSH1 0x0 CODECOPY PUSH1 0x0 RETURN INVALID PUSH1 0x80 PUSH1 0x40 MSTORE CALLVALUE DUP1 ISZERO PUSH2 0x10 JUMPI PUSH1 0x0 DUP1 REVERT JUMPDEST POP PUSH1 0x4 CALLDATASIZE LT PUSH2 0x4C JUMPI PUSH1 0x0 CALLDATALOAD PUSH1 0xE0 SHR DUP1 PUSH4 0x12065FE0 EQ PUSH2 0x51 JUMPI DUP1 PUSH4 0x893D20E8 EQ PUSH2 0x6F JUMPI DUP1 PUSH4 0xA6F9DAE1 EQ PUSH2 0x8D JUMPI DUP1 PUSH4 0xA9059CBB EQ PUSH2 0xA9 JUMPI JUMPDEST PUSH1 0x0 DUP1 REVERT JUMPDEST PUSH2 0x59 PUSH2 0xC5 JUMP JUMPDEST PUSH1 0x40 MLOAD PUSH2 0x66 SWAP2 SWAP1 PUSH2 0x490 JUMP JUMPDEST PUSH1 0x40 MLOAD DUP1 SWAP2 SUB SWAP1 RETURN JUMPDEST PUSH2 0x77 PUSH2 0xCD JUMP JUMPDEST PUSH1 0x40 MLOAD PUSH2 0x84 SWAP2 SWAP1 PUSH2 0x455 JUMP JUMPDEST PUSH1 0x40 MLOAD DUP1 SWAP2 SUB SWAP1 RETURN JUMPDEST PUSH2 0xA7 PUSH1 0x4 DUP1 CALLDATASIZE SUB DUP2 ADD SWAP1 PUSH2 0xA2 SWAP2 SWAP1 PUSH2 0x3A7 JUMP JUMPDEST PUSH2 0xF6 JUMP JUMPDEST STOP JUMPDEST PUSH2 0xC3 PUSH1 0x4 DUP1 CALLDATASIZE SUB DUP2 ADD SWAP1 PUSH2 0xBE SWAP2 SWAP1 PUSH2 0x3D4 JUMP JUMPDEST PUSH2 0x241 JUMP JUMPDEST STOP JUMPDEST PUSH1 0x0 SELFBALANCE SWAP1 POP SWAP1 JUMP JUMPDEST PUSH1 0x0 DUP1 PUSH1 0x0 SWAP1 SLOAD SWAP1 PUSH2 0x100 EXP SWAP1 DIV PUSH20 0xFFFFFFFFFFFFFFFFFFFFFFFFFFFFFFFFFFFFFFFF AND SWAP1 POP SWAP1 JUMP JUMPDEST PUSH1 0x0 DUP1 SLOAD SWAP1 PUSH2 0x100 EXP SWAP1 DIV PUSH20 0xFFFFFFFFFFFFFFFFFFFFFFFFFFFFFFFFFFFFFFFF AND PUSH20 0xFFFFFFFFFFFFFFFFFFFFFFFFFFFFFFFFFFFFFFFF AND CALLER PUSH20 0xFFFFFFFFFFFFFFFFFFFFFFFFFFFFFFFFFFFFFFFF AND EQ PUSH2 0x184 JUMPI PUSH1 0x40 MLOAD PUSH32 0x8C379A000000000000000000000000000000000000000000000000000000000 DUP2 MSTORE PUSH1 0x4 ADD PUSH2 0x17B SWAP1 PUSH2 0x470 JUMP JUMPDEST PUSH1 0x40 MLOAD DUP1 SWAP2 SUB SWAP1 REVERT JUMPDEST DUP1 PUSH20 0xFFFFFFFFFFFFFFFFFFFFFFFFFFFFFFFFFFFFFFFF AND PUSH1 0x0 DUP1 SLOAD SWAP1 PUSH2 0x100 EXP SWAP1 DIV PUSH20 0xFFFFFFFFFFFFFFFFFFFFFFFFFFFFFFFFFFFFFFFF AND PUSH20 0xFFFFFFFFFFFFFFFFFFFFFFFFFFFFFFFFFFFFFFFF AND PUSH32 0x342827C97908E5E2F71151C08502A66D44B6F758E3AC2F1DE95F02EB95F0A735 PUSH1 0x40 MLOAD PUSH1 0x40 MLOAD DUP1 SWAP2 SUB SWAP1 LOG3 DUP1 PUSH1 0x0 DUP1 PUSH2 0x100 EXP DUP2 SLOAD DUP2 PUSH20 0xFFFFFFFFFFFFFFFFFFFFFFFFFFFFFFFFFFFFFFFF MUL NOT AND SWAP1 DUP4 PUSH20 0xFFFFFFFFFFFFFFFFFFFFFFFFFFFFFFFFFFFFFFFF AND MUL OR SWAP1 SSTORE POP POP JUMP JUMPDEST PUSH1 0x0 DUP1 SLOAD SWAP1 PUSH2 0x100 EXP SWAP1 DIV PUSH20 0xFFFFFFFFFFFFFFFFFFFFFFFFFFFFFFFFFFFFFFFF AND PUSH20 0xFFFFFFFFFFFFFFFFFFFFFFFFFFFFFFFFFFFFFFFF AND CALLER PUSH20 0xFFFFFFFFFFFFFFFFFFFFFFFFFFFFFFFFFFFFFFFF AND EQ PUSH2 0x2CF JUMPI PUSH1 0x40 MLOAD PUSH32 0x8C379A000000000000000000000000000000000000000000000000000000000 DUP2 MSTORE PUSH1 0x4 ADD PUSH2 0x2C6 SWAP1 PUSH2 0x470 JUMP JUMPDEST PUSH1 0x40 MLOAD DUP1 SWAP2 SUB SWAP1 REVERT JUMPDEST DUP2 PUSH20 0xFFFFFFFFFFFFFFFFFFFFFFFFFFFFFFFFFFFFFFFF AND PUSH32 0xEDBA6AF8A008DF8D478C27771852395D0146033AA0F15AF26991BE42D994F15 DUP3 PUSH1 0x40 MLOAD PUSH2 0x315 SWAP2 SWAP1 PUSH2 0x490 JUMP JUMPDEST PUSH1 0x40 MLOAD DUP1 SWAP2 SUB SWAP1 LOG2 DUP2 PUSH20 0xFFFFFFFFFFFFFFFFFFFFFFFFFFFFFFFFFFFFFFFF AND PUSH2 0x8FC DUP3 SWAP1 DUP2 ISZERO MUL SWAP1 PUSH1 0x40 MLOAD PUSH1 0x0 PUSH1 0x40 MLOAD DUP1 DUP4 SUB DUP2 DUP6 DUP9 DUP9 CALL SWAP4 POP POP POP POP ISZERO DUP1 ISZERO PUSH2 0x363 JUMPI RETURNDATASIZE PUSH1 0x0 DUP1 RETURNDATACOPY RETURNDATASIZE PUSH1 0x0 REVERT JUMPDEST POP POP POP JUMP JUMPDEST PUSH1 0x0 DUP2 CALLDATALOAD SWAP1 POP PUSH2 0x377 DUP2 PUSH2 0x538 JUMP JUMPDEST SWAP3 SWAP2 POP POP JUMP JUMPDEST PUSH1 0x0 DUP2 CALLDATALOAD SWAP1 POP PUSH2 0x38C DUP2 PUSH2 0x54F JUMP JUMPDEST SWAP3 SWAP2 POP POP JUMP JUMPDEST PUSH1 0x0 DUP2 CALLDATALOAD SWAP1 POP PUSH2 0x3A1 DUP2 PUSH2 0x566 JUMP JUMPDEST SWAP3 SWAP2 POP POP JUMP JUMPDEST PUSH1 0x0 PUSH1 0x20 DUP3 DUP5 SUB SLT ISZERO PUSH2 0x3BD JUMPI PUSH2 0x3BC PUSH2 0x50A JUMP JUMPDEST JUMPDEST PUSH1 0x0 PUSH2 0x3CB DUP5 DUP3 DUP6 ADD PUSH2 0x368 JUMP JUMPDEST SWAP2 POP POP SWAP3 SWAP2 POP POP JUMP JUMPDEST PUSH1 0x0 DUP1 PUSH1 0x40 DUP4 DUP6 SUB SLT ISZERO PUSH2 0x3EB JUMPI PUSH2 0x3EA PUSH2 0x50A JUMP JUMPDEST JUMPDEST PUSH1 0x0 PUSH2 0x3F9 DUP6 DUP3 DUP7 ADD PUSH2 0x37D JUMP JUMPDEST SWAP3 POP POP PUSH1 0x20 PUSH2 0x40A DUP6 DUP3 DUP7 ADD PUSH2 0x392 JUMP JUMPDEST SWAP2 POP POP SWAP3 POP SWAP3 SWAP1 POP JUMP JUMPDEST PUSH2 0x41D DUP2 PUSH2 0x4BC JUMP JUMPDEST DUP3 MSTORE POP POP JUMP JUMPDEST PUSH1 0x0 PUSH2 0x430 PUSH1 0x13 DUP4 PUSH2 0x4AB JUMP JUMPDEST SWAP2 POP PUSH2 0x43B DUP3 PUSH2 0x50F JUMP JUMPDEST PUSH1 0x20 DUP3 ADD SWAP1 POP SWAP2 SWAP1 POP JUMP JUMPDEST PUSH2 0x44F DUP2 PUSH2 0x500 JUMP JUMPDEST DUP3 MSTORE POP POP JUMP JUMPDEST PUSH1 0x0 PUSH1 0x20 DUP3 ADD SWAP1 POP PUSH2 0x46A PUSH1 0x0 DUP4 ADD DUP5 PUSH2 0x414 JUMP JUMPDEST SWAP3 SWAP2 POP POP JUMP JUMPDEST PUSH1 0x0 PUSH1 0x20 DUP3 ADD SWAP1 POP DUP2 DUP2 SUB PUSH1 0x0 DUP4 ADD MSTORE PUSH2 0x489 DUP2 PUSH2 0x423 JUMP JUMPDEST SWAP1 POP SWAP2 SWAP1 POP JUMP JUMPDEST PUSH1 0x0 PUSH1 0x20 DUP3 ADD SWAP1 POP PUSH2 0x4A5 PUSH1 0x0 DUP4 ADD DUP5 PUSH2 0x446 JUMP JUMPDEST SWAP3 SWAP2 POP POP JUMP JUMPDEST PUSH1 0x0 DUP3 DUP3 MSTORE PUSH1 0x20 DUP3 ADD SWAP1 POP SWAP3 SWAP2 POP POP JUMP JUMPDEST PUSH1 0x0 PUSH2 0x4C7 DUP3 PUSH2 0x4E0 JUMP JUMPDEST SWAP1 POP SWAP2 SWAP1 POP JUMP JUMPDEST PUSH1 0x0 PUSH2 0x4D9 DUP3 PUSH2 0x4E0 JUMP JUMPDEST SWAP1 POP SWAP2 SWAP1 POP JUMP JUMPDEST PUSH1 0x0 PUSH20 0xFFFFFFFFFFFFFFFFFFFFFFFFFFFFFFFFFFFFFFFF DUP3 AND SWAP1 POP SWAP2 SWAP1 POP JUMP JUMPDEST PUSH1 0x0 DUP2 SWAP1 POP SWAP2 SWAP1 POP JUMP JUMPDEST PUSH1 0x0 DUP1 REVERT JUMPDEST PUSH32 0x43616C6C6572206973206E6F74206F776E657200000000000000000000000000 PUSH1 0x0 DUP3 ADD MSTORE POP JUMP JUMPDEST PUSH2 0x541 DUP2 PUSH2 0x4BC JUMP JUMPDEST DUP2 EQ PUSH2 0x54C JUMPI PUSH1 0x0 DUP1 REVERT JUMPDEST POP JUMP JUMPDEST PUSH2 0x558 DUP2 PUSH2 0x4CE JUMP JUMPDEST DUP2 EQ PUSH2 0x563 JUMPI PUSH1 0x0 DUP1 REVERT JUMPDEST POP JUMP JUMPDEST PUSH2 0x56F DUP2 PUSH2 0x500 JUMP JUMPDEST DUP2 EQ PUSH2 0x57A JUMPI PUSH1 0x0 DUP1 REVERT JUMPDEST POP JUMP INVALID LOG2 PUSH5 0x6970667358 0x22 SLT KECCAK256 0xCB 0xA8 CALLCODE PUSH14 0x138D358FC3C25499287E3E313618 SHL 0xD DUP5 EXTCODECOPY DUP10 0xF6 0xB2 0xD1 0x2C DIFFICULTY 0x5F LOG0 GT ISZERO PUSH5 0x736F6C6343 STOP ADDMOD SMOD STOP CALLER "
				},
				"gasEstimates": {
					"creation": {
						"codeDepositCost": "291800",
						"executionCost": "28275",
						"totalCost": "320075"
					},
					"external": {
						"changeOwner(address)": "30589",
						"getBalance()": "317",
						"getOwner()": "2522",
						"transfer(address,uint256)": "infinite"
					}
				},
				"methodIdentifiers": {
					"changeOwner(address)": "a6f9dae1",
					"getBalance()": "12065fe0",
					"getOwner()": "893d20e8",
					"transfer(address,uint256)": "a9059cbb"
				}
			},
			"storageLayout": {
				"storage": [
					{
						"astId": 4,
						"contract": "contracts/RedTech.sol:RedTech",
						"label": "owner",
						"offset": 0,
						"slot": "0",
						"type": "t_address"
					}
				],
				"types": {
					"t_address": {
						"encoding": "inplace",
						"label": "address",
						"numberOfBytes": "20"
					}
				}
			},
			"userdoc": {
				"kind": "user",
				"methods": {},
				"version": 1
			}
		}
	}
}